{"abi":[{"type":"constructor","inputs":[{"name":"_pzt","type":"address","internalType":"contract ERC20"},{"name":"_asset","type":"address","internalType":"contract ERC20"}],"stateMutability":"nonpayable"},{"type":"function","name":"asset","inputs":[],"outputs":[{"name":"","type":"address","internalType":"contract ERC20"}],"stateMutability":"view"},{"type":"function","name":"claim","inputs":[],"outputs":[],"stateMutability":"nonpayable"},{"type":"function","name":"notifyReward","inputs":[{"name":"amount","type":"uint256","internalType":"uint256"}],"outputs":[],"stateMutability":"nonpayable"},{"type":"function","name":"pzt","inputs":[],"outputs":[{"name":"","type":"address","internalType":"contract ERC20"}],"stateMutability":"view"},{"type":"function","name":"rewardsEarned","inputs":[{"name":"","type":"address","internalType":"address"}],"outputs":[{"name":"","type":"uint256","internalType":"uint256"}],"stateMutability":"view"},{"type":"function","name":"shares","inputs":[{"name":"","type":"address","internalType":"address"}],"outputs":[{"name":"","type":"uint256","internalType":"uint256"}],"stateMutability":"view"},{"type":"function","name":"stake","inputs":[{"name":"amount","type":"uint256","internalType":"uint256"}],"outputs":[],"stateMutability":"nonpayable"},{"type":"function","name":"totalShares","inputs":[],"outputs":[{"name":"","type":"uint256","internalType":"uint256"}],"stateMutability":"view"},{"type":"function","name":"unstake","inputs":[{"name":"amount","type":"uint256","internalType":"uint256"}],"outputs":[],"stateMutability":"nonpayable"},{"type":"event","name":"RewardClaimed","inputs":[{"name":"user","type":"address","indexed":true,"internalType":"address"},{"name":"amount","type":"uint256","indexed":false,"internalType":"uint256"}],"anonymous":false},{"type":"event","name":"Staked","inputs":[{"name":"user","type":"address","indexed":true,"internalType":"address"},{"name":"amount","type":"uint256","indexed":false,"internalType":"uint256"}],"anonymous":false},{"type":"event","name":"Unstaked","inputs":[{"name":"user","type":"address","indexed":true,"internalType":"address"},{"name":"amount","type":"uint256","indexed":false,"internalType":"uint256"}],"anonymous":false}],"bytecode":{"object":"0x60803461008c57601f61070338819003918201601f19168301916001600160401b0383118484101761009057808492604094855283398101031261008c57610052602061004b836100a4565b92016100a4565b5f80546001600160a01b039384166001600160a01b0319918216179091556001805492909316911617905560405161064a90816100b98239f35b5f80fd5b634e487b7160e01b5f52604160045260245ffd5b51906001600160a01b038216820361008c5756fe608060409080825260049081361015610016575f80fd5b5f3560e01c9081632e17de78146103b15750806338d52e0f1461038a5780633a98ef391461036c5780634e71d92d1461029f57806360993b5b146102505780638bfea43914610217578063a694fc3a146100e5578063aae0329f146100bf5763ce7c2ac214610083575f80fd5b346100bb5760203660031901126100bb5735906001600160a01b0382168092036100bb576020915f5260038252805f20549051908152f35b5f80fd5b82346100bb575f3660031901126100bb576020906001600160a01b035f54169051908152f35b50346100bb576020806003193601126100bb578135926001600160a01b0361011485825f5416309033906105ad565b600254806101715750507f9e71bc8eea02a63969f509818f2dafb9254532904319f9dbda79b67bd34a5f3d9250610165845b335f5260038452825f2061015b828254610546565b9055600254610546565b600255519283523392a2005b61017c8491876104f4565b915f54169460248451809781936370a0823160e01b835230908301525afa93841561020d575f946101dc575b506101d77f9e71bc8eea02a63969f509818f2dafb9254532904319f9dbda79b67bd34a5f3d946101659261051b565b610146565b93508284813d8311610206575b6101f381836104be565b810103126100bb579251926101d76101a8565b503d6101e9565b82513d5f823e3d90fd5b5090346100bb5760203660031901126100bb578135916001600160a01b0383168093036100bb576020925f528252805f20549051908152f35b50346100bb5760203660031901126100bb5780359161027e836001600160a01b0360015416309033906105ad565b60025461028757005b61029b91335f526020525f20918254610546565b9055005b5090346100bb575f3660031901126100bb57335f5281602052805f205491821561031057335f526020525f818120556102e482336001600160a01b0360015416610553565b519081527f106f923f993c2149d49b4255ff723acafa1f2d94393f561d3eda32ae348f724160203392a2005b602060649251917f08c379a0000000000000000000000000000000000000000000000000000000008352820152600a60248201527f4e6f2072657761726473000000000000000000000000000000000000000000006044820152fd5b82346100bb575f3660031901126100bb576020906002549051908152f35b82346100bb575f3660031901126100bb576020906001600160a01b03600154169051908152f35b8284346100bb57602090816003193601126100bb5782359382816024816001600160a01b0397885f5416906370a0823160e01b835230908301525afa90811561020d575f91610471575b507f0f5bb82176feb1b5e747e28471aa92156a04d9f3ab9f45f28e2d704232b93f759361043761042e61046893886104f4565b6002549061051b565b90335f5260038552835f2061044d888254610539565b905561045b87600254610539565b60025533905f5416610553565b519283523392a2005b90508281813d83116104b7575b61048881836104be565b810103126100bb57517f0f5bb82176feb1b5e747e28471aa92156a04d9f3ab9f45f28e2d704232b93f756103fb565b503d61047e565b90601f8019910116810190811067ffffffffffffffff8211176104e057604052565b634e487b7160e01b5f52604160045260245ffd5b8181029291811591840414171561050757565b634e487b7160e01b5f52601160045260245ffd5b8115610525570490565b634e487b7160e01b5f52601260045260245ffd5b9190820391821161050757565b9190820180921161050757565b91906014526034526fa9059cbb0000000000000000000000005f5260205f6044601082855af1908160015f5114161561058f575b50505f603452565b3b153d1710156105a0575f80610587565b6390b8ec185f526004601cfd5b916040519360605260405260601b602c526f23b872dd000000000000000000000000600c5260205f6064601c82855af1908160015f511416156105f6575b50505f606052604052565b3b153d171015610607575f806105eb565b637939f4245f526004601cfdfea2646970667358221220093a4eb0f51ffdfbba3b73fdf34d1fdcee10de03d093f04684b91977e7e8157864736f6c63430008180033","linkReferences":{}},"methodIdentifiers":{"asset()":"38d52e0f","claim()":"4e71d92d","notifyReward(uint256)":"60993b5b","pzt()":"aae0329f","rewardsEarned(address)":"8bfea439","shares(address)":"ce7c2ac2","stake(uint256)":"a694fc3a","totalShares()":"3a98ef39","unstake(uint256)":"2e17de78"},"id":92}