{"abi":[{"type":"constructor","inputs":[],"stateMutability":"nonpayable"},{"type":"receive","stateMutability":"payable"},{"type":"function","name":"CANCELLER_ROLE","inputs":[],"outputs":[{"name":"","type":"bytes32","internalType":"bytes32"}],"stateMutability":"view"},{"type":"function","name":"DEFAULT_ADMIN_ROLE","inputs":[],"outputs":[{"name":"","type":"bytes32","internalType":"bytes32"}],"stateMutability":"view"},{"type":"function","name":"EXECUTOR_ROLE","inputs":[],"outputs":[{"name":"","type":"bytes32","internalType":"bytes32"}],"stateMutability":"view"},{"type":"function","name":"PROPOSER_ROLE","inputs":[],"outputs":[{"name":"","type":"bytes32","internalType":"bytes32"}],"stateMutability":"view"},{"type":"function","name":"cancel","inputs":[{"name":"id","type":"bytes32","internalType":"bytes32"}],"outputs":[],"stateMutability":"nonpayable"},{"type":"function","name":"execute","inputs":[{"name":"target","type":"address","internalType":"address"},{"name":"value","type":"uint256","internalType":"uint256"},{"name":"payload","type":"bytes","internalType":"bytes"},{"name":"predecessor","type":"bytes32","internalType":"bytes32"},{"name":"salt","type":"bytes32","internalType":"bytes32"}],"outputs":[],"stateMutability":"payable"},{"type":"function","name":"executeBatch","inputs":[{"name":"targets","type":"address[]","internalType":"address[]"},{"name":"values","type":"uint256[]","internalType":"uint256[]"},{"name":"payloads","type":"bytes[]","internalType":"bytes[]"},{"name":"predecessor","type":"bytes32","internalType":"bytes32"},{"name":"salt","type":"bytes32","internalType":"bytes32"}],"outputs":[],"stateMutability":"payable"},{"type":"function","name":"getMinDelay","inputs":[],"outputs":[{"name":"","type":"uint256","internalType":"uint256"}],"stateMutability":"view"},{"type":"function","name":"getOperationState","inputs":[{"name":"id","type":"bytes32","internalType":"bytes32"}],"outputs":[{"name":"","type":"uint8","internalType":"enum TimelockControllerUpgradeable.OperationState"}],"stateMutability":"view"},{"type":"function","name":"getRoleAdmin","inputs":[{"name":"role","type":"bytes32","internalType":"bytes32"}],"outputs":[{"name":"","type":"bytes32","internalType":"bytes32"}],"stateMutability":"view"},{"type":"function","name":"getTimestamp","inputs":[{"name":"id","type":"bytes32","internalType":"bytes32"}],"outputs":[{"name":"","type":"uint256","internalType":"uint256"}],"stateMutability":"view"},{"type":"function","name":"grantRole","inputs":[{"name":"role","type":"bytes32","internalType":"bytes32"},{"name":"account","type":"address","internalType":"address"}],"outputs":[],"stateMutability":"nonpayable"},{"type":"function","name":"hasRole","inputs":[{"name":"role","type":"bytes32","internalType":"bytes32"},{"name":"account","type":"address","internalType":"address"}],"outputs":[{"name":"","type":"bool","internalType":"bool"}],"stateMutability":"view"},{"type":"function","name":"hashOperation","inputs":[{"name":"target","type":"address","internalType":"address"},{"name":"value","type":"uint256","internalType":"uint256"},{"name":"data","type":"bytes","internalType":"bytes"},{"name":"predecessor","type":"bytes32","internalType":"bytes32"},{"name":"salt","type":"bytes32","internalType":"bytes32"}],"outputs":[{"name":"","type":"bytes32","internalType":"bytes32"}],"stateMutability":"pure"},{"type":"function","name":"hashOperationBatch","inputs":[{"name":"targets","type":"address[]","internalType":"address[]"},{"name":"values","type":"uint256[]","internalType":"uint256[]"},{"name":"payloads","type":"bytes[]","internalType":"bytes[]"},{"name":"predecessor","type":"bytes32","internalType":"bytes32"},{"name":"salt","type":"bytes32","internalType":"bytes32"}],"outputs":[{"name":"","type":"bytes32","internalType":"bytes32"}],"stateMutability":"pure"},{"type":"function","name":"initialize","inputs":[{"name":"admin","type":"address","internalType":"address"},{"name":"proposers","type":"address[]","internalType":"address[]"},{"name":"executors","type":"address[]","internalType":"address[]"},{"name":"minDelay","type":"uint256","internalType":"uint256"}],"outputs":[],"stateMutability":"nonpayable"},{"type":"function","name":"initialize","inputs":[{"name":"minDelay","type":"uint256","internalType":"uint256"},{"name":"proposers","type":"address[]","internalType":"address[]"},{"name":"executors","type":"address[]","internalType":"address[]"},{"name":"admin","type":"address","internalType":"address"}],"outputs":[],"stateMutability":"nonpayable"},{"type":"function","name":"isOperation","inputs":[{"name":"id","type":"bytes32","internalType":"bytes32"}],"outputs":[{"name":"","type":"bool","internalType":"bool"}],"stateMutability":"view"},{"type":"function","name":"isOperationDone","inputs":[{"name":"id","type":"bytes32","internalType":"bytes32"}],"outputs":[{"name":"","type":"bool","internalType":"bool"}],"stateMutability":"view"},{"type":"function","name":"isOperationPending","inputs":[{"name":"id","type":"bytes32","internalType":"bytes32"}],"outputs":[{"name":"","type":"bool","internalType":"bool"}],"stateMutability":"view"},{"type":"function","name":"isOperationReady","inputs":[{"name":"id","type":"bytes32","internalType":"bytes32"}],"outputs":[{"name":"","type":"bool","internalType":"bool"}],"stateMutability":"view"},{"type":"function","name":"onERC1155BatchReceived","inputs":[{"name":"","type":"address","internalType":"address"},{"name":"","type":"address","internalType":"address"},{"name":"","type":"uint256[]","internalType":"uint256[]"},{"name":"","type":"uint256[]","internalType":"uint256[]"},{"name":"","type":"bytes","internalType":"bytes"}],"outputs":[{"name":"","type":"bytes4","internalType":"bytes4"}],"stateMutability":"nonpayable"},{"type":"function","name":"onERC1155Received","inputs":[{"name":"","type":"address","internalType":"address"},{"name":"","type":"address","internalType":"address"},{"name":"","type":"uint256","internalType":"uint256"},{"name":"","type":"uint256","internalType":"uint256"},{"name":"","type":"bytes","internalType":"bytes"}],"outputs":[{"name":"","type":"bytes4","internalType":"bytes4"}],"stateMutability":"nonpayable"},{"type":"function","name":"onERC721Received","inputs":[{"name":"","type":"address","internalType":"address"},{"name":"","type":"address","internalType":"address"},{"name":"","type":"uint256","internalType":"uint256"},{"name":"","type":"bytes","internalType":"bytes"}],"outputs":[{"name":"","type":"bytes4","internalType":"bytes4"}],"stateMutability":"nonpayable"},{"type":"function","name":"renounceRole","inputs":[{"name":"role","type":"bytes32","internalType":"bytes32"},{"name":"callerConfirmation","type":"address","internalType":"address"}],"outputs":[],"stateMutability":"nonpayable"},{"type":"function","name":"revokeRole","inputs":[{"name":"role","type":"bytes32","internalType":"bytes32"},{"name":"account","type":"address","internalType":"address"}],"outputs":[],"stateMutability":"nonpayable"},{"type":"function","name":"schedule","inputs":[{"name":"target","type":"address","internalType":"address"},{"name":"value","type":"uint256","internalType":"uint256"},{"name":"data","type":"bytes","internalType":"bytes"},{"name":"predecessor","type":"bytes32","internalType":"bytes32"},{"name":"salt","type":"bytes32","internalType":"bytes32"},{"name":"delay","type":"uint256","internalType":"uint256"}],"outputs":[],"stateMutability":"nonpayable"},{"type":"function","name":"scheduleBatch","inputs":[{"name":"targets","type":"address[]","internalType":"address[]"},{"name":"values","type":"uint256[]","internalType":"uint256[]"},{"name":"payloads","type":"bytes[]","internalType":"bytes[]"},{"name":"predecessor","type":"bytes32","internalType":"bytes32"},{"name":"salt","type":"bytes32","internalType":"bytes32"},{"name":"delay","type":"uint256","internalType":"uint256"}],"outputs":[],"stateMutability":"nonpayable"},{"type":"function","name":"supportsInterface","inputs":[{"name":"interfaceId","type":"bytes4","internalType":"bytes4"}],"outputs":[{"name":"","type":"bool","internalType":"bool"}],"stateMutability":"view"},{"type":"function","name":"updateDelay","inputs":[{"name":"newDelay","type":"uint256","internalType":"uint256"}],"outputs":[],"stateMutability":"nonpayable"},{"type":"event","name":"CallExecuted","inputs":[{"name":"id","type":"bytes32","indexed":true,"internalType":"bytes32"},{"name":"index","type":"uint256","indexed":true,"internalType":"uint256"},{"name":"target","type":"address","indexed":false,"internalType":"address"},{"name":"value","type":"uint256","indexed":false,"internalType":"uint256"},{"name":"data","type":"bytes","indexed":false,"internalType":"bytes"}],"anonymous":false},{"type":"event","name":"CallSalt","inputs":[{"name":"id","type":"bytes32","indexed":true,"internalType":"bytes32"},{"name":"salt","type":"bytes32","indexed":false,"internalType":"bytes32"}],"anonymous":false},{"type":"event","name":"CallScheduled","inputs":[{"name":"id","type":"bytes32","indexed":true,"internalType":"bytes32"},{"name":"index","type":"uint256","indexed":true,"internalType":"uint256"},{"name":"target","type":"address","indexed":false,"internalType":"address"},{"name":"value","type":"uint256","indexed":false,"internalType":"uint256"},{"name":"data","type":"bytes","indexed":false,"internalType":"bytes"},{"name":"predecessor","type":"bytes32","indexed":false,"internalType":"bytes32"},{"name":"delay","type":"uint256","indexed":false,"internalType":"uint256"}],"anonymous":false},{"type":"event","name":"Cancelled","inputs":[{"name":"id","type":"bytes32","indexed":true,"internalType":"bytes32"}],"anonymous":false},{"type":"event","name":"Initialized","inputs":[{"name":"version","type":"uint64","indexed":false,"internalType":"uint64"}],"anonymous":false},{"type":"event","name":"MinDelayChange","inputs":[{"name":"oldDuration","type":"uint256","indexed":false,"internalType":"uint256"},{"name":"newDuration","type":"uint256","indexed":false,"internalType":"uint256"}],"anonymous":false},{"type":"event","name":"RoleAdminChanged","inputs":[{"name":"role","type":"bytes32","indexed":true,"internalType":"bytes32"},{"name":"previousAdminRole","type":"bytes32","indexed":true,"internalType":"bytes32"},{"name":"newAdminRole","type":"bytes32","indexed":true,"internalType":"bytes32"}],"anonymous":false},{"type":"event","name":"RoleGranted","inputs":[{"name":"role","type":"bytes32","indexed":true,"internalType":"bytes32"},{"name":"account","type":"address","indexed":true,"internalType":"address"},{"name":"sender","type":"address","indexed":true,"internalType":"address"}],"anonymous":false},{"type":"event","name":"RoleRevoked","inputs":[{"name":"role","type":"bytes32","indexed":true,"internalType":"bytes32"},{"name":"account","type":"address","indexed":true,"internalType":"address"},{"name":"sender","type":"address","indexed":true,"internalType":"address"}],"anonymous":false},{"type":"error","name":"AccessControlBadConfirmation","inputs":[]},{"type":"error","name":"AccessControlUnauthorizedAccount","inputs":[{"name":"account","type":"address","internalType":"address"},{"name":"neededRole","type":"bytes32","internalType":"bytes32"}]},{"type":"error","name":"FailedCall","inputs":[]},{"type":"error","name":"InvalidInitialization","inputs":[]},{"type":"error","name":"NotInitializing","inputs":[]},{"type":"error","name":"TimelockInsufficientDelay","inputs":[{"name":"delay","type":"uint256","internalType":"uint256"},{"name":"minDelay","type":"uint256","internalType":"uint256"}]},{"type":"error","name":"TimelockInvalidOperationLength","inputs":[{"name":"targets","type":"uint256","internalType":"uint256"},{"name":"payloads","type":"uint256","internalType":"uint256"},{"name":"values","type":"uint256","internalType":"uint256"}]},{"type":"error","name":"TimelockUnauthorizedCaller","inputs":[{"name":"caller","type":"address","internalType":"address"}]},{"type":"error","name":"TimelockUnexecutedPredecessor","inputs":[{"name":"predecessorId","type":"bytes32","internalType":"bytes32"}]},{"type":"error","name":"TimelockUnexpectedOperationState","inputs":[{"name":"operationId","type":"bytes32","internalType":"bytes32"},{"name":"expectedStates","type":"bytes32","internalType":"bytes32"}]}],"bytecode":{"object":"0x608080604052346100b8577ff0c57e16840df040f15088dc2f81fe391c3923bec73e23a9662efc9c229c6a009081549060ff8260401c166100a957506001600160401b036002600160401b031982821601610064575b60405161204590816100bd8239f35b6001600160401b031990911681179091556040519081527fc7f505b2f371ae2175ee4913f4499e1f2633a7b5936321eed1cdaeb6115181d290602090a15f8080610055565b63f92ee8a960e01b8152600490fd5b5f80fdfe60406080815260048036101561001e575b5050361561001c575f80fd5b005b5f3560e01c90816301d5062a1461117057816301ffc9a7146110d157816307bd026514611097578163134008d314610fce57816313bc9f2014610fb0578163150b7a0214610f44578163248a9ca314610f0e5781632ab0f52914610ef05781632f2ff15d14610ec857816331d5075014610eaa57816336568abe14610e4d578163584b153e14610e2657816364d6235314610d865781637958004c14610d445781638065657f14610d235781638f2a0bb014610b835781638f61f4f514610b4957816391d1485414610af8578163a217fddf14610ade578163a9e473811461089e578163b08e51c014610864578163b1c5f42714610839578163bc197c811461079c578163c4c4c7b314610515578163c4d252f51461041d578163d45c4435146103d7578163d547741f1461038f578163e38335e514610220578163f23a6e61146101b4575063f27a0c92146101745780610010565b346101b0575f3660031901126101b0576020907f9a37c2aa9d186a0969ff8a8267bf4e07e864c2f2768f5040949e28a624fb3601549051908152f35b5f80fd5b82346101b05760a03660031901126101b0576101ce61121c565b506101d7611232565b5060843567ffffffffffffffff81116101b0576020926101f99136910161132b565b50517ff23a6e61000000000000000000000000000000000000000000000000000000008152f35b905061022b36611422565b9098949591939296977fd8aa0f3194971a2a116679f7c2090f6939c8d4e01a2a8d7e41d55e5351469e635f525f80516020611ff0833981519152602052855f205f805260205260ff865f20541615610381575b838314801590610377575b61033357506102a16102a8918a868a878b888f611710565b9889611a5f565b5f5b8181106102ba5761001c89611b31565b80808a7fc2617efa69bab66782fa219543714338489c4e9e178271560a91b82c3f612b588a8a61032a6103128f988c61030b828e6103058f60019f610300918591611696565b6116ba565b97611696565b35956116ce565b9061031f82828787611ade565b8d519485948561153d565b0390a3016102aa565b85517fffb032110000000000000000000000000000000000000000000000000000000081529081019283526020830185905260408301849052918291506060010390fd5b5084831415610289565b61038a336119c1565b61027e565b82346101b057806003193601126101b05761001c91356103d260016103b2611232565b93835f525f80516020611ff08339815191526020525f2001543390611a25565b611ec1565b82346101b05760203660031901126101b057602091355f527f9a37c2aa9d186a0969ff8a8267bf4e07e864c2f2768f5040949e28a624fb36008252805f20549051908152f35b82346101b05760203660031901126101b0578135917ffd643c72710c63c0180259aba6b2d05451e3591a24e58b62239378085726f783805f525f80516020611ff0833981519152602052825f20335f5260205260ff835f205416156104fa5750610486836115c0565b156104de57505f908282527f9a37c2aa9d186a0969ff8a8267bf4e07e864c2f2768f5040949e28a624fb36006020528120557fbaa1eb22f2a492ba1a5fea61b8df4d27c6c8b5f3971e63bb58fa14ff72eedb705f80a2005b826044925191635ead8eb560e01b835282015260066024820152fd5b604492519163e2517d3f60e01b835233908301526024820152fd5b9050346101b05760803660031901126101b05780359067ffffffffffffffff6024358181116101b05761054b90369084016113ba565b926044358281116101b05761056390369085016113ba565b93606435946001600160a01b0391828716968781036101b0577ff0c57e16840df040f15088dc2f81fe391c3923bec73e23a9662efc9c229c6a0097885460ff818c1c161597811698891580610795575b6001809b14908161078b575b159081610782575b50610774575067ffffffffffffffff19811689178a55889392919088610755575b506105f1611f82565b6105f9611f82565b61060230611b6e565b50610745575b5088939192905f845b6106f1575b5050825f905b6106b8575b50505050817f11c24f4ead16507c69ac467fbd5e4eed5fb5c699626d2cc6d66421df253886d5927f9a37c2aa9d186a0969ff8a8267bf4e07e864c2f2768f5040949e28a624fb3601558151905f82526020820152a161067c57005b7fc7f505b2f371ae2175ee4913f4499e1f2633a7b5936321eed1cdaeb6115181d29260209268ff000000000000000019815416905551908152a1005b9091929382518210156106ea5750806106dd846106d6879486611fdb565b5116611d84565b500190839291899461061c565b9392610621565b908092949395505181101561073b578061071786610710869486611fdb565b5116611c0b565b5061072d866107268386611fdb565b5116611ccb565b5001908293918a9593610611565b8994929391610616565b61074e90611b6e565b505f610608565b68ffffffffffffffffff191668010000000000000001178a555f6105e8565b8b5163f92ee8a960e01b8152fd5b9050155f6105c7565b303b1591506105bf565b50886105b3565b82346101b05760a03660031901126101b0576107b661121c565b506107bf611232565b5067ffffffffffffffff6044358181116101b0576107e09036908501611484565b506064358181116101b0576107f89036908501611484565b506084359081116101b0576020926108129136910161132b565b50517fbc197c81000000000000000000000000000000000000000000000000000000008152f35b82346101b05760209061085d61084e36611422565b96959095949194939293611710565b9051908152f35b82346101b0575f3660031901126101b057602090517ffd643c72710c63c0180259aba6b2d05451e3591a24e58b62239378085726f7838152f35b9050346101b05760803660031901126101b0576108b961121c565b9067ffffffffffffffff6024358181116101b0576108da90369084016113ba565b926044358281116101b0576108f290369085016113ba565b93606435907ff0c57e16840df040f15088dc2f81fe391c3923bec73e23a9662efc9c229c6a0095865460ff818a1c161595811696871580610ad7575b60018099149081610acd575b159081610ac4575b50610ab6575067ffffffffffffffff1981168717885585610a97575b50610967611f82565b61096f611f82565b61097830611b6e565b50856001600160a01b0392838616610a88575b8994939192905f845b610a3f575b5050825f905b610a0a575b50505050610a039291817f11c24f4ead16507c69ac467fbd5e4eed5fb5c699626d2cc6d66421df253886d5927f9a37c2aa9d186a0969ff8a8267bf4e07e864c2f2768f5040949e28a624fb3601558151905f82526020820152a1611b6e565b5061067c57005b90919293948251821015610a37575080610a29846106d6879486611fdb565b5001908392918a959461099f565b9493926109a4565b908092949395965051811015610a7d5780610a5f86610710869486611fdb565b50610a6e866107268386611fdb565b5001908293918b969593610994565b8a9594929391610999565b610a9186611b6e565b5061098b565b68ffffffffffffffffff1916680100000000000000011787555f61095e565b895163f92ee8a960e01b8152fd5b9050155f610942565b303b15915061093a565b508661092e565b82346101b0575f3660031901126101b057602090515f8152f35b82346101b057806003193601126101b057602091610b14611232565b90355f525f80516020611ff083398151915283526001600160a01b03825f2091165f52825260ff815f20541690519015158152f35b82346101b0575f3660031901126101b057602090517fb09aa5aeb3702cfd50b6b62bc4532604938f21248a27a1d5ca736082b6819cc18152f35b82346101b05760c03660031901126101b05767ffffffffffffffff9082358281116101b057610bb59036908501611371565b936024358481116101b057610bcd9036908301611371565b946044359081116101b057610be59036908401611371565b60649391933590608435978960a43594610bfe3361193f565b828214801590610d19575b610cd6575089848489858a610c1e968e611710565b99610c29858c611866565b8a5f5b8a838210610c6a578c809250610c3e57005b7f20fda5fd27a1ea7bf5b9567f143ac5470bb059374a27e8f67cb44f946f6d03879160209151908152a2005b6001927f4cf4410cc57040e44862ef0f45f3dd5a5e02db8eb8add648d4b0e236f1d07dca8b8b610ccb8f8c88978f92898f8f8f610cb991610cb3610300868094610cc099611696565b9a611696565b35986116ce565b915196879687611504565b0390a3018b90610c2c565b89517fffb0321100000000000000000000000000000000000000000000000000000000815290810191825260208201849052604082018390529081906060010390fd5b5083821415610c09565b82346101b05760209061085d610d383661128a565b94939093929192611640565b82346101b05760203660031901126101b057610d6082356115e9565b90519082811015610d7357602092508152f35b602183634e487b7160e01b5f525260245ffd5b82346101b05760203660031901126101b057813591303303610df757507f11c24f4ead16507c69ac467fbd5e4eed5fb5c699626d2cc6d66421df253886d57f9a37c2aa9d186a0969ff8a8267bf4e07e864c2f2768f5040949e28a624fb36019182548151908152846020820152a155005b60249151907fe2850c590000000000000000000000000000000000000000000000000000000082523390820152fd5b82346101b05760203660031901126101b057610e44602092356115c0565b90519015158152f35b82346101b057806003193601126101b057610e66611232565b90336001600160a01b03831603610e82575061001c9135611ec1565b9050517f6697b232000000000000000000000000000000000000000000000000000000008152fd5b82346101b05760203660031901126101b057610e44602092356115a9565b82346101b057806003193601126101b05761001c9135610eeb60016103b2611232565b611e3d565b82346101b05760203660031901126101b057610e4460209235611591565b82346101b05760203660031901126101b057602091355f525f80516020611ff083398151915282526001815f2001549051908152f35b82346101b05760803660031901126101b057610f5e61121c565b50610f67611232565b5060643567ffffffffffffffff81116101b057602092610f899136910161132b565b50517f150b7a02000000000000000000000000000000000000000000000000000000008152f35b82346101b05760203660031901126101b057610e4460209235611565565b61001c61106b5f6110817fc2617efa69bab66782fa219543714338489c4e9e178271560a91b82c3f612b58611062886110063661128a565b7fd8aa0f3194971a2a116679f7c2090f6939c8d4e01a2a8d7e41d55e5351469e638b9a9697939598929a525f80516020611ff0833981519152602052828b208b805260205260ff838c20541615611089575b8985858a8a611640565b998a9889611a5f565b61107783838888611ade565b519485948561153d565b0390a3611b31565b611092336119c1565b611058565b82346101b0575f3660031901126101b057602090517fd8aa0f3194971a2a116679f7c2090f6939c8d4e01a2a8d7e41d55e5351469e638152f35b9050346101b05760203660031901126101b057357fffffffff0000000000000000000000000000000000000000000000000000000081168091036101b0576020917f4e2312e0000000000000000000000000000000000000000000000000000000008214918215611146575b50519015158152f35b7f01ffc9a7000000000000000000000000000000000000000000000000000000001491505f61113d565b82346101b05760c03660031901126101b05761118a61121c565b90602435926044359367ffffffffffffffff85116101b0576111d15f927f4cf4410cc57040e44862ef0f45f3dd5a5e02db8eb8add648d4b0e236f1d07dca9636910161125c565b959091606435956112126084359760a435906111ec3361193f565b6111fa8a828d8a8989611640565b9a8b97611207848a611866565b8a5196879687611504565b0390a381610c3e57005b600435906001600160a01b03821682036101b057565b602435906001600160a01b03821682036101b057565b35906001600160a01b03821682036101b057565b9181601f840112156101b05782359167ffffffffffffffff83116101b057602083818601950101116101b057565b60a06003198201126101b0576004356001600160a01b03811681036101b05791602435916044359067ffffffffffffffff82116101b0576112cd9160040161125c565b90916064359060843590565b90601f8019910116810190811067ffffffffffffffff8211176112fb57604052565b634e487b7160e01b5f52604160045260245ffd5b67ffffffffffffffff81116112fb57601f01601f191660200190565b81601f820112156101b0578035906113428261130f565b9261135060405194856112d9565b828452602083830101116101b057815f926020809301838601378301015290565b9181601f840112156101b05782359167ffffffffffffffff83116101b0576020808501948460051b0101116101b057565b67ffffffffffffffff81116112fb5760051b60200190565b9080601f830112156101b05760209082356113d4816113a2565b936113e260405195866112d9565b81855260208086019260051b8201019283116101b057602001905b82821061140b575050505090565b83809161141784611248565b8152019101906113fd565b9060a06003198301126101b05767ffffffffffffffff6004358181116101b0578361144f91600401611371565b939093926024358381116101b0578261146a91600401611371565b939093926044359182116101b0576112cd91600401611371565b9080601f830112156101b057602090823561149e816113a2565b936114ac60405195866112d9565b81855260208086019260051b8201019283116101b057602001905b8282106114d5575050505090565b813581529083019083016114c7565b908060209392818452848401375f828201840152601f01601f1916010190565b929093611533926001600160a01b0360809699989799168552602085015260a0604085015260a08401916114e4565b9460608201520152565b61156294926001600160a01b03606093168252602082015281604082015201916114e4565b90565b61156e906115e9565b600481101561157d5760021490565b634e487b7160e01b5f52602160045260245ffd5b61159a906115e9565b600481101561157d5760031490565b6115b2906115e9565b600481101561157d57151590565b6115c9906115e9565b600481101561157d57600181149081156115e1575090565b600291501490565b5f527f9a37c2aa9d186a0969ff8a8267bf4e07e864c2f2768f5040949e28a624fb360060205260405f205480155f1461162157505f90565b6001810361162f5750600390565b42101561163b57600190565b600290565b94611677611690949592936040519687956001600160a01b03602088019a168a52604087015260a0606087015260c08601916114e4565b91608084015260a083015203601f1981018352826112d9565b51902090565b91908110156116a65760051b0190565b634e487b7160e01b5f52603260045260245ffd5b356001600160a01b03811681036101b05790565b91908110156116a65760051b81013590601e19813603018212156101b057019081359167ffffffffffffffff83116101b05760200182360381136101b0579190565b969294909695919560405196602091828901998060c08b0160a08d525260e08a0191905f5b858282106118405750505050601f1997888a83030160408b01528082527f07ffffffffffffffffffffffffffffffffffffffffffffffffffffffffffffff81116101b0579089969495939897929160051b80928a830137019380888601878703606089015252604085019460408260051b82010195835f925b8484106117d6575050505050506116909550608084015260a0830152039081018352826112d9565b9193969850919398999496603f198282030184528935601e19843603018112156101b057830186810191903567ffffffffffffffff81116101b05780360383136101b057611829889283926001956114e4565b9b0194019401918b98969394919a9997959a6117ae565b8084956001600160a01b036118586001959697611248565b168152019401929101611735565b90611870826115a9565b611920577f9a37c2aa9d186a0969ff8a8267bf4e07e864c2f2768f5040949e28a624fb3601548082106118e957504201908142116118d5575f527f9a37c2aa9d186a0969ff8a8267bf4e07e864c2f2768f5040949e28a624fb360060205260405f2055565b634e487b7160e01b5f52601160045260245ffd5b60449250604051917f5433660900000000000000000000000000000000000000000000000000000000835260048301526024820152fd5b60448260405190635ead8eb560e01b8252600482015260016024820152fd5b6001600160a01b03165f8181527f5a8734c34b98d7c96eb2ea25f298989407e1f25da116ec139bcce0887bcb7cf760205260409020547fb09aa5aeb3702cfd50b6b62bc4532604938f21248a27a1d5ca736082b6819cc19060ff16156119a3575050565b604492506040519163e2517d3f60e01b835260048301526024820152fd5b6001600160a01b03165f8181527f52fce5e8a5d0d9e8d1ea29f4525e512e9c27bf92cae50374d497f918ab48f38260205260409020547fd8aa0f3194971a2a116679f7c2090f6939c8d4e01a2a8d7e41d55e5351469e639060ff16156119a3575050565b805f525f80516020611ff08339815191526020526001600160a01b0360405f20921691825f5260205260ff60405f205416156119a3575050565b611a6881611565565b15611abf575080151580611aaf575b611a7e5750565b602490604051907f90a9a6180000000000000000000000000000000000000000000000000000000082526004820152fd5b50611ab981611591565b15611a77565b60449060405190635ead8eb560e01b8252600482015260046024820152fd5b611b26935f93928493826040519384928337810185815203925af13d15611b29573d90611b0a8261130f565b91611b1860405193846112d9565b82523d5f602084013e611f41565b50565b606090611f41565b611b3a81611565565b15611abf575f527f9a37c2aa9d186a0969ff8a8267bf4e07e864c2f2768f5040949e28a624fb3600602052600160405f2055565b6001600160a01b03165f8181527fb7db2dd08fcb62d0c9e08c51941cae53c267786a0b75803fb7960902fc8ef97d60205260409020545f80516020611ff08339815191529060ff16611c05575f805260205260405f20815f5260205260405f20600160ff1982541617905533905f7f2f8788117e7eff1d82e926ec794901d17c78024a50270940304540a733656f0d8180a4600190565b50505f90565b6001600160a01b03165f8181527f5a8734c34b98d7c96eb2ea25f298989407e1f25da116ec139bcce0887bcb7cf760205260409020547fb09aa5aeb3702cfd50b6b62bc4532604938f21248a27a1d5ca736082b6819cc191905f80516020611ff08339815191529060ff16611cc457825f5260205260405f20815f5260205260405f20600160ff1982541617905533917f2f8788117e7eff1d82e926ec794901d17c78024a50270940304540a733656f0d5f80a4600190565b5050505f90565b6001600160a01b03165f8181527ffa71e07f24c4701ef65a970775979de1292cfe909335cd18a32d2b7b7398791460205260409020547ffd643c72710c63c0180259aba6b2d05451e3591a24e58b62239378085726f78391905f80516020611ff08339815191529060ff16611cc457825f5260205260405f20815f5260205260405f20600160ff1982541617905533917f2f8788117e7eff1d82e926ec794901d17c78024a50270940304540a733656f0d5f80a4600190565b6001600160a01b03165f8181527f52fce5e8a5d0d9e8d1ea29f4525e512e9c27bf92cae50374d497f918ab48f38260205260409020547fd8aa0f3194971a2a116679f7c2090f6939c8d4e01a2a8d7e41d55e5351469e6391905f80516020611ff08339815191529060ff16611cc457825f5260205260405f20815f5260205260405f20600160ff1982541617905533917f2f8788117e7eff1d82e926ec794901d17c78024a50270940304540a733656f0d5f80a4600190565b90815f525f80516020611ff0833981519152806020526001600160a01b0360405f20921691825f5260205260ff60405f205416155f14611cc457825f5260205260405f20815f5260205260405f20600160ff1982541617905533917f2f8788117e7eff1d82e926ec794901d17c78024a50270940304540a733656f0d5f80a4600190565b90815f525f80516020611ff0833981519152806020526001600160a01b0360405f20921691825f5260205260ff60405f2054165f14611cc457825f5260205260405f20815f5260205260405f2060ff19815416905533917ff6391f5c32d9c69d2a47ea670b442974b53935d1edc7fd64eb21e047a839171b5f80a4600190565b15611f495790565b805115611f5857602081519101fd5b60046040517fd6bda275000000000000000000000000000000000000000000000000000000008152fd5b60ff7ff0c57e16840df040f15088dc2f81fe391c3923bec73e23a9662efc9c229c6a005460401c1615611fb157565b60046040517fd7e6bcf8000000000000000000000000000000000000000000000000000000008152fd5b80518210156116a65760209160051b01019056fe02dd7bc7dec4dceedda775e58dd541e08a116c6c53815c0bd028192f7b626800a2646970667358221220d1f9652f0323e81855a24fe0d8974e33cf2a4c696945f9c9bd56e9172e5fa71e64736f6c63430008180033","linkReferences":{}},"methodIdentifiers":{"CANCELLER_ROLE()":"b08e51c0","DEFAULT_ADMIN_ROLE()":"a217fddf","EXECUTOR_ROLE()":"07bd0265","PROPOSER_ROLE()":"8f61f4f5","cancel(bytes32)":"c4d252f5","execute(address,uint256,bytes,bytes32,bytes32)":"134008d3","executeBatch(address[],uint256[],bytes[],bytes32,bytes32)":"e38335e5","getMinDelay()":"f27a0c92","getOperationState(bytes32)":"7958004c","getRoleAdmin(bytes32)":"248a9ca3","getTimestamp(bytes32)":"d45c4435","grantRole(bytes32,address)":"2f2ff15d","hasRole(bytes32,address)":"91d14854","hashOperation(address,uint256,bytes,bytes32,bytes32)":"8065657f","hashOperationBatch(address[],uint256[],bytes[],bytes32,bytes32)":"b1c5f427","initialize(address,address[],address[],uint256)":"a9e47381","initialize(uint256,address[],address[],address)":"c4c4c7b3","isOperation(bytes32)":"31d50750","isOperationDone(bytes32)":"2ab0f529","isOperationPending(bytes32)":"584b153e","isOperationReady(bytes32)":"13bc9f20","onERC1155BatchReceived(address,address,uint256[],uint256[],bytes)":"bc197c81","onERC1155Received(address,address,uint256,uint256,bytes)":"f23a6e61","onERC721Received(address,address,uint256,bytes)":"150b7a02","renounceRole(bytes32,address)":"36568abe","revokeRole(bytes32,address)":"d547741f","schedule(address,uint256,bytes,bytes32,bytes32,uint256)":"01d5062a","scheduleBatch(address[],uint256[],bytes[],bytes32,bytes32,uint256)":"8f2a0bb0","supportsInterface(bytes4)":"01ffc9a7","updateDelay(uint256)":"64d62353"},"id":80}