{"abi":[{"type":"constructor","inputs":[{"name":"_asset","type":"address","internalType":"address"},{"name":"_rewardToken","type":"address","internalType":"address"}],"stateMutability":"nonpayable"},{"type":"function","name":"accruedYield","inputs":[],"outputs":[{"name":"","type":"uint256","internalType":"uint256"}],"stateMutability":"view"},{"type":"function","name":"asset","inputs":[],"outputs":[{"name":"","type":"address","internalType":"contract IERC20"}],"stateMutability":"view"},{"type":"function","name":"baseAPY","inputs":[],"outputs":[{"name":"","type":"uint256","internalType":"uint256"}],"stateMutability":"view"},{"type":"function","name":"estimatedTotalAssets","inputs":[],"outputs":[{"name":"","type":"uint256","internalType":"uint256"}],"stateMutability":"view"},{"type":"function","name":"getCurrentAPY","inputs":[],"outputs":[{"name":"","type":"uint256","internalType":"uint256"}],"stateMutability":"view"},{"type":"function","name":"harvest","inputs":[],"outputs":[{"name":"","type":"uint256","internalType":"uint256"}],"stateMutability":"nonpayable"},{"type":"function","name":"invest","inputs":[{"name":"amount","type":"uint256","internalType":"uint256"}],"outputs":[],"stateMutability":"nonpayable"},{"type":"function","name":"lastUpdateTime","inputs":[],"outputs":[{"name":"","type":"uint256","internalType":"uint256"}],"stateMutability":"view"},{"type":"function","name":"rewardAPY","inputs":[],"outputs":[{"name":"","type":"uint256","internalType":"uint256"}],"stateMutability":"view"},{"type":"function","name":"rewardToken","inputs":[],"outputs":[{"name":"","type":"address","internalType":"contract IERC20"}],"stateMutability":"view"},{"type":"function","name":"setAPY","inputs":[{"name":"_baseAPY","type":"uint256","internalType":"uint256"},{"name":"_rewardAPY","type":"uint256","internalType":"uint256"}],"outputs":[],"stateMutability":"nonpayable"},{"type":"function","name":"totalDeposited","inputs":[],"outputs":[{"name":"","type":"uint256","internalType":"uint256"}],"stateMutability":"view"},{"type":"function","name":"userDeposits","inputs":[{"name":"","type":"address","internalType":"address"}],"outputs":[{"name":"","type":"uint256","internalType":"uint256"}],"stateMutability":"view"},{"type":"function","name":"userLastUpdate","inputs":[{"name":"","type":"address","internalType":"address"}],"outputs":[{"name":"","type":"uint256","internalType":"uint256"}],"stateMutability":"view"},{"type":"function","name":"withdraw","inputs":[{"name":"amount","type":"uint256","internalType":"uint256"}],"outputs":[],"stateMutability":"nonpayable"},{"type":"event","name":"RewardsHarvested","inputs":[{"name":"amount","type":"uint256","indexed":false,"internalType":"uint256"}],"anonymous":false},{"type":"event","name":"YieldAccrued","inputs":[{"name":"amount","type":"uint256","indexed":false,"internalType":"uint256"}],"anonymous":false}],"bytecode":{"object":"0x60803461009b57601f61078638819003918201601f19168301916001600160401b0383118484101761009f57808492604094855283398101031261009b57610052602061004b836100b3565b92016100b3565b6101f460025560c86003555f80546001600160a01b039384166001600160a01b03199182161790915560018054929093169116179055426005556040516106be90816100c88239f35b5f80fd5b634e487b7160e01b5f52604160045260245ffd5b51906001600160a01b038216820361009b5756fe6080604081815260049182361015610015575f80fd5b5f3560e01c9081630ba36dcd1461045c57508063214405a91461043e5780632afcf4801461037f5780632e1a7d4d1461027957806338d52e0f146102535780633cfb3f73146102195780634019fb33146101fb5780634641257d146101df5780635acd2e4c146101c3578063962ca496146101a0578063b7fd178414610182578063c8f33c9114610164578063efbb5cb01461010a578063f7c618c1146100e35763ff50abdc146100c4575f80fd5b346100df575f3660031901126100df57602091549051908152f35b5f80fd5b50346100df575f3660031901126100df576020906001600160a01b03600154169051908152f35b50346100df575f3660031901126100df5761015d60209261015864496cebb80061014d610139600554426104b4565b935493610148600254866104c1565b6104c1565b049160065490610493565b610493565b9051908152f35b50346100df575f3660031901126100df576020906005549051908152f35b50346100df575f3660031901126100df576020906003549051908152f35b50346100df575f3660031901126100df5760209061015d60025460035490610493565b50346100df573660031901126100df5735600255602435600355005b50346100df575f3660031901126100df5760209061015d6104d4565b50346100df575f3660031901126100df576020906006549051908152f35b5090346100df5760203660031901126100df5735906001600160a01b0382168092036100df576020915f5260088252805f20549051908152f35b50346100df575f3660031901126100df576020906001600160a01b035f54169051908152f35b50346100df5760203660031901126100df57813590610296610608565b335f52600760205281815f20541061032357335f5260076020525f206102bd8282546104b4565b90556102ca8183546104b4565b82556001600160a01b035f541690336014526034526fa9059cbb0000000000000000000000005f5260205f6044601082855af1908160015f5114161561030c57005b3b153d17101561031857005b6390b8ec185f52601cfd5b517f08c379a0000000000000000000000000000000000000000000000000000000008152602081840152601460248201527f496e73756666696369656e742062616c616e63650000000000000000000000006044820152606490fd5b50346100df5760203660031901126100df57813561039b610608565b6001600160a01b035f541691805192826060523082523360601b602c526f23b872dd000000000000000000000000600c5260205f6064601c82855af1908160015f51141615610421575b505061041d925f6060528152335f526007602052805f20610407838254610493565b9055335f52600860205242905f20558254610493565b9055005b3b153d171015610432575f806103e5565b83637939f4245f52601cfd5b50346100df575f3660031901126100df576020906002549051908152f35b905082346100df5760203660031901126100df5735916001600160a01b0383168093036100df576020925f52600783525f20548152f35b919082018092116104a057565b634e487b7160e01b5f52601160045260245ffd5b919082039182116104a057565b818102929181159184041417156104a057565b6104dc610608565b64496cebb8006105066104f4600454600354906104c1565b610500600554426104b4565b906104c1565b0480610512575b505f90565b6001600160a01b03600154166040519060208201917f40c10f1900000000000000000000000000000000000000000000000000000000835230602482015283604482015260448152608081019167ffffffffffffffff93828410858511176105ee575f809493819460405251925af1903d15610602573d8181116105ee5760405191601f8201601f19908116603f01168301908111838210176105ee5760405281525f60203d92013e5b1561050d577f302ece888b23f17e9addd0ad302c9b0d6619a5c38b718deb019638e29355c0fb6020604051838152a190565b634e487b7160e01b5f52604160045260245ffd5b506105bc565b610614600554426104b4565b8015158061067d575b6106245750565b602064496cebb8006106607f3b6bc0ba304eaa17cdca1b053baac859e721c7a775cddefc825f6286641311fc93610148600454600254906104c1565b0461066d81600654610493565b60065542600555604051908152a1565b50600454151561061d56fea26469706673582212208da8c9fdd158ac15bda943e745b55110c50e9337a5431cd841600cbe6ac748b164736f6c63430008180033","linkReferences":{}},"methodIdentifiers":{"accruedYield()":"4019fb33","asset()":"38d52e0f","baseAPY()":"214405a9","estimatedTotalAssets()":"efbb5cb0","getCurrentAPY()":"962ca496","harvest()":"4641257d","invest(uint256)":"2afcf480","lastUpdateTime()":"c8f33c91","rewardAPY()":"b7fd1784","rewardToken()":"f7c618c1","setAPY(uint256,uint256)":"5acd2e4c","totalDeposited()":"ff50abdc","userDeposits(address)":"0ba36dcd","userLastUpdate(address)":"3cfb3f73","withdraw(uint256)":"2e1a7d4d"},"id":84}