{"abi":[{"type":"constructor","inputs":[{"name":"_asset","type":"address","internalType":"contract ERC20"},{"name":"_treasury","type":"address","internalType":"address"},{"name":"_staking","type":"address","internalType":"address"},{"name":"_keeperRewards","type":"address","internalType":"address"}],"stateMutability":"nonpayable"},{"type":"function","name":"DOMAIN_SEPARATOR","inputs":[],"outputs":[{"name":"","type":"bytes32","internalType":"bytes32"}],"stateMutability":"view"},{"type":"function","name":"MANAGEMENT_FEE_BPS","inputs":[],"outputs":[{"name":"","type":"uint256","internalType":"uint256"}],"stateMutability":"view"},{"type":"function","name":"allowance","inputs":[{"name":"","type":"address","internalType":"address"},{"name":"","type":"address","internalType":"address"}],"outputs":[{"name":"","type":"uint256","internalType":"uint256"}],"stateMutability":"view"},{"type":"function","name":"approve","inputs":[{"name":"spender","type":"address","internalType":"address"},{"name":"amount","type":"uint256","internalType":"uint256"}],"outputs":[{"name":"","type":"bool","internalType":"bool"}],"stateMutability":"nonpayable"},{"type":"function","name":"asset","inputs":[],"outputs":[{"name":"","type":"address","internalType":"contract ERC20"}],"stateMutability":"view"},{"type":"function","name":"balanceOf","inputs":[{"name":"","type":"address","internalType":"address"}],"outputs":[{"name":"","type":"uint256","internalType":"uint256"}],"stateMutability":"view"},{"type":"function","name":"convertToAssets","inputs":[{"name":"shares","type":"uint256","internalType":"uint256"}],"outputs":[{"name":"","type":"uint256","internalType":"uint256"}],"stateMutability":"view"},{"type":"function","name":"convertToShares","inputs":[{"name":"assets","type":"uint256","internalType":"uint256"}],"outputs":[{"name":"","type":"uint256","internalType":"uint256"}],"stateMutability":"view"},{"type":"function","name":"decimals","inputs":[],"outputs":[{"name":"","type":"uint8","internalType":"uint8"}],"stateMutability":"view"},{"type":"function","name":"deposit","inputs":[{"name":"assets","type":"uint256","internalType":"uint256"},{"name":"receiver","type":"address","internalType":"address"}],"outputs":[{"name":"shares","type":"uint256","internalType":"uint256"}],"stateMutability":"nonpayable"},{"type":"function","name":"keeperRewards","inputs":[],"outputs":[{"name":"","type":"address","internalType":"address"}],"stateMutability":"view"},{"type":"function","name":"maxDeposit","inputs":[{"name":"","type":"address","internalType":"address"}],"outputs":[{"name":"","type":"uint256","internalType":"uint256"}],"stateMutability":"view"},{"type":"function","name":"maxMint","inputs":[{"name":"","type":"address","internalType":"address"}],"outputs":[{"name":"","type":"uint256","internalType":"uint256"}],"stateMutability":"view"},{"type":"function","name":"maxRedeem","inputs":[{"name":"owner","type":"address","internalType":"address"}],"outputs":[{"name":"","type":"uint256","internalType":"uint256"}],"stateMutability":"view"},{"type":"function","name":"maxWithdraw","inputs":[{"name":"owner","type":"address","internalType":"address"}],"outputs":[{"name":"","type":"uint256","internalType":"uint256"}],"stateMutability":"view"},{"type":"function","name":"mint","inputs":[{"name":"shares","type":"uint256","internalType":"uint256"},{"name":"receiver","type":"address","internalType":"address"}],"outputs":[{"name":"assets","type":"uint256","internalType":"uint256"}],"stateMutability":"nonpayable"},{"type":"function","name":"name","inputs":[],"outputs":[{"name":"","type":"string","internalType":"string"}],"stateMutability":"view"},{"type":"function","name":"nonces","inputs":[{"name":"","type":"address","internalType":"address"}],"outputs":[{"name":"","type":"uint256","internalType":"uint256"}],"stateMutability":"view"},{"type":"function","name":"permit","inputs":[{"name":"owner","type":"address","internalType":"address"},{"name":"spender","type":"address","internalType":"address"},{"name":"value","type":"uint256","internalType":"uint256"},{"name":"deadline","type":"uint256","internalType":"uint256"},{"name":"v","type":"uint8","internalType":"uint8"},{"name":"r","type":"bytes32","internalType":"bytes32"},{"name":"s","type":"bytes32","internalType":"bytes32"}],"outputs":[],"stateMutability":"nonpayable"},{"type":"function","name":"previewDeposit","inputs":[{"name":"assets","type":"uint256","internalType":"uint256"}],"outputs":[{"name":"","type":"uint256","internalType":"uint256"}],"stateMutability":"view"},{"type":"function","name":"previewMint","inputs":[{"name":"shares","type":"uint256","internalType":"uint256"}],"outputs":[{"name":"","type":"uint256","internalType":"uint256"}],"stateMutability":"view"},{"type":"function","name":"previewRedeem","inputs":[{"name":"shares","type":"uint256","internalType":"uint256"}],"outputs":[{"name":"","type":"uint256","internalType":"uint256"}],"stateMutability":"view"},{"type":"function","name":"previewWithdraw","inputs":[{"name":"assets","type":"uint256","internalType":"uint256"}],"outputs":[{"name":"","type":"uint256","internalType":"uint256"}],"stateMutability":"view"},{"type":"function","name":"redeem","inputs":[{"name":"shares","type":"uint256","internalType":"uint256"},{"name":"receiver","type":"address","internalType":"address"},{"name":"owner","type":"address","internalType":"address"}],"outputs":[{"name":"assets","type":"uint256","internalType":"uint256"}],"stateMutability":"nonpayable"},{"type":"function","name":"staking","inputs":[],"outputs":[{"name":"","type":"address","internalType":"address"}],"stateMutability":"view"},{"type":"function","name":"symbol","inputs":[],"outputs":[{"name":"","type":"string","internalType":"string"}],"stateMutability":"view"},{"type":"function","name":"totalAssets","inputs":[],"outputs":[{"name":"","type":"uint256","internalType":"uint256"}],"stateMutability":"view"},{"type":"function","name":"totalSupply","inputs":[],"outputs":[{"name":"","type":"uint256","internalType":"uint256"}],"stateMutability":"view"},{"type":"function","name":"transfer","inputs":[{"name":"to","type":"address","internalType":"address"},{"name":"amount","type":"uint256","internalType":"uint256"}],"outputs":[{"name":"","type":"bool","internalType":"bool"}],"stateMutability":"nonpayable"},{"type":"function","name":"transferFrom","inputs":[{"name":"from","type":"address","internalType":"address"},{"name":"to","type":"address","internalType":"address"},{"name":"amount","type":"uint256","internalType":"uint256"}],"outputs":[{"name":"","type":"bool","internalType":"bool"}],"stateMutability":"nonpayable"},{"type":"function","name":"treasury","inputs":[],"outputs":[{"name":"","type":"address","internalType":"address"}],"stateMutability":"view"},{"type":"function","name":"withdraw","inputs":[{"name":"assets","type":"uint256","internalType":"uint256"},{"name":"receiver","type":"address","internalType":"address"},{"name":"owner","type":"address","internalType":"address"}],"outputs":[{"name":"shares","type":"uint256","internalType":"uint256"}],"stateMutability":"nonpayable"},{"type":"event","name":"Approval","inputs":[{"name":"owner","type":"address","indexed":true,"internalType":"address"},{"name":"spender","type":"address","indexed":true,"internalType":"address"},{"name":"amount","type":"uint256","indexed":false,"internalType":"uint256"}],"anonymous":false},{"type":"event","name":"Deposit","inputs":[{"name":"caller","type":"address","indexed":true,"internalType":"address"},{"name":"owner","type":"address","indexed":true,"internalType":"address"},{"name":"assets","type":"uint256","indexed":false,"internalType":"uint256"},{"name":"shares","type":"uint256","indexed":false,"internalType":"uint256"}],"anonymous":false},{"type":"event","name":"FeeDistributed","inputs":[{"name":"totalFee","type":"uint256","indexed":false,"internalType":"uint256"},{"name":"toStakers","type":"uint256","indexed":false,"internalType":"uint256"},{"name":"toTreasury","type":"uint256","indexed":false,"internalType":"uint256"},{"name":"toKeepers","type":"uint256","indexed":false,"internalType":"uint256"}],"anonymous":false},{"type":"event","name":"Transfer","inputs":[{"name":"from","type":"address","indexed":true,"internalType":"address"},{"name":"to","type":"address","indexed":true,"internalType":"address"},{"name":"amount","type":"uint256","indexed":false,"internalType":"uint256"}],"anonymous":false},{"type":"event","name":"Withdraw","inputs":[{"name":"caller","type":"address","indexed":true,"internalType":"address"},{"name":"receiver","type":"address","indexed":true,"internalType":"address"},{"name":"owner","type":"address","indexed":true,"internalType":"address"},{"name":"assets","type":"uint256","indexed":false,"internalType":"uint256"},{"name":"shares","type":"uint256","indexed":false,"internalType":"uint256"}],"anonymous":false}],"bytecode":{"object":"0x610100604090808252346200059e5760808162001c85803803809162000026828562000607565b8339810103126200059e5780516001600160a01b03808216929091908382036200059e576020916200005a8383016200063f565b946200007660606200006e8986016200063f565b94016200063f565b938751976306fdde0360e01b89526004925f8a8581845afa998a15620005fd575f9a620005dd575b50620000de60288351809c670283932bd37b83a160c51b87830152620000cd8151809289868601910162000654565b810103600881018d52018b62000607565b81516395d89b4160e01b8152905f828681845afa918215620005aa57859185915f94620005b4575b506200014060228651809661707960f01b868301526200012f8151809288868601910162000654565b810103600281018752018562000607565b845163313ce56760e01b815292839182905afa908115620005aa575f9162000568575b508a516001600160401b039b908c8111620004905780620001855f54620006eb565b92601f9384811162000517575b508790848311600114620004af575f92620004a3575b50508160011b915f199060031b1c1916175f555b8251908c821162000490578190600194620001d88654620006eb565b8281116200043b575b5087918311600114620003d7575f92620003cb575b50505f19600383901b1c191690831b1782555b6080524660a05281515f91815f54936200022385620006eb565b92838352878301958882821691825f14620003ab5750506001146200036b575b50620002529250038262000607565b519020928151928301937f8b73c3c69bb8fe3d512ecc4cf759cc79239f7b179b0ffacaa9a75d522b39400f8552828401527fc89efdaa54c0f20c7adf612882df0950f5a951637e0307cdcb4c672f298b8bc660608401524660808401523060a084015260a0835260c0830199838b10908b1117620003585750908887959493925251902060c05260e0528160018060a01b03199516856006541617600655168360075416176007551690600854161760085561155e908162000727823960805181610c6a015260a05181611112015260c05181611138015260e05181818161057a015281816106a5015281816108c6015281816109b801528181610c1101526110410152f35b604190634e487b7160e01b5f525260245ffd5b8791505f8052815f20905f915b858310620003925750506200025293508201015f62000243565b8054838801850152869450899390920191810162000378565b60ff191688526200025295151560051b85010192505f9150620002439050565b015190505f80620001f6565b90859350601f19831691845f52885f20925f5b8a8282106200042457505084116200040b575b505050811b01825562000209565b01515f1960f88460031b161c191690555f8080620003fd565b8385015186558997909501949384019301620003ea565b90919250855f52875f208380860160051c8201928a871062000486575b91869589929594930160051c01915b82811062000477575050620001e1565b5f815586955088910162000467565b9250819262000458565b604187634e487b7160e01b5f525260245ffd5b015190505f80620001a8565b5f8080528981209350601f198516905b8a82821062000500575050908460019594939210620004e7575b505050811b015f55620001bc565b01515f1960f88460031b161c191690555f8080620004d9565b6001859682939686015181550195019301620004bf565b9091505f8052875f208480850160051c8201928a86106200055e575b9085949392910160051c01905b8181106200054f575062000192565b5f815584935060010162000540565b9250819262000533565b90508381813d8311620005a2575b62000582818362000607565b810103126200059e575160ff811681036200059e575f62000163565b5f80fd5b503d62000576565b83513d5f823e3d90fd5b620005d59194503d805f833e620005cc818362000607565b81019062000677565b925f62000106565b620005f5919a503d805f833e620005cc818362000607565b985f6200009e565b82513d5f823e3d90fd5b601f909101601f19168101906001600160401b038211908210176200062b57604052565b634e487b7160e01b5f52604160045260245ffd5b51906001600160a01b03821682036200059e57565b5f5b838110620006665750505f910152565b818101518382015260200162000656565b6020818303126200059e5780516001600160401b03918282116200059e57019082601f830112156200059e5781519081116200062b5760405192620006c7601f8301601f19166020018562000607565b818452602082840101116200059e57620006e8916020808501910162000654565b90565b90600182811c921680156200071b575b60208310146200070757565b634e487b7160e01b5f52602260045260245ffd5b91607f1691620006fb56fe60406080815260049081361015610014575f80fd5b5f3560e01c806301e1d11414610eae57806306fdde0314610e0b57806307a2d13a14610bd4578063095ea7b314610d9c5780630a28a47714610d7e57806318160ddd14610d6057806323b872dd14610c8e578063313ce56714610c515780633644e51514610c3557806338d52e0f14610bf2578063402d267d146104da5780634cdad50614610bd45780634cf088d914610bad57806361d027b314610b865780636e553f651461098957806370a08231146101ec5780637ecebe0014610952578063857ad3121461092b57806394bf804d1461088d57806395d89b41146107af578063a9059cbb1461072d578063b3d7f6b91461070f578063b460af9414610630578063ba087652146104fa578063bcf90d2b146104df578063c63d75b6146104da578063c6e6f592146104bc578063ce96cb7714610484578063d505accf14610223578063d905777e146101ec578063dd62ed3e146101a45763ef8b30f71461017c575f80fd5b346101a05760203660031901126101a057610199602092356112bb565b9051908152f35b5f80fd5b50346101a057806003193601126101a0576020916101c0610f7f565b6101c8610f95565b916001600160a01b038092165f528452825f2091165f528252805f20549051908152f35b50346101a05760203660031901126101a0576020906001600160a01b03610211610f7f565b165f5260038252805f20549051908152f35b50346101a05760e03660031901126101a05761023d610f7f565b90610246610f95565b91604435606435926084359260ff84168094036101a0574285106104415761026c61110f565b956001600160a01b0380921695865f5260209560058752845f209889549960018b01905585519285898501957f6e71edae12b1b97f4d1f60370fef10105fa2faae0126114a169c64845d6126c987528b89870152169a8b606086015288608086015260a085015260c084015260c0835260e0830167ffffffffffffffff948482108683111761042e57818852845190206101008501927f19010000000000000000000000000000000000000000000000000000000000008452610102860152610122850152604281526101608401948186109086111761041b57848752519020835261018082015260a4356101a082015260c4356101c0909101525f808052859160809060015afa15610411575f51169586151580610408575b156103c7577f8c5be1e5ebec7d5bd14f71427d1e84f3dd0314c0f7b2291e5b200ac8c7c3b9259495965f528352805f20865f52835281815f205551908152a3005b83606492519162461bcd60e51b8352820152600e60248201527f494e56414c49445f5349474e45520000000000000000000000000000000000006044820152fd5b50848714610386565b50513d5f823e3d90fd5b60418c634e487b7160e01b5f525260245ffd5b60418d634e487b7160e01b5f525260245ffd5b606487602084519162461bcd60e51b8352820152601760248201527f5045524d49545f444541444c494e455f455850495245440000000000000000006044820152fd5b50346101a05760203660031901126101a0576020906001600160a01b036104a9610f7f565b165f5260038252610199815f20546110ae565b50346101a05760203660031901126101a057610199602092356112bb565b610fab565b50346101a0575f3660031901126101a0576020905160058152f35b5090346101a05761050a36610fd0565b90916001600160a01b03808316928333036105e7575b610529836110ae565b9586156105a4575092826020979592610546889561059e9761141d565b865191858352898301528316907ffbde797d201c681b91056529119e0b02407c7bb96a4a2c75c01fc9667232c8db873392a47f0000000000000000000000000000000000000000000000000000000000000000611476565b51908152f35b606490602089519162461bcd60e51b8352820152600b60248201527f5a45524f5f4153534554530000000000000000000000000000000000000000006044820152fd5b835f5285602052865f20335f52602052865f2054835f19820361060c575b5050610520565b610615916110ee565b845f5286602052875f20335f52602052875f20555f83610605565b5090346101a05760209161059e61064636610fd0565b94610650836110cf565b95610670876001600160a01b0392838116948533036106c9575b5061141d565b85519084825287898301528316907ffbde797d201c681b91056529119e0b02407c7bb96a4a2c75c01fc9667232c8db873392a47f0000000000000000000000000000000000000000000000000000000000000000611476565b855f52808c52895f20335f528c52895f2054835f1982036106ec575b505061066a565b6106f5916110ee565b90865f528c52895f20335f528c52895f20555f80836106e5565b50346101a05760203660031901126101a0576101996020923561129d565b50346101a057806003193601126101a057602090610749610f7f565b6001600160a01b0360243591335f5260038552835f2061076a8482546110ee565b90551690815f5260038452825f2081815401905582519081527fddf252ad1be2c89b69c2b068fc378daa952ba7f163c4a11628f55a4df523b3ef843392a35160018152f35b50346101a0575f3660031901126101a05780515f600180546107d081610eca565b8085529160209160018116908115610863575060011461080a575b61080685876107fc82880383610f02565b5191829182610f38565b0390f35b60015f90815293507fb10e2d527612073b26eecdfd717e6a320cf44b4afac2b0732d9fcbe2b7fa0cf65b838510610850575050505081016020016107fc826108066107eb565b8054868601840152938201938101610834565b610806979550869350602092506107fc94915060ff191682840152151560051b82010192946107eb565b50346101a057806003193601126101a05760209135906108ab610f95565b916001600160a01b036108bd8261129d565b936108ea8530337f0000000000000000000000000000000000000000000000000000000000000000611308565b6108f483826113c3565b8351928584528684015216907fdcbc1c05240f31ff3ad067ef1ee35ce4997762752e3a095284754544f4c709d7833392a351908152f35b50346101a0575f3660031901126101a0576020906001600160a01b03600854169051908152f35b50346101a05760203660031901126101a0576020906001600160a01b03610977610f7f565b165f5260058252805f20549051908152f35b50346101a057806003193601126101a0578135906109a5610f95565b916109af816112bb565b928315610b43577f0000000000000000000000000000000000000000000000000000000000000000916109e481303386611308565b6109ee85836113c3565b6001600160a01b03918285519183835287602084015216907fdcbc1c05240f31ff3ad067ef1ee35ce4997762752e3a095284754544f4c709d7863392a3600581029080820460051490151715610b305761271090049485158015610a57575b6020868651908152f35b603c8702878104603c14821715610b1d576064900491601e880291888304601e141715610b0a57509260809260209792610aee60647f5b3735d487e9342fbcf11df79c2146f60ffabadb4d2e31ced107fe4346cd21ef970492610ac384610abe85896110ee565b6110ee565b9481610ad58588946007541684611476565b610ae486826006541684611476565b6008541690611476565b865193845288840152858301526060820152a15f808080610a4d565b601190634e487b7160e01b5f525260245ffd5b601183634e487b7160e01b5f525260245ffd5b601186634e487b7160e01b5f525260245ffd5b606485602085519162461bcd60e51b8352820152600b60248201527f5a45524f5f5348415245530000000000000000000000000000000000000000006044820152fd5b50346101a0575f3660031901126101a0576020906001600160a01b03600654169051908152f35b50346101a0575f3660031901126101a0576020906001600160a01b03600754169051908152f35b50346101a05760203660031901126101a057610199602092356110ae565b50346101a0575f3660031901126101a057602090516001600160a01b037f0000000000000000000000000000000000000000000000000000000000000000168152f35b50346101a0575f3660031901126101a05760209061019961110f565b50346101a0575f3660031901126101a0576020905160ff7f0000000000000000000000000000000000000000000000000000000000000000168152f35b50346101a05760603660031901126101a057610ca8610f7f565b91610cb1610f95565b927fddf252ad1be2c89b69c2b068fc378daa952ba7f163c4a11628f55a4df523b3ef604435926001600160a01b0380931692835f526020968288938452875f20335f528452875f2054875f198203610d3d575b505050845f5260038352865f20610d1c8782546110ee565b90551693845f5260038252855f208181540190558551908152a35160018152f35b610d46916110ee565b90865f528452875f20335f528452875f20555f8087610d04565b50346101a0575f3660031901126101a0576020906002549051908152f35b50346101a05760203660031901126101a057610199602092356110cf565b50346101a057806003193601126101a057602091610db8610f7f565b9060243590335f5284526001600160a01b03835f20921691825f52845280835f205582519081527f8c5be1e5ebec7d5bd14f71427d1e84f3dd0314c0f7b2291e5b200ac8c7c3b925843392a35160018152f35b50346101a0575f3660031901126101a05780515f8054610e2a81610eca565b808452906020906001908181169081156108635750600114610e575761080685876107fc82880383610f02565b5f80805293507f290decd9548b62a8d60345a988386fc84ba6bc95484008f6362f93160ef3e5635b838510610e9b575050505081016020016107fc826108066107eb565b8054868601840152938201938101610e7f565b50346101a0575f3660031901126101a057602090610199611005565b90600182811c92168015610ef8575b6020831014610ee457565b634e487b7160e01b5f52602260045260245ffd5b91607f1691610ed9565b90601f8019910116810190811067ffffffffffffffff821117610f2457604052565b634e487b7160e01b5f52604160045260245ffd5b602080825282518183018190529093925f5b828110610f6b57505060409293505f838284010152601f8019910116010190565b818101860151848201604001528501610f4a565b600435906001600160a01b03821682036101a057565b602435906001600160a01b03821682036101a057565b346101a05760203660031901126101a057610fc4610f7f565b5060206040515f198152f35b60609060031901126101a057600435906001600160a01b039060243582811681036101a0579160443590811681036101a05790565b6040517f70a082310000000000000000000000000000000000000000000000000000000081523060048201526020816024816001600160a01b037f0000000000000000000000000000000000000000000000000000000000000000165afa9081156110a3575f91611074575090565b90506020813d60201161109b575b8161108f60209383610f02565b810103126101a0575190565b3d9150611082565b6040513d5f823e3d90fd5b600254806110ba575090565b6110cc916110c6611005565b906112d6565b90565b600254806110db575090565b906110cc916110e8611005565b916112eb565b919082039182116110fb57565b634e487b7160e01b5f52601160045260245ffd5b467f00000000000000000000000000000000000000000000000000000000000000000361115a577f000000000000000000000000000000000000000000000000000000000000000090565b6040515f905f549061116b82610eca565b8082528160209485820194600190876001821691825f1461127f575050600114611226575b5061119d92500382610f02565b51902090604051908101917f8b73c3c69bb8fe3d512ecc4cf759cc79239f7b179b0ffacaa9a75d522b39400f835260408201527fc89efdaa54c0f20c7adf612882df0950f5a951637e0307cdcb4c672f298b8bc660608201524660808201523060a082015260a0815260c0810181811067ffffffffffffffff821117610f245760405251902090565b5f808052879250907f290decd9548b62a8d60345a988386fc84ba6bc95484008f6362f93160ef3e5635b85831061126757505061119d93508201015f611190565b80548388018501528694508893909201918101611250565b60ff1916885261119d95151560051b85010192505f91506111909050565b600254806112a9575090565b6110cc916112b5611005565b906112eb565b600254806112c7575090565b906110cc916112d4611005565b915b815f190481118202158302156101a057020490565b815f190481118202158302156101a0570290808204910615150190565b926020926064915f93604051927f23b872dd0000000000000000000000000000000000000000000000000000000084526001600160a01b038092166004850152166024830152604482015282855af19081601f3d1160015f51141615166113b6575b501561137257565b606460405162461bcd60e51b815260206004820152601460248201527f5452414e534645525f46524f4d5f4641494c45440000000000000000000000006044820152fd5b3b153d171590505f61136a565b6002548281018091116110fb5760206001600160a01b035f937fddf252ad1be2c89b69c2b068fc378daa952ba7f163c4a11628f55a4df523b3ef9360025516938484526003825260408420818154019055604051908152a3565b907fddf252ad1be2c89b69c2b068fc378daa952ba7f163c4a11628f55a4df523b3ef60206001600160a01b035f94169283855260038252604085206114638282546110ee565b90558060025403600255604051908152a3565b9160446020925f926001600160a01b03604051927fa9059cbb000000000000000000000000000000000000000000000000000000008452166004830152602482015282855af19081601f3d1160015f511416151661151b575b50156114d757565b606460405162461bcd60e51b815260206004820152600f60248201527f5452414e534645525f4641494c454400000000000000000000000000000000006044820152fd5b3b153d171590505f6114cf56fea264697066735822122060c7acc2b5bd4a65c7a2a12c310a6dcc1dc583978c23e98902694eb52a95439464736f6c63430008180033","linkReferences":{}},"methodIdentifiers":{"DOMAIN_SEPARATOR()":"3644e515","MANAGEMENT_FEE_BPS()":"bcf90d2b","allowance(address,address)":"dd62ed3e","approve(address,uint256)":"095ea7b3","asset()":"38d52e0f","balanceOf(address)":"70a08231","convertToAssets(uint256)":"07a2d13a","convertToShares(uint256)":"c6e6f592","decimals()":"313ce567","deposit(uint256,address)":"6e553f65","keeperRewards()":"857ad312","maxDeposit(address)":"402d267d","maxMint(address)":"c63d75b6","maxRedeem(address)":"d905777e","maxWithdraw(address)":"ce96cb77","mint(uint256,address)":"94bf804d","name()":"06fdde03","nonces(address)":"7ecebe00","permit(address,address,uint256,uint256,uint8,bytes32,bytes32)":"d505accf","previewDeposit(uint256)":"ef8b30f7","previewMint(uint256)":"b3d7f6b9","previewRedeem(uint256)":"4cdad506","previewWithdraw(uint256)":"0a28a477","redeem(uint256,address,address)":"ba087652","staking()":"4cf088d9","symbol()":"95d89b41","totalAssets()":"01e1d114","totalSupply()":"18160ddd","transfer(address,uint256)":"a9059cbb","transferFrom(address,address,uint256)":"23b872dd","treasury()":"61d027b3","withdraw(uint256,address,address)":"b460af94"},"id":96}