{"abi":[{"type":"constructor","inputs":[{"name":"_asset","type":"address","internalType":"address"},{"name":"_rewardToken","type":"address","internalType":"address"}],"stateMutability":"nonpayable"},{"type":"function","name":"accruedYield","inputs":[],"outputs":[{"name":"","type":"uint256","internalType":"uint256"}],"stateMutability":"view"},{"type":"function","name":"asset","inputs":[],"outputs":[{"name":"","type":"address","internalType":"contract IERC20"}],"stateMutability":"view"},{"type":"function","name":"baseAPY","inputs":[],"outputs":[{"name":"","type":"uint256","internalType":"uint256"}],"stateMutability":"view"},{"type":"function","name":"estimatedTotalAssets","inputs":[],"outputs":[{"name":"","type":"uint256","internalType":"uint256"}],"stateMutability":"view"},{"type":"function","name":"getCurrentAPY","inputs":[],"outputs":[{"name":"","type":"uint256","internalType":"uint256"}],"stateMutability":"view"},{"type":"function","name":"harvest","inputs":[],"outputs":[{"name":"","type":"uint256","internalType":"uint256"}],"stateMutability":"nonpayable"},{"type":"function","name":"invest","inputs":[{"name":"amount","type":"uint256","internalType":"uint256"}],"outputs":[],"stateMutability":"nonpayable"},{"type":"function","name":"lastUpdateTime","inputs":[],"outputs":[{"name":"","type":"uint256","internalType":"uint256"}],"stateMutability":"view"},{"type":"function","name":"rewardAPY","inputs":[],"outputs":[{"name":"","type":"uint256","internalType":"uint256"}],"stateMutability":"view"},{"type":"function","name":"rewardToken","inputs":[],"outputs":[{"name":"","type":"address","internalType":"contract IERC20"}],"stateMutability":"view"},{"type":"function","name":"setAPY","inputs":[{"name":"_baseAPY","type":"uint256","internalType":"uint256"},{"name":"_rewardAPY","type":"uint256","internalType":"uint256"}],"outputs":[],"stateMutability":"nonpayable"},{"type":"function","name":"totalDeposited","inputs":[],"outputs":[{"name":"","type":"uint256","internalType":"uint256"}],"stateMutability":"view"},{"type":"function","name":"withdraw","inputs":[{"name":"amount","type":"uint256","internalType":"uint256"}],"outputs":[],"stateMutability":"nonpayable"},{"type":"event","name":"RewardsHarvested","inputs":[{"name":"amount","type":"uint256","indexed":false,"internalType":"uint256"}],"anonymous":false},{"type":"event","name":"YieldAccrued","inputs":[{"name":"amount","type":"uint256","indexed":false,"internalType":"uint256"}],"anonymous":false}],"bytecode":{"object":"0x60803461009c57601f6106b638819003918201601f19168301916001600160401b038311848410176100a057808492604094855283398101031261009c57610052602061004b836100b4565b92016100b4565b61019060025561012c6003555f80546001600160a01b039384166001600160a01b03199182161790915560018054929093169116179055426005556040516105ed90816100c98239f35b5f80fd5b634e487b7160e01b5f52604160045260245ffd5b51906001600160a01b038216820361009c5756fe6080604081815260049182361015610015575f80fd5b5f3560e01c908163214405a9146103a8575080632afcf480146103105780632e1a7d4d1461022957806338d52e0f146102035780634019fb33146101e55780634641257d146101c95780635acd2e4c146101ad578063962ca4961461018a578063b7fd17841461016c578063c8f33c911461014e578063efbb5cb0146100f4578063f7c618c1146100cd5763ff50abdc146100ae575f80fd5b346100c9575f3660031901126100c957602091549051908152f35b5f80fd5b50346100c9575f3660031901126100c9576020906001600160a01b03600154169051908152f35b50346100c9575f3660031901126100c95761014760209261014264496cebb800610137610123600554426103e3565b935493610132600254866103f0565b6103f0565b0491600654906103c2565b6103c2565b9051908152f35b50346100c9575f3660031901126100c9576020906005549051908152f35b50346100c9575f3660031901126100c9576020906003549051908152f35b50346100c9575f3660031901126100c957602090610147600254600354906103c2565b50346100c9573660031901126100c95735600255602435600355005b50346100c9575f3660031901126100c957602090610147610403565b50346100c9575f3660031901126100c9576020906006549051908152f35b50346100c9575f3660031901126100c9576020906001600160a01b035f54169051908152f35b50346100c95760203660031901126100c957813590610246610537565b8254908282106102b457508161025b916103e3565b82556001600160a01b035f541690336014526034526fa9059cbb0000000000000000000000005f5260205f6044601082855af1908160015f5114161561029d57005b3b153d1710156102a957005b6390b8ec185f52601cfd5b517f08c379a0000000000000000000000000000000000000000000000000000000008152602081850152601460248201527f496e73756666696369656e742062616c616e63650000000000000000000000006044820152606490fd5b50346100c95760203660031901126100c957813561032c610537565b6001600160a01b035f5416825190826060523084523360601b602c526f23b872dd000000000000000000000000600c5260205f6064601c82855af1908160015f5114161561038b575b5050610387925f6060525282546103c2565b9055005b3b153d17101561039c575f80610375565b83637939f4245f52601cfd5b346100c9575f3660031901126100c9576020906002548152f35b919082018092116103cf57565b634e487b7160e01b5f52601160045260245ffd5b919082039182116103cf57565b818102929181159184041417156103cf57565b61040b610537565b64496cebb800610435610423600454600354906103f0565b61042f600554426103e3565b906103f0565b0480610441575b505f90565b6001600160a01b03600154166040519060208201917f40c10f1900000000000000000000000000000000000000000000000000000000835230602482015283604482015260448152608081019167ffffffffffffffff938284108585111761051d575f809493819460405251925af1903d15610531573d81811161051d5760405191601f8201601f19908116603f011683019081118382101761051d5760405281525f60203d92013e5b1561043c577f302ece888b23f17e9addd0ad302c9b0d6619a5c38b718deb019638e29355c0fb6020604051838152a190565b634e487b7160e01b5f52604160045260245ffd5b506104eb565b610543600554426103e3565b801515806105ac575b6105535750565b602064496cebb80061058f7f3b6bc0ba304eaa17cdca1b053baac859e721c7a775cddefc825f6286641311fc93610132600454600254906103f0565b0461059c816006546103c2565b60065542600555604051908152a1565b50600454151561054c56fea2646970667358221220fa214ce83fdd46648e59a75c378417d921e9205e0aa1fdf7075cf90f75f45f5564736f6c63430008180033","linkReferences":{}},"methodIdentifiers":{"accruedYield()":"4019fb33","asset()":"38d52e0f","baseAPY()":"214405a9","estimatedTotalAssets()":"efbb5cb0","getCurrentAPY()":"962ca496","harvest()":"4641257d","invest(uint256)":"2afcf480","lastUpdateTime()":"c8f33c91","rewardAPY()":"b7fd1784","rewardToken()":"f7c618c1","setAPY(uint256,uint256)":"5acd2e4c","totalDeposited()":"ff50abdc","withdraw(uint256)":"2e1a7d4d"},"id":85}