{"abi":[{"type":"constructor","inputs":[{"name":"_pzt","type":"address","internalType":"contract PZTToken"}],"stateMutability":"nonpayable"},{"type":"function","name":"claim","inputs":[{"name":"keeper","type":"address","internalType":"address"},{"name":"txHash","type":"bytes32","internalType":"bytes32"}],"outputs":[],"stateMutability":"nonpayable"},{"type":"function","name":"claimed","inputs":[{"name":"","type":"bytes32","internalType":"bytes32"}],"outputs":[{"name":"","type":"bool","internalType":"bool"}],"stateMutability":"view"},{"type":"function","name":"pzt","inputs":[],"outputs":[{"name":"","type":"address","internalType":"contract PZTToken"}],"stateMutability":"view"},{"type":"event","name":"RewardPaid","inputs":[{"name":"keeper","type":"address","indexed":true,"internalType":"address"},{"name":"amount","type":"uint256","indexed":false,"internalType":"uint256"},{"name":"txHash","type":"bytes32","indexed":false,"internalType":"bytes32"}],"anonymous":false}],"bytecode":{"object":"0x60803461007357601f61030438819003918201601f19168301916001600160401b038311848410176100775780849260209460405283398101031261007357516001600160a01b03811690819003610073575f80546001600160a01b031916919091179055604051610278908161008c8239f35b5f80fd5b634e487b7160e01b5f52604160045260245ffdfe60806040818152600480361015610014575f80fd5b5f925f3560e01c908163aae0329f1461021357508063c8622c24146100705763cc3c0f0614610041575f80fd5b3461006c57602036600319011261006c578160209360ff923581526001855220541690519015158152f35b8280fd5b509190346101b257806003193601126101b25782359073ffffffffffffffffffffffffffffffffffffffff8083168093036101b25760243590815f52600160205260ff835f2054166101b657815f526001602052825f20600160ff198254161790555f541690813b156101b25782517f40c10f1900000000000000000000000000000000000000000000000000000000815284878201525f8160448183670de0b6b3a7640000978860248401525af180156101a85761015c575b50825191825260208201527f25d820333c9a561247c10864c5a61ff35d1b52a4d260cd78ffd379c9921a41879190a280f35b90945067ffffffffffffffff811161017c5782529293505f92848461012a565b6041867f4e487b71000000000000000000000000000000000000000000000000000000005f525260245ffd5b84513d5f823e3d90fd5b5f80fd5b60648660208551917f08c379a0000000000000000000000000000000000000000000000000000000008352820152600f60248201527f416c726561647920636c61696d656400000000000000000000000000000000006044820152fd5b346101b2575f3660031901126101b25760209073ffffffffffffffffffffffffffffffffffffffff5f54168152f3fea26469706673582212201e64f0aab53a2dc867ec7eb69f4d31c1e6381d1951079b1d4c97a1d6fa87f1f764736f6c63430008180033","linkReferences":{}},"methodIdentifiers":{"claim(address,bytes32)":"c8622c24","claimed(bytes32)":"cc3c0f06","pzt()":"aae0329f"},"id":83}