{"abi":[{"type":"constructor","inputs":[],"stateMutability":"nonpayable"},{"type":"receive","stateMutability":"payable"},{"type":"function","name":"BALLOT_TYPEHASH","inputs":[],"outputs":[{"name":"","type":"bytes32","internalType":"bytes32"}],"stateMutability":"view"},{"type":"function","name":"CLOCK_MODE","inputs":[],"outputs":[{"name":"","type":"string","internalType":"string"}],"stateMutability":"view"},{"type":"function","name":"COUNTING_MODE","inputs":[],"outputs":[{"name":"","type":"string","internalType":"string"}],"stateMutability":"pure"},{"type":"function","name":"EXTENDED_BALLOT_TYPEHASH","inputs":[],"outputs":[{"name":"","type":"bytes32","internalType":"bytes32"}],"stateMutability":"view"},{"type":"function","name":"cancel","inputs":[{"name":"targets","type":"address[]","internalType":"address[]"},{"name":"values","type":"uint256[]","internalType":"uint256[]"},{"name":"calldatas","type":"bytes[]","internalType":"bytes[]"},{"name":"descriptionHash","type":"bytes32","internalType":"bytes32"}],"outputs":[{"name":"","type":"uint256","internalType":"uint256"}],"stateMutability":"nonpayable"},{"type":"function","name":"castVote","inputs":[{"name":"proposalId","type":"uint256","internalType":"uint256"},{"name":"support","type":"uint8","internalType":"uint8"}],"outputs":[{"name":"","type":"uint256","internalType":"uint256"}],"stateMutability":"nonpayable"},{"type":"function","name":"castVoteBySig","inputs":[{"name":"proposalId","type":"uint256","internalType":"uint256"},{"name":"support","type":"uint8","internalType":"uint8"},{"name":"voter","type":"address","internalType":"address"},{"name":"signature","type":"bytes","internalType":"bytes"}],"outputs":[{"name":"","type":"uint256","internalType":"uint256"}],"stateMutability":"nonpayable"},{"type":"function","name":"castVoteWithReason","inputs":[{"name":"proposalId","type":"uint256","internalType":"uint256"},{"name":"support","type":"uint8","internalType":"uint8"},{"name":"reason","type":"string","internalType":"string"}],"outputs":[{"name":"","type":"uint256","internalType":"uint256"}],"stateMutability":"nonpayable"},{"type":"function","name":"castVoteWithReasonAndParams","inputs":[{"name":"proposalId","type":"uint256","internalType":"uint256"},{"name":"support","type":"uint8","internalType":"uint8"},{"name":"reason","type":"string","internalType":"string"},{"name":"params","type":"bytes","internalType":"bytes"}],"outputs":[{"name":"","type":"uint256","internalType":"uint256"}],"stateMutability":"nonpayable"},{"type":"function","name":"castVoteWithReasonAndParamsBySig","inputs":[{"name":"proposalId","type":"uint256","internalType":"uint256"},{"name":"support","type":"uint8","internalType":"uint8"},{"name":"voter","type":"address","internalType":"address"},{"name":"reason","type":"string","internalType":"string"},{"name":"params","type":"bytes","internalType":"bytes"},{"name":"signature","type":"bytes","internalType":"bytes"}],"outputs":[{"name":"","type":"uint256","internalType":"uint256"}],"stateMutability":"nonpayable"},{"type":"function","name":"clock","inputs":[],"outputs":[{"name":"","type":"uint48","internalType":"uint48"}],"stateMutability":"view"},{"type":"function","name":"eip712Domain","inputs":[],"outputs":[{"name":"fields","type":"bytes1","internalType":"bytes1"},{"name":"name","type":"string","internalType":"string"},{"name":"version","type":"string","internalType":"string"},{"name":"chainId","type":"uint256","internalType":"uint256"},{"name":"verifyingContract","type":"address","internalType":"address"},{"name":"salt","type":"bytes32","internalType":"bytes32"},{"name":"extensions","type":"uint256[]","internalType":"uint256[]"}],"stateMutability":"view"},{"type":"function","name":"execute","inputs":[{"name":"targets","type":"address[]","internalType":"address[]"},{"name":"values","type":"uint256[]","internalType":"uint256[]"},{"name":"calldatas","type":"bytes[]","internalType":"bytes[]"},{"name":"descriptionHash","type":"bytes32","internalType":"bytes32"}],"outputs":[{"name":"","type":"uint256","internalType":"uint256"}],"stateMutability":"payable"},{"type":"function","name":"getProposalId","inputs":[{"name":"targets","type":"address[]","internalType":"address[]"},{"name":"values","type":"uint256[]","internalType":"uint256[]"},{"name":"calldatas","type":"bytes[]","internalType":"bytes[]"},{"name":"descriptionHash","type":"bytes32","internalType":"bytes32"}],"outputs":[{"name":"","type":"uint256","internalType":"uint256"}],"stateMutability":"view"},{"type":"function","name":"getVotes","inputs":[{"name":"account","type":"address","internalType":"address"},{"name":"blockNumber","type":"uint256","internalType":"uint256"}],"outputs":[{"name":"","type":"uint256","internalType":"uint256"}],"stateMutability":"view"},{"type":"function","name":"getVotesWithParams","inputs":[{"name":"account","type":"address","internalType":"address"},{"name":"timepoint","type":"uint256","internalType":"uint256"},{"name":"params","type":"bytes","internalType":"bytes"}],"outputs":[{"name":"","type":"uint256","internalType":"uint256"}],"stateMutability":"view"},{"type":"function","name":"hasVoted","inputs":[{"name":"proposalId","type":"uint256","internalType":"uint256"},{"name":"account","type":"address","internalType":"address"}],"outputs":[{"name":"","type":"bool","internalType":"bool"}],"stateMutability":"view"},{"type":"function","name":"hashProposal","inputs":[{"name":"targets","type":"address[]","internalType":"address[]"},{"name":"values","type":"uint256[]","internalType":"uint256[]"},{"name":"calldatas","type":"bytes[]","internalType":"bytes[]"},{"name":"descriptionHash","type":"bytes32","internalType":"bytes32"}],"outputs":[{"name":"","type":"uint256","internalType":"uint256"}],"stateMutability":"pure"},{"type":"function","name":"initialize","inputs":[{"name":"_token","type":"address","internalType":"contract ERC20Votes"},{"name":"_timelock","type":"address","internalType":"contract TimelockControllerUpgradeable"},{"name":"_quorumFraction","type":"uint256","internalType":"uint256"}],"outputs":[],"stateMutability":"nonpayable"},{"type":"function","name":"name","inputs":[],"outputs":[{"name":"","type":"string","internalType":"string"}],"stateMutability":"view"},{"type":"function","name":"nonces","inputs":[{"name":"owner","type":"address","internalType":"address"}],"outputs":[{"name":"","type":"uint256","internalType":"uint256"}],"stateMutability":"view"},{"type":"function","name":"onERC1155BatchReceived","inputs":[{"name":"","type":"address","internalType":"address"},{"name":"","type":"address","internalType":"address"},{"name":"","type":"uint256[]","internalType":"uint256[]"},{"name":"","type":"uint256[]","internalType":"uint256[]"},{"name":"","type":"bytes","internalType":"bytes"}],"outputs":[{"name":"","type":"bytes4","internalType":"bytes4"}],"stateMutability":"nonpayable"},{"type":"function","name":"onERC1155Received","inputs":[{"name":"","type":"address","internalType":"address"},{"name":"","type":"address","internalType":"address"},{"name":"","type":"uint256","internalType":"uint256"},{"name":"","type":"uint256","internalType":"uint256"},{"name":"","type":"bytes","internalType":"bytes"}],"outputs":[{"name":"","type":"bytes4","internalType":"bytes4"}],"stateMutability":"nonpayable"},{"type":"function","name":"onERC721Received","inputs":[{"name":"","type":"address","internalType":"address"},{"name":"","type":"address","internalType":"address"},{"name":"","type":"uint256","internalType":"uint256"},{"name":"","type":"bytes","internalType":"bytes"}],"outputs":[{"name":"","type":"bytes4","internalType":"bytes4"}],"stateMutability":"nonpayable"},{"type":"function","name":"proposalDeadline","inputs":[{"name":"proposalId","type":"uint256","internalType":"uint256"}],"outputs":[{"name":"","type":"uint256","internalType":"uint256"}],"stateMutability":"view"},{"type":"function","name":"proposalEta","inputs":[{"name":"proposalId","type":"uint256","internalType":"uint256"}],"outputs":[{"name":"","type":"uint256","internalType":"uint256"}],"stateMutability":"view"},{"type":"function","name":"proposalNeedsQueuing","inputs":[{"name":"proposalId","type":"uint256","internalType":"uint256"}],"outputs":[{"name":"","type":"bool","internalType":"bool"}],"stateMutability":"view"},{"type":"function","name":"proposalProposer","inputs":[{"name":"proposalId","type":"uint256","internalType":"uint256"}],"outputs":[{"name":"","type":"address","internalType":"address"}],"stateMutability":"view"},{"type":"function","name":"proposalSnapshot","inputs":[{"name":"proposalId","type":"uint256","internalType":"uint256"}],"outputs":[{"name":"","type":"uint256","internalType":"uint256"}],"stateMutability":"view"},{"type":"function","name":"proposalThreshold","inputs":[],"outputs":[{"name":"","type":"uint256","internalType":"uint256"}],"stateMutability":"pure"},{"type":"function","name":"proposalVotes","inputs":[{"name":"proposalId","type":"uint256","internalType":"uint256"}],"outputs":[{"name":"againstVotes","type":"uint256","internalType":"uint256"},{"name":"forVotes","type":"uint256","internalType":"uint256"},{"name":"abstainVotes","type":"uint256","internalType":"uint256"}],"stateMutability":"view"},{"type":"function","name":"propose","inputs":[{"name":"targets","type":"address[]","internalType":"address[]"},{"name":"values","type":"uint256[]","internalType":"uint256[]"},{"name":"calldatas","type":"bytes[]","internalType":"bytes[]"},{"name":"description","type":"string","internalType":"string"}],"outputs":[{"name":"","type":"uint256","internalType":"uint256"}],"stateMutability":"nonpayable"},{"type":"function","name":"queue","inputs":[{"name":"targets","type":"address[]","internalType":"address[]"},{"name":"values","type":"uint256[]","internalType":"uint256[]"},{"name":"calldatas","type":"bytes[]","internalType":"bytes[]"},{"name":"descriptionHash","type":"bytes32","internalType":"bytes32"}],"outputs":[{"name":"","type":"uint256","internalType":"uint256"}],"stateMutability":"nonpayable"},{"type":"function","name":"quorum","inputs":[{"name":"blockNumber","type":"uint256","internalType":"uint256"}],"outputs":[{"name":"","type":"uint256","internalType":"uint256"}],"stateMutability":"view"},{"type":"function","name":"quorumDenominator","inputs":[],"outputs":[{"name":"","type":"uint256","internalType":"uint256"}],"stateMutability":"view"},{"type":"function","name":"quorumNumerator","inputs":[{"name":"timepoint","type":"uint256","internalType":"uint256"}],"outputs":[{"name":"","type":"uint256","internalType":"uint256"}],"stateMutability":"view"},{"type":"function","name":"quorumNumerator","inputs":[],"outputs":[{"name":"","type":"uint256","internalType":"uint256"}],"stateMutability":"view"},{"type":"function","name":"relay","inputs":[{"name":"target","type":"address","internalType":"address"},{"name":"value","type":"uint256","internalType":"uint256"},{"name":"data","type":"bytes","internalType":"bytes"}],"outputs":[],"stateMutability":"payable"},{"type":"function","name":"state","inputs":[{"name":"proposalId","type":"uint256","internalType":"uint256"}],"outputs":[{"name":"","type":"uint8","internalType":"enum IGovernor.ProposalState"}],"stateMutability":"view"},{"type":"function","name":"supportsInterface","inputs":[{"name":"interfaceId","type":"bytes4","internalType":"bytes4"}],"outputs":[{"name":"","type":"bool","internalType":"bool"}],"stateMutability":"view"},{"type":"function","name":"timelock","inputs":[],"outputs":[{"name":"","type":"address","internalType":"address"}],"stateMutability":"view"},{"type":"function","name":"token","inputs":[],"outputs":[{"name":"","type":"address","internalType":"contract IERC5805"}],"stateMutability":"view"},{"type":"function","name":"updateQuorumNumerator","inputs":[{"name":"newQuorumNumerator","type":"uint256","internalType":"uint256"}],"outputs":[],"stateMutability":"nonpayable"},{"type":"function","name":"updateTimelock","inputs":[{"name":"newTimelock","type":"address","internalType":"contract TimelockControllerUpgradeable"}],"outputs":[],"stateMutability":"nonpayable"},{"type":"function","name":"version","inputs":[],"outputs":[{"name":"","type":"string","internalType":"string"}],"stateMutability":"view"},{"type":"function","name":"votingDelay","inputs":[],"outputs":[{"name":"","type":"uint256","internalType":"uint256"}],"stateMutability":"pure"},{"type":"function","name":"votingPeriod","inputs":[],"outputs":[{"name":"","type":"uint256","internalType":"uint256"}],"stateMutability":"pure"},{"type":"event","name":"EIP712DomainChanged","inputs":[],"anonymous":false},{"type":"event","name":"Initialized","inputs":[{"name":"version","type":"uint64","indexed":false,"internalType":"uint64"}],"anonymous":false},{"type":"event","name":"ProposalCanceled","inputs":[{"name":"proposalId","type":"uint256","indexed":false,"internalType":"uint256"}],"anonymous":false},{"type":"event","name":"ProposalCreated","inputs":[{"name":"proposalId","type":"uint256","indexed":false,"internalType":"uint256"},{"name":"proposer","type":"address","indexed":false,"internalType":"address"},{"name":"targets","type":"address[]","indexed":false,"internalType":"address[]"},{"name":"values","type":"uint256[]","indexed":false,"internalType":"uint256[]"},{"name":"signatures","type":"string[]","indexed":false,"internalType":"string[]"},{"name":"calldatas","type":"bytes[]","indexed":false,"internalType":"bytes[]"},{"name":"voteStart","type":"uint256","indexed":false,"internalType":"uint256"},{"name":"voteEnd","type":"uint256","indexed":false,"internalType":"uint256"},{"name":"description","type":"string","indexed":false,"internalType":"string"}],"anonymous":false},{"type":"event","name":"ProposalExecuted","inputs":[{"name":"proposalId","type":"uint256","indexed":false,"internalType":"uint256"}],"anonymous":false},{"type":"event","name":"ProposalQueued","inputs":[{"name":"proposalId","type":"uint256","indexed":false,"internalType":"uint256"},{"name":"etaSeconds","type":"uint256","indexed":false,"internalType":"uint256"}],"anonymous":false},{"type":"event","name":"QuorumNumeratorUpdated","inputs":[{"name":"oldQuorumNumerator","type":"uint256","indexed":false,"internalType":"uint256"},{"name":"newQuorumNumerator","type":"uint256","indexed":false,"internalType":"uint256"}],"anonymous":false},{"type":"event","name":"TimelockChange","inputs":[{"name":"oldTimelock","type":"address","indexed":false,"internalType":"address"},{"name":"newTimelock","type":"address","indexed":false,"internalType":"address"}],"anonymous":false},{"type":"event","name":"VoteCast","inputs":[{"name":"voter","type":"address","indexed":true,"internalType":"address"},{"name":"proposalId","type":"uint256","indexed":false,"internalType":"uint256"},{"name":"support","type":"uint8","indexed":false,"internalType":"uint8"},{"name":"weight","type":"uint256","indexed":false,"internalType":"uint256"},{"name":"reason","type":"string","indexed":false,"internalType":"string"}],"anonymous":false},{"type":"event","name":"VoteCastWithParams","inputs":[{"name":"voter","type":"address","indexed":true,"internalType":"address"},{"name":"proposalId","type":"uint256","indexed":false,"internalType":"uint256"},{"name":"support","type":"uint8","indexed":false,"internalType":"uint8"},{"name":"weight","type":"uint256","indexed":false,"internalType":"uint256"},{"name":"reason","type":"string","indexed":false,"internalType":"string"},{"name":"params","type":"bytes","indexed":false,"internalType":"bytes"}],"anonymous":false},{"type":"error","name":"CheckpointUnorderedInsertion","inputs":[]},{"type":"error","name":"FailedCall","inputs":[]},{"type":"error","name":"GovernorAlreadyCastVote","inputs":[{"name":"voter","type":"address","internalType":"address"}]},{"type":"error","name":"GovernorAlreadyQueuedProposal","inputs":[{"name":"proposalId","type":"uint256","internalType":"uint256"}]},{"type":"error","name":"GovernorDisabledDeposit","inputs":[]},{"type":"error","name":"GovernorInsufficientProposerVotes","inputs":[{"name":"proposer","type":"address","internalType":"address"},{"name":"votes","type":"uint256","internalType":"uint256"},{"name":"threshold","type":"uint256","internalType":"uint256"}]},{"type":"error","name":"GovernorInvalidProposalLength","inputs":[{"name":"targets","type":"uint256","internalType":"uint256"},{"name":"calldatas","type":"uint256","internalType":"uint256"},{"name":"values","type":"uint256","internalType":"uint256"}]},{"type":"error","name":"GovernorInvalidQuorumFraction","inputs":[{"name":"quorumNumerator","type":"uint256","internalType":"uint256"},{"name":"quorumDenominator","type":"uint256","internalType":"uint256"}]},{"type":"error","name":"GovernorInvalidSignature","inputs":[{"name":"voter","type":"address","internalType":"address"}]},{"type":"error","name":"GovernorInvalidVoteParams","inputs":[]},{"type":"error","name":"GovernorInvalidVoteType","inputs":[]},{"type":"error","name":"GovernorInvalidVotingPeriod","inputs":[{"name":"votingPeriod","type":"uint256","internalType":"uint256"}]},{"type":"error","name":"GovernorNonexistentProposal","inputs":[{"name":"proposalId","type":"uint256","internalType":"uint256"}]},{"type":"error","name":"GovernorNotQueuedProposal","inputs":[{"name":"proposalId","type":"uint256","internalType":"uint256"}]},{"type":"error","name":"GovernorOnlyExecutor","inputs":[{"name":"account","type":"address","internalType":"address"}]},{"type":"error","name":"GovernorQueueNotImplemented","inputs":[]},{"type":"error","name":"GovernorRestrictedProposer","inputs":[{"name":"proposer","type":"address","internalType":"address"}]},{"type":"error","name":"GovernorUnableToCancel","inputs":[{"name":"proposalId","type":"uint256","internalType":"uint256"},{"name":"account","type":"address","internalType":"address"}]},{"type":"error","name":"GovernorUnexpectedProposalState","inputs":[{"name":"proposalId","type":"uint256","internalType":"uint256"},{"name":"current","type":"uint8","internalType":"enum IGovernor.ProposalState"},{"name":"expectedStates","type":"bytes32","internalType":"bytes32"}]},{"type":"error","name":"InvalidAccountNonce","inputs":[{"name":"account","type":"address","internalType":"address"},{"name":"currentNonce","type":"uint256","internalType":"uint256"}]},{"type":"error","name":"InvalidInitialization","inputs":[]},{"type":"error","name":"NotInitializing","inputs":[]},{"type":"error","name":"SafeCastOverflowedUintDowncast","inputs":[{"name":"bits","type":"uint8","internalType":"uint8"},{"name":"value","type":"uint256","internalType":"uint256"}]}],"bytecode":{"object":"0x60808060405234620000bd577ff0c57e16840df040f15088dc2f81fe391c3923bec73e23a9662efc9c229c6a009081549060ff8260401c16620000ae57506001600160401b036002600160401b03198282160162000068575b604051614f289081620000c28239f35b6001600160401b031990911681179091556040519081527fc7f505b2f371ae2175ee4913f4499e1f2633a7b5936321eed1cdaeb6115181d290602090a15f808062000058565b63f92ee8a960e01b8152600490fd5b5f80fdfe60806040526004361015610022575b3615610018575f80fd5b610020612cd3565b005b5f3560e01c806301ffc9a71461030c57806302a251a31461030757806306f3f9e61461030257806306fdde03146102fd578063143489d0146102f8578063150b7a02146102f3578063160cbed7146102ee5780631794bb3c146102e95780632656227d146102e45780632d63f693146102df5780632fe3e261146102da5780633932abb1146102d55780633e4f49e6146102d057806343859632146102cb578063452115d6146102c65780634bf5d7e9146102c1578063544ffc9c146102bc57806354fd4d50146102b757806356781388146102b25780635b8d0e0d146102ad5780635f398a14146102a857806360c4247f146102a35780637b3c71d31461029e5780637d5e81e2146102995780637ecebe001461029457806384b0196e1461028f5780638ff262e31461028a57806391ddadf41461028557806397c3d334146102805780639a802a6d1461027b578063a7713a7014610276578063a890c91014610271578063a8f8a6681461024e578063a9a952941461026c578063ab58fb8e14610267578063b58131b014610262578063bc197c811461025d578063c01f9e3714610258578063c28bc2fa14610253578063c59057e41461024e578063d33219b414610249578063dd4e2ba514610244578063deaaa7cc1461023f578063eb9019d41461023a578063f23a6e6114610235578063f8ce560a146102305763fc0c546a0361000e57611fde565b611f38565b611ea7565b611e7c565b611e42565b611de5565b611db3565b611bac565b611d20565b611d02565b611c49565b611c25565b611be4565b611bc8565b611b1d565b611af2565b611a20565b611a05565b6119db565b6118a0565b6117af565b6116a9565b61160f565b6115b9565b61159b565b61152b565b6114a2565b611426565b6113fb565b611391565b611362565b6112a0565b61122b565b6111fe565b6111b3565b611179565b611138565b610f34565b610d7f565b610a8a565b61080a565b61067e565b61057b565b610439565b61041d565b3461040f57602036600319011261040f576004357fffffffff00000000000000000000000000000000000000000000000000000000811680910361040f57807fcdbdfcee00000000000000000000000000000000000000000000000000000000602092149081156103e5575b81156103bb575b8115610391575b506040519015158152f35b7f01ffc9a7000000000000000000000000000000000000000000000000000000009150145f610386565b7f4e2312e0000000000000000000000000000000000000000000000000000000008114915061037f565b7f65455a860000000000000000000000000000000000000000000000000000000081149150610378565b5f80fd5b5f91031261040f57565b3461040f575f36600319011261040f576020604051614ec08152f35b3461040f57602036600319011261040f57600435610455612cf3565b606481116104e9576001600160d01b03908161046f613743565b166104786129e3565b928083116104ca577f0553476bf02ef2726e8ce5ced78d63e26e602e4a2257b1f559418e24b4633997936104ae91841690614660565b505060408051918252602082019290925290819081015b0390a1005b604483604051906306dfcc6560e41b825260d060048301526024820152fd5b604490604051907f243e5445000000000000000000000000000000000000000000000000000000008252600482015260646024820152fd5b5f5b8381106105325750505f910152565b8181015183820152602001610523565b9060209161055b81518092818552858086019101610521565b601f01601f1916010190565b906020610578928181520190610542565b90565b3461040f575f36600319011261040f576040515f7f7c712897014dbe49c045ef1299aa2d5f9e67e48eea4403efa21f1e0f3ac0cb008054906105bc82612023565b8085529160209160019182811690811561065157506001146105f9575b6105f5866105e98188038261076c565b60405191829182610567565b0390f35b5f90815293507fda13dda7583a39a3cd73e8830529c760837228fa4683752c823b17e10548aad55b83851061063e575050505081016020016105e9826105f55f6105d9565b8054868601840152938201938101610621565b90508695506105f5969350602092506105e994915060ff191682840152151560051b82010192935f6105d9565b3461040f57602036600319011261040f576004355f525f80516020614eb383398151915260205260206001600160a01b0360405f205416604051908152f35b6001600160a01b0381160361040f57565b634e487b7160e01b5f52604160045260245ffd5b67ffffffffffffffff81116106f657604052565b6106ce565b6040810190811067ffffffffffffffff8211176106f657604052565b6020810190811067ffffffffffffffff8211176106f657604052565b60c0810190811067ffffffffffffffff8211176106f657604052565b610100810190811067ffffffffffffffff8211176106f657604052565b90601f8019910116810190811067ffffffffffffffff8211176106f657604052565b6040519061079b826106fb565b565b67ffffffffffffffff81116106f657601f01601f191660200190565b9291926107c58261079d565b916107d3604051938461076c565b82948184528183011161040f578281602093845f960137010152565b9080601f8301121561040f57816020610578933591016107b9565b3461040f57608036600319011261040f576108266004356106bd565b6108316024356106bd565b60643567ffffffffffffffff811161040f576108519036906004016107ef565b506001600160a01b035f80516020614ed38339815191525416300361089b576040517f150b7a02000000000000000000000000000000000000000000000000000000008152602090f35b60046040517fe90a651e000000000000000000000000000000000000000000000000000000008152fd5b67ffffffffffffffff81116106f65760051b60200190565b9080601f8301121561040f5760209082356108f7816108c5565b93610905604051958661076c565b81855260208086019260051b82010192831161040f57602001905b82821061092e575050505090565b838091833561093c816106bd565b815201910190610920565b9080601f8301121561040f576020908235610961816108c5565b9361096f604051958661076c565b81855260208086019260051b82010192831161040f57602001905b828210610998575050505090565b8135815290830190830161098a565b81601f8201121561040f578035916020916109c1846108c5565b936109cf604051958661076c565b808552838086019160051b8301019280841161040f57848301915b8483106109fa5750505050505090565b823567ffffffffffffffff811161040f578691610a1c848480948901016107ef565b8152019201916109ea565b608060031982011261040f5767ffffffffffffffff9160043583811161040f5782610a54916004016108dd565b9260243581811161040f5783610a6c91600401610947565b9260443591821161040f57610a83916004016109a7565b9060643590565b3461040f57610a9836610a27565b909291610aa782858386612bae565b92610ab184612da8565b505f80516020614ed383398151915294610ae1610ad587546001600160a01b031690565b6001600160a01b031690565b926040968751907ff27a0c9200000000000000000000000000000000000000000000000000000000825260209081836004818a5afa968715610d2457610b7c988b945f99610d56575b5093517fb1c5f4270000000000000000000000000000000000000000000000000000000081523060601b6bffffffffffffffffffffffff19169094189883918591829081908d8b8b8e6004860161388c565b03915afa8015610d2457610bd693610ad5935f92610d29575b5050610bc88a5f527f0d5829787b8befdbc6044ef7457d8a95c2a04bc99235349f1a212c063e59d40160205260405f2090565b55546001600160a01b031690565b90813b1561040f575f8094610c1a878b51998a97889687957f8f2a0bb0000000000000000000000000000000000000000000000000000000008752600487016138d1565b03925af1908115610d2457610c3e92610c3992610d0b575b5042613586565b614435565b65ffffffffffff811615610ce257917f9a2e42fd6722813d69113e7d0079d3d940171428df7373df9c7f7617cfda2892610cd184610cb36105f5966001610c99885f525f80516020614eb383398151915260205260405f2090565b019065ffffffffffff1665ffffffffffff19825416179055565b835185815265ffffffffffff90911660208201529081906040820190565b0390a1519081529081906020820190565b600483517f90884a46000000000000000000000000000000000000000000000000000000008152fd5b80610d18610d1e926106e2565b80610413565b5f610c32565b612459565b610d489250803d10610d4f575b610d40818361076c565b8101906136ab565b5f80610b95565b503d610d36565b87919950918689610d748795863d8811610d4f57610d40818361076c565b9b9350505091610b2a565b3461040f57606036600319011261040f57600435610d9c816106bd565b602435610da8816106bd565b7ff0c57e16840df040f15088dc2f81fe391c3923bec73e23a9662efc9c229c6a00549167ffffffffffffffff60ff8460401c1615931680159081610f2c575b6001149081610f22575b159081610f19575b50610eef577ff0c57e16840df040f15088dc2f81fe391c3923bec73e23a9662efc9c229c6a00805467ffffffffffffffff19166001179055610e449183610eae575b60443591612212565b610e4a57005b7ff0c57e16840df040f15088dc2f81fe391c3923bec73e23a9662efc9c229c6a00805468ff000000000000000019169055604051600181527fc7f505b2f371ae2175ee4913f4499e1f2633a7b5936321eed1cdaeb6115181d29080602081016104c5565b7ff0c57e16840df040f15088dc2f81fe391c3923bec73e23a9662efc9c229c6a00805468ff0000000000000000191668010000000000000000179055610e3b565b60046040517ff92ee8a9000000000000000000000000000000000000000000000000000000008152fd5b9050155f610df9565b303b159150610df1565b849150610de7565b610f3d36610a27565b610f4c81838587959697612bae565b92610f5684612dfa565b50610fc1610f78855f525f80516020614eb383398151915260205260405f2090565b7e010000000000000000000000000000000000000000000000000000000000007fff00ffffffffffffffffffffffffffffffffffffffffffffffffffffffffffff825416179055565b6001600160a01b03945f80516020614ed3833981519152938685541630036110cb575b926105f59692610ff8926110089588613d52565b309254166001600160a01b031690565b14158061107e575b611051575b6040518181527f712ae1383f79ac853f8d882153778e0260ef8f03b504e2866e0593e04d2b291f90602090a16040519081529081906020820190565b6110795f7f7c712897014dbe49c045ef1299aa2d5f9e67e48eea4403efa21f1e0f3ac0cb0255565b611015565b506110c66110c27f7c712897014dbe49c045ef1299aa2d5f9e67e48eea4403efa21f1e0f3ac0cb02546fffffffffffffffffffffffffffffffff81169060801c1490565b1590565b611010565b9391959094925f5b855181101561112857600190306110fd610ad56110f0848b612440565b516001600160a01b031690565b14611109575b016110d3565b611123611116828b612440565b5160208151910120612fbd565b611103565b5090959294919390929190610fe4565b3461040f57602036600319011261040f576004355f525f80516020614eb3833981519152602052602065ffffffffffff60405f205460a01c16604051908152f35b3461040f575f36600319011261040f5760206040517f3e83946653575f9a39005e1545185629e92736b7528ab20ca3816f315424a8118152f35b3461040f575f36600319011261040f57602060405160018152f35b634e487b7160e01b5f52602160045260245ffd5b600811156111ec57565b6111ce565b9060088210156111ec5752565b3461040f57602036600319011261040f57602061121c60043561307c565b61122960405180926111f1565bf35b3461040f57604036600319011261040f57602060ff61129460243561124f816106bd565b6004355f527fa1cefa0f43667ef127a258e673c94202a79b656e62899531c4376d87a7f398008452600360405f2001906001600160a01b03165f5260205260405f2090565b54166040519015158152f35b3461040f576112ae36610a27565b926112be84838584969596612bae565b6112c78161307c565b60088110156111ec571580611338575b156112fb576105f56112eb86868686613f86565b6040519081529081906020820190565b6040517f8fe5d8a90000000000000000000000000000000000000000000000000000000081526004810191909152336024820152604490fd5b0390fd5b50805f525f80516020614eb38339815191526020526001600160a01b0360405f20541633146112d7565b3461040f575f36600319011261040f576105f561137d61249d565b604051918291602083526020830190610542565b3461040f57602036600319011261040f576004355f527fa1cefa0f43667ef127a258e673c94202a79b656e62899531c4376d87a7f3980060205260405f2080546105f560026001840154930154604051938493846040919493926060820195825260208201520152565b3461040f575f36600319011261040f576105f561137d612588565b6024359060ff8216820361040f57565b3461040f57604036600319011261040f57602061146c611444611416565b60405161145081610717565b5f81526040519161146083610717565b5f835233600435613262565b604051908152f35b9181601f8401121561040f5782359167ffffffffffffffff831161040f576020838186019501011161040f57565b3461040f5760c036600319011261040f576114bb611416565b604435906114c8826106bd565b67ffffffffffffffff9060643582811161040f576114ea903690600401611474565b60843584811161040f576115029036906004016107ef565b9160a43594851161040f576105f5956115226112eb9636906004016107ef565b946004356125c1565b3461040f57608036600319011261040f57611544611416565b67ffffffffffffffff9060443582811161040f57611566903690600401611474565b909160643593841161040f5761159161146c9361158960209636906004016107ef565b9336916107b9565b9033600435613262565b3461040f57602036600319011261040f57602061146c600435613387565b3461040f57606036600319011261040f576115d2611416565b60443567ffffffffffffffff811161040f576020916116026115fb61146c933690600401611474565b36916107b9565b6040519161146083610717565b3461040f57608036600319011261040f5767ffffffffffffffff60043581811161040f576116419036906004016108dd565b9060243581811161040f5761165a903690600401610947565b9160443582811161040f576116739036906004016109a7565b60643592831161040f573660238401121561040f576105f5936116a36112eb9436906024816004013591016107b9565b926126ed565b3461040f57602036600319011261040f576001600160a01b036004356116ce816106bd565b165f527f5ab42ced628888259c08ac98db1eb0cf702fc1501344311d8b100cd1bfe4bb00602052602060405f2054604051908152f35b9081518082526020808093019301915f5b828110611723575050505090565b835185529381019392810192600101611715565b91936117906105789694956117826001600160a01b03947f0f00000000000000000000000000000000000000000000000000000000000000875260e0602088015260e0870190610542565b908582036040870152610542565b9460608401521660808201525f60a082015260c0818403910152611704565b3461040f575f36600319011261040f577fa16a46d94261c7517cc8ff89f61c0ce93598e3c849801011dee649a6a557d100541580611877575b15611819576117f561205b565b6117fd612141565b906105f56118096129cd565b6040519384933091469186611737565b60646040517f08c379a000000000000000000000000000000000000000000000000000000000815260206004820152601560248201527f4549503731323a20556e696e697469616c697a656400000000000000000000006044820152fd5b507fa16a46d94261c7517cc8ff89f61c0ce93598e3c849801011dee649a6a557d10154156117e8565b3461040f57608036600319011261040f576004356118bc611416565b90604435916118ca836106bd565b60643567ffffffffffffffff811161040f576110c26118f061199f9236906004016107ef565b611999611936876001600160a01b03165f527f5ab42ced628888259c08ac98db1eb0cf702fc1501344311d8b100cd1bfe4bb0060205260405f2080549060018201905590565b60405160208101917ff2aad550cf55f045cb27e9c559f9889fdfb6e6cdaa032301d6ea397784ae51d7835288604083015260ff881660608301526001600160a01b038a16608083015260a082015260a0815261199181610733565b519020614164565b86614209565b6119ba57906112eb916105f5936119b4612200565b926131e7565b6040516394ab6c0760e01b81526001600160a01b0384166004820152602490fd5b3461040f575f36600319011261040f5760206119f56129e3565b65ffffffffffff60405191168152f35b3461040f575f36600319011261040f57602060405160648152f35b3461040f57606036600319011261040f57600435611a3d816106bd565b60443567ffffffffffffffff811161040f57611a5d9036906004016107ef565b5060206001600160a01b036044817f3ba4977254e415696610a40ebf2258dbfa0ec6a2ff64e84bfe715ff16977cc005416936040519485938492630748d63560e31b845216600483015260243560248301525afa8015610d24576105f5915f91611ad3575b506040519081529081906020820190565b611aec915060203d602011610d4f57610d40818361076c565b5f611ac2565b3461040f575f36600319011261040f5760206001600160d01b03611b14613743565b16604051908152f35b3461040f57602036600319011261040f57600435611b3a816106bd565b611b42612cf3565b5f80516020614ed38339815191529073ffffffffffffffffffffffffffffffffffffffff1982547f08f74ea46ef7894f65eabfb5e6e695de773a000b47c529ab559178069b22640160406001600160a01b038095169481519084168152856020820152a116179055005b3461040f57602061146c611bbf36610a27565b92919091612bae565b3461040f57602036600319011261040f57602060405160018152f35b3461040f57602036600319011261040f576004355f525f80516020614eb3833981519152602052602065ffffffffffff600160405f20015416604051908152f35b3461040f575f36600319011261040f57602060405169010f0cf064dd592000008152f35b3461040f5760a036600319011261040f57611c656004356106bd565b611c706024356106bd565b67ffffffffffffffff60443581811161040f57611c91903690600401610947565b5060643581811161040f57611caa903690600401610947565b5060843590811161040f57611cc39036906004016107ef565b506105f5611ccf612a98565b6040517fffffffff0000000000000000000000000000000000000000000000000000000090911681529081906020820190565b3461040f57602036600319011261040f57602061146c600435612ada565b606036600319011261040f57600435611d38816106bd565b6044359067ffffffffffffffff821161040f575f8091611d5f610020943690600401611474565b90611d68612cf3565b81604051928392833781018481520391602435905af13d15611dab573d90611d8f8261079d565b91611d9d604051938461076c565b82523d5f602084013e6137a7565b6060906137a7565b3461040f575f36600319011261040f5760206001600160a01b035f80516020614ed38339815191525416604051908152f35b3461040f575f36600319011261040f576105f5604051611e04816106fb565b602081527f737570706f72743d627261766f2671756f72756d3d666f722c6162737461696e6020820152604051918291602083526020830190610542565b3461040f575f36600319011261040f5760206040517ff2aad550cf55f045cb27e9c559f9889fdfb6e6cdaa032301d6ea397784ae51d78152f35b3461040f57604036600319011261040f57602061146c600435611e9e816106bd565b60243590612c3e565b3461040f5760a036600319011261040f57611ec36004356106bd565b611ece6024356106bd565b60843567ffffffffffffffff811161040f57611eee9036906004016107ef565b506001600160a01b035f80516020614ed38339815191525416300361089b576040517ff23a6e61000000000000000000000000000000000000000000000000000000008152602090f35b3461040f57602036600319011261040f57600435602460206001600160a01b037f3ba4977254e415696610a40ebf2258dbfa0ec6a2ff64e84bfe715ff16977cc00541660405192838092632394e7a360e21b82528660048301525afa8015610d24576105f5926112eb925f92611fb9575b50611fb390613387565b9061452c565b611fb3919250611fd79060203d602011610d4f57610d40818361076c565b9190611fa9565b3461040f575f36600319011261040f5760206001600160a01b037f3ba4977254e415696610a40ebf2258dbfa0ec6a2ff64e84bfe715ff16977cc005416604051908152f35b90600182811c92168015612051575b602083101461203d57565b634e487b7160e01b5f52602260045260245ffd5b91607f1691612032565b604051905f827fa16a46d94261c7517cc8ff89f61c0ce93598e3c849801011dee649a6a557d1029182549261208f84612023565b8084529360209160019182811690811561211b57506001146120bb575b50505061079b9250038361076c565b5f9081527f42ad5d3e1f2e6e70edcf6d991b8a3023d3fca8047a131592f9edb9fd9b89d57d9590935091905b828410612103575061079b9450505081016020015f80806120ac565b855488850183015294850194879450928101926120e7565b925050506020925061079b94915060ff191682840152151560051b8201015f80806120ac565b604051905f827fa16a46d94261c7517cc8ff89f61c0ce93598e3c849801011dee649a6a557d1039182549261217584612023565b8084529360209160019182811690811561211b57506001146121a05750505061079b9250038361076c565b5f9081527f5f9ce34815f8e11431c7bb75a8e6886a91478f7ffc1dbb0a98dc240fddd76b759590935091905b8284106121e8575061079b9450505081016020015f80806120ac565b855488850183015294850194879450928101926121cc565b6040519061220d82610717565b5f8252565b919091604051612221816106fb565b600f815260207f476f7665726e6f725072657a6f70740000000000000000000000000000000000602083015261225561391e565b61225d612588565b9061226661391e565b825167ffffffffffffffff81116106f6577fa16a46d94261c7517cc8ff89f61c0ce93598e3c849801011dee649a6a557d102916122ac826122a78554612023565b613977565b602090601f831160011461236f575061079b9796946122ff61235a956001600160a01b03956122f88661235f9b97612354975f91612364575b508160011b915f199060031b1c19161790565b9055613b1b565b6123275f7fa16a46d94261c7517cc8ff89f61c0ce93598e3c849801011dee649a6a557d10055565b61234f5f7fa16a46d94261c7517cc8ff89f61c0ce93598e3c849801011dee649a6a557d10155565b613c47565b16612e4c565b612ea5565b612f43565b90508601515f6122e5565b7fa16a46d94261c7517cc8ff89f61c0ce93598e3c849801011dee649a6a557d1025f5290601f1983167f42ad5d3e1f2e6e70edcf6d991b8a3023d3fca8047a131592f9edb9fd9b89d57d925f905b82821061241457505061235a956001600160a01b03956001866123549661079b9e9d9b9661235f9d996122ff97106123fc575b5050811b019055613b1b565b8701515f1960f88460031b161c191690555f806123f0565b80600185968294968c015181550195019301906123bd565b634e487b7160e01b5f52603260045260245ffd5b80518210156124545760209160051b010190565b61242c565b6040513d5f823e3d90fd5b60405190612471826106fb565b601d82527f6d6f64653d626c6f636b6e756d6265722666726f6d3d64656661756c740000006020830152565b60045f6001600160a01b037f3ba4977254e415696610a40ebf2258dbfa0ec6a2ff64e84bfe715ff16977cc005416604051928380927f4bf5d7e90000000000000000000000000000000000000000000000000000000082525afa5f918161250d575b506105785750610578612464565b9091503d805f833e61251f818361076c565b81019060208183031261040f5780519067ffffffffffffffff821161040f570181601f8201121561040f5780516125558161079d565b92612563604051948561076c565b8184526020828401011161040f576125819160208085019101610521565b905f6124ff565b60405190612595826106fb565b600182527f31000000000000000000000000000000000000000000000000000000000000006020830152565b9390929196956110c261269d9161269787878c8b6125e0368a8c6107b9565b6001600160a01b0361262b846001600160a01b03165f527f5ab42ced628888259c08ac98db1eb0cf702fc1501344311d8b100cd1bfe4bb0060205260405f2080549060018201905590565b916020815191012092602081519101209360ff6040519660208801987f3e83946653575f9a39005e1545185629e92736b7528ab20ca3816f315424a8118a52604089015216606087015216608085015260a084015260c083015260e082015260e081526119918161074f565b8a614209565b6126b8576105789596916126b29136916107b9565b92613262565b6040516394ab6c0760e01b81526001600160a01b0388166004820152602490fd5b634e487b7160e01b5f52601160045260245ffd5b9091926126fa81336134d6565b1561299d5765ffffffffffff935f19856127126129e3565b16018581116129985785612727911633612c3e565b69010f0cf064dd5920000080821061295b57505061274d82516020840120828686612bae565b948351855190818114801590612950575b8015612948575b6129065750508061279c61278d885f525f80516020614eb383398151915260205260405f2090565b5460a01c65ffffffffffff1690565b166128df57916128d9916127db7f7d84a6263ae0d98d3329bd7b46bb4e8d6f98cd35a7adb45c274c8b7fd5ebd5e09695946127d56129e3565b16613569565b6128b66127fc895f525f80516020614eb383398151915260205260405f2090565b805473ffffffffffffffffffffffffffffffffffffffff19163317815561287061282584614435565b82547fffffffffffff000000000000ffffffffffffffffffffffffffffffffffffffff1660a09190911b79ffffffffffff000000000000000000000000000000000000000016178255565b7b4ec000000000000000000000000000000000000000000000000000007fffff00000000ffffffffffffffffffffffffffffffffffffffffffffffffffff825416179055565b6128c08551613593565b916128ca82613577565b92604051978897338c8a6135dc565b0390a190565b856128e98161307c565b906113346040519283926331b75e4d60e01b845260048401612d89565b83516040517f447b05d0000000000000000000000000000000000000000000000000000000008152600481019290925260248201526044810191909152606490fd5b508015612765565b50835181141561275e565b60649250604051917fc242ee1600000000000000000000000000000000000000000000000000000000835233600484015260248301526044820152fd5b6126d9565b60246040517fd9b39557000000000000000000000000000000000000000000000000000000008152336004820152fd5b6040516129d981610717565b5f8152905f368137565b600460206001600160a01b037f3ba4977254e415696610a40ebf2258dbfa0ec6a2ff64e84bfe715ff16977cc005416604051928380927f91ddadf40000000000000000000000000000000000000000000000000000000082525afa5f9181612a55575b50610578575061057843614435565b9091506020813d602011612a90575b81612a716020938361076c565b8101031261040f575165ffffffffffff8116810361040f57905f612a46565b3d9150612a64565b6001600160a01b035f80516020614ed38339815191525416300361089b577fbc197c810000000000000000000000000000000000000000000000000000000090565b5f525f80516020614eb383398151915260205260405f205465ffffffffffff908163ffffffff8260d01c169160a01c1601818111612998571690565b9081518082526020808093019301915f5b828110612b35575050505090565b83516001600160a01b031685529381019392810192600101612b27565b90808251908181526020809101926020808460051b8301019501935f915b848310612b805750505050505090565b9091929394958480612b9e600193601f198682030187528a51610542565b9801930193019194939290612b70565b9290612bfa92612c0c92604051948592612bea612bd7602086019960808b5260a0870190612b16565b601f199687878303016040880152611704565b9085858303016060860152612b52565b9060808301520390810183528261076c565b51902090565b908160011b918083046002149015171561299857565b908160041b918083046010149015171561299857565b6020905f604051612c4e81610717565b5260446001600160a01b0391827f3ba4977254e415696610a40ebf2258dbfa0ec6a2ff64e84bfe715ff16977cc0054166040519586948593630748d63560e31b855216600484015260248301525afa8015610d2457610578915f91612cb4575b50612c12565b612ccd915060203d602011610d4f57610d40818361076c565b5f612cae565b6001600160a01b035f80516020614ed38339815191525416300361089b57565b6001600160a01b035f80516020614ed38339815191525416338103612d59573003612d1a57565b612d233661079d565b612d30604051918261076c565b3681526020810190365f83375f602036830101525190205b80612d516137e8565b03612d485750565b60246040517f47096e47000000000000000000000000000000000000000000000000000000008152336004820152fd5b604090612da45f9395946060830196835260208301906111f1565b0152565b612db18161307c565b9060088210156111ec576010600160ff84161b1615612dce575090565b612df1606492604051926331b75e4d60e01b8452600484015260248301906111f1565b60106044820152fd5b612e038161307c565b9060088210156111ec576030600160ff84161b1615612e20575090565b612e43606492604051926331b75e4d60e01b8452600484015260248301906111f1565b60306044820152fd5b612e5461391e565b612e5c61391e565b6001600160a01b037f3ba4977254e415696610a40ebf2258dbfa0ec6a2ff64e84bfe715ff16977cc00911673ffffffffffffffffffffffffffffffffffffffff19825416179055565b612ead61391e565b612eb561391e565b606481116104e9576001600160d01b0380612ece613743565b1690612ed86129e3565b90808411612f2457839291612f10917f0553476bf02ef2726e8ce5ced78d63e26e602e4a2257b1f559418e24b4633997951690614660565b5050604080519182526020820192909252a1565b604484604051906306dfcc6560e41b825260d060048301526024820152fd5b612f4b61391e565b612f5361391e565b5f80516020614ed38339815191529073ffffffffffffffffffffffffffffffffffffffff1982547f08f74ea46ef7894f65eabfb5e6e695de773a000b47c529ab559178069b22640160406001600160a01b038095169481519084168152856020820152a116179055565b7f7c712897014dbe49c045ef1299aa2d5f9e67e48eea4403efa21f1e0f3ac0cb029081548060801c9160018301926fffffffffffffffffffffffffffffffff80931683851614613052575f527f7c712897014dbe49c045ef1299aa2d5f9e67e48eea4403efa21f1e0f3ac0cb0360205260405f20556fffffffffffffffffffffffffffffffff1983549260801b169116179055565b634e487b715f5260416020526024601cfd5b9081602091031261040f5751801515810361040f5790565b61308581613e1e565b9061308f826111e2565b600582036131e3576130c991505f527f0d5829787b8befdbc6044ef7457d8a95c2a04bc99235349f1a212c063e59d40160205260405f2090565b546130eb610ad55f80516020614ed3833981519152546001600160a01b031690565b6040517f584b153e0000000000000000000000000000000000000000000000000000000081526004810183905260209291908381602481855afa908115610d24575f916131c6575b501561314157505050600590565b6040517f2ab0f52900000000000000000000000000000000000000000000000000000000815260048101929092528290829060249082905afa918215610d24575f92613199575b50501561319457600790565b600290565b6131b89250803d106131bf575b6131b0818361076c565b810190613064565b5f80613188565b503d6131a6565b6131dd9150843d86116131bf576131b0818361076c565b5f613133565b5090565b916105789391604051936131fa85610717565b5f8552613262565b93909260ff61322e9361057897958752166020860152604085015260a0606085015260a0840190610542565b916080818403910152610542565b909260ff6080936105789695845216602083015260408201528160608201520190610542565b9290919361326f8461307c565b60088110156111ec576002600160ff83161b161561335a57506132cb6132c36132bd6132b261278d885f525f80516020614eb383398151915260205260405f2090565b65ffffffffffff1690565b856136ba565b868587614289565b9481869251155f1461331c57506001600160a01b03927fb8e138887d0aa13bab447e82de9d5c1777041ecd21ca36ba824ff1e6c07ddda494926133169260405195869516978561323c565b0390a290565b6001600160a01b03937fe2babfbac5889a709b63bb7f598b324e08bc5a4fb9ec647fb3cbc9ec07eb8712959361331693604051968796169886613202565b8461337e606492604051926331b75e4d60e01b8452600484015260248301906111f1565b60026044820152fd5b61338f6143c0565b65ffffffffffff9390925090831681106133b257506001600160d01b0391501690565b6133bc9150614435565b907fe770710421fd2cad75ad828c61aa98f2d77d423a440b67872d0f65554148e000918254905f9180936005821161346f575b50506133fb93506149aa565b8061340557505f90565b61346b61346461341c6001600160d01b0393613735565b7fe770710421fd2cad75ad828c61aa98f2d77d423a440b67872d0f65554148e0005f527f293b0181c8ec34cd3252e741689bdc21b70ee7a0ec76216439035a5c3718909b0190565b5460301c90565b1690565b61347b82939592614868565b8303928311612998576133fb955f5280837f293b0181c8ec34cd3252e741689bdc21b70ee7a0ec76216439035a5c3718909b015416908516105f146134c45750915b5f806133ef565b9291506134d090613569565b906134bd565b90805160348110613561577f2370726f706f7365723d000000000000000000000000000000000000000000007fffffffffffffffffffff00000000000000000000000000000000000000000000601319838501015116036135615761354091602919820190614467565b901591821561354e57505090565b6001600160a01b03918216911614919050565b505050600190565b906001820180921161299857565b90614ec0820180921161299857565b9190820180921161299857565b9061359d826108c5565b6135aa604051918261076c565b82815280926135bb601f19916108c5565b01905f5b8281106135cb57505050565b8060606020809385010152016135bf565b95926136119061361f939b9a98999695926101209089526001600160a01b0360209d168d8a01528060408a0152880190612b16565b908682036060880152611704565b9784890360808601528251808a52818a019180808360051b8d01019501925f905b83821061367d575050505050610578969750906136649184820360a0860152612b52565b9360c083015260e0820152610100818403910152610542565b9091929395838061369c8f93600194601f199082030186528a51610542565b98019201920190939291613640565b9081602091031261040f575190565b60209060446001600160a01b0391827f3ba4977254e415696610a40ebf2258dbfa0ec6a2ff64e84bfe715ff16977cc0054166040519586948593630748d63560e31b855216600484015260248301525afa908115610d24575f9161371c575090565b610578915060203d602011610d4f57610d40818361076c565b5f1981019190821161299857565b7fe770710421fd2cad75ad828c61aa98f2d77d423a440b67872d0f65554148e0008054806137715750505f90565b805f19810111612998577f293b0181c8ec34cd3252e741689bdc21b70ee7a0ec76216439035a5c3718909a915f52015460301c90565b156137af5790565b8051156137be57602081519101fd5b60046040517fd6bda275000000000000000000000000000000000000000000000000000000008152fd5b7f7c712897014dbe49c045ef1299aa2d5f9e67e48eea4403efa21f1e0f3ac0cb02908154916fffffffffffffffffffffffffffffffff8084169360801c841461387a57835f527f7c712897014dbe49c045ef1299aa2d5f9e67e48eea4403efa21f1e0f3ac0cb03602052600160405f20945f8654965501166fffffffffffffffffffffffffffffffff19825416179055565b634e487b715f5260316020526024601cfd5b9493926138b86080936138aa6138c69460a08a5260a08a0190612b16565b9088820360208a0152611704565b908682036040880152612b52565b935f60608201520152565b919261390060a0946138f261390e949998979960c0875260c0870190612b16565b908582036020870152611704565b908382036040850152612b52565b945f606083015260808201520152565b60ff7ff0c57e16840df040f15088dc2f81fe391c3923bec73e23a9662efc9c229c6a005460401c161561394d57565b60046040517fd7e6bcf8000000000000000000000000000000000000000000000000000000008152fd5b601f8111613983575050565b7fa16a46d94261c7517cc8ff89f61c0ce93598e3c849801011dee649a6a557d1025f527f42ad5d3e1f2e6e70edcf6d991b8a3023d3fca8047a131592f9edb9fd9b89d57d906020601f840160051c830193106139f9575b601f0160051c01905b8181106139ee575050565b5f81556001016139e3565b90915081906139da565b601f8111613a0f575050565b7f7c712897014dbe49c045ef1299aa2d5f9e67e48eea4403efa21f1e0f3ac0cb005f527fda13dda7583a39a3cd73e8830529c760837228fa4683752c823b17e10548aad5906020601f840160051c83019310613a85575b601f0160051c01905b818110613a7a575050565b5f8155600101613a6f565b9091508190613a66565b601f8111613a9b575050565b7fa16a46d94261c7517cc8ff89f61c0ce93598e3c849801011dee649a6a557d1035f527f5f9ce34815f8e11431c7bb75a8e6886a91478f7ffc1dbb0a98dc240fddd76b75906020601f840160051c83019310613b11575b601f0160051c01905b818110613b06575050565b5f8155600101613afb565b9091508190613af2565b90815167ffffffffffffffff81116106f6577fa16a46d94261c7517cc8ff89f61c0ce93598e3c849801011dee649a6a557d10390613b6281613b5d8454612023565b613a8f565b602080601f8311600114613ba357508190613b949394955f92613b98575b50508160011b915f199060031b1c19161790565b9055565b015190505f80613b80565b90601f19831695613bf47fa16a46d94261c7517cc8ff89f61c0ce93598e3c849801011dee649a6a557d1035f527f5f9ce34815f8e11431c7bb75a8e6886a91478f7ffc1dbb0a98dc240fddd76b7590565b925f905b888210613c2f57505083600195969710613c17575b505050811b019055565b01515f1960f88460031b161c191690555f8080613c0d565b80600185968294968601518155019501930190613bf8565b90613c5061391e565b815167ffffffffffffffff81116106f6577f7c712897014dbe49c045ef1299aa2d5f9e67e48eea4403efa21f1e0f3ac0cb0090613c9681613c918454612023565b613a03565b602080601f8311600114613cc757508190613b949394955f92613b985750508160011b915f199060031b1c19161790565b90601f19831695613d187f7c712897014dbe49c045ef1299aa2d5f9e67e48eea4403efa21f1e0f3ac0cb005f527fda13dda7583a39a3cd73e8830529c760837228fa4683752c823b17e10548aad590565b925f905b888210613d3a57505083600195969710613c1757505050811b019055565b80600185968294968601518155019501930190613d1c565b929093916001600160a01b035f80516020614ed3833981519152541690813b1561040f575f93613dc6604051978895869485947fe38335e50000000000000000000000000000000000000000000000000000000086526bffffffffffffffffffffffff193060601b1618926004860161388c565b039134905af1908115610d24575f92613e0c92613e0f575b505f527f0d5829787b8befdbc6044ef7457d8a95c2a04bc99235349f1a212c063e59d40160205260405f2090565b55565b613e18906106e2565b5f613dde565b613e3c815f525f80516020614eb383398151915260205260405f2090565b5460ff8160f01c16613f7f5760f81c613f7957613e736132b261278d835f525f80516020614eb383398151915260205260405f2090565b8015613f4757613e846132b26129e3565b80911015613f4157613e9582612ada565b10613ea05750600190565b613eac6110c282614767565b8015613eff575b15613ebe5750600390565b6132b26001613ee4613ef1935f525f80516020614eb383398151915260205260405f2090565b015465ffffffffffff1690565b613efa57600490565b600590565b50613f3c6110c2825f527fa1cefa0f43667ef127a258e673c94202a79b656e62899531c4376d87a7f3980060205260405f20600181015490541090565b613eb3565b50505f90565b6040517f6ad0607500000000000000000000000000000000000000000000000000000000815260048101839052602490fd5b50600290565b5050600790565b90613f92939291612bae565b613f9b8161307c565b60088110156111ec57603b600160ff83161b1615614137575061401e613fd5825f525f80516020614eb383398151915260205260405f2090565b7f01000000000000000000000000000000000000000000000000000000000000007effffffffffffffffffffffffffffffffffffffffffffffffffffffffffffff825416179055565b6040518181527f789cf55be980739dad1d0699b93b58e806b51c9d96619bfa8fe0a28abaa7b30c90602090a161407b815f527f0d5829787b8befdbc6044ef7457d8a95c2a04bc99235349f1a212c063e59d40160205260405f2090565b5480614085575090565b6140a6610ad55f80516020614ed3833981519152546001600160a01b031690565b803b1561040f576040517fc4d252f500000000000000000000000000000000000000000000000000000000815260048101929092525f908290602490829084905af18015610d2457614124575b505f8181527f0d5829787b8befdbc6044ef7457d8a95c2a04bc99235349f1a212c063e59d401602052604081205590565b80610d18614131926106e2565b5f6140f3565b9061415b606492604051926331b75e4d60e01b8452600484015260248301906111f1565b603b6044820152fd5b60429061416f614c45565b614177614d8e565b6040519060208201927f8b73c3c69bb8fe3d512ecc4cf759cc79239f7b179b0ffacaa9a75d522b39400f8452604083015260608201524660808201523060a082015260a081526141c681610733565b51902090604051917f19010000000000000000000000000000000000000000000000000000000000008352600283015260228201522090565b600411156111ec57565b9091813b6142315761421b919261482e565b50614225816141ff565b15918261354e57505090565b6020918160645f9351604051927f1626ba7e000000000000000000000000000000000000000000000000000000009788855260048501526040602485015286820190604485015e01915afa905f511460193d11161690565b6142bd909291925f527fa1cefa0f43667ef127a258e673c94202a79b656e62899531c4376d87a7f3980060205260405f2090565b91600383016142e76142e08383906001600160a01b03165f5260205260405f2090565b5460ff1690565b6143865761430c60ff939261431992906001600160a01b03165f5260205260405f2090565b805460ff19166001179055565b1680614330575061432b828254613586565b905590565b60018103614347575060010161432b828254613586565b60020361435c5760020161432b828254613586565b60046040517f06b337c2000000000000000000000000000000000000000000000000000000008152fd5b6040517f71c6af490000000000000000000000000000000000000000000000000000000081526001600160a01b0383166004820152602490fd5b7fe770710421fd2cad75ad828c61aa98f2d77d423a440b67872d0f65554148e0008054806143f25750505f905f905f90565b805f19810111612998577f293b0181c8ec34cd3252e741689bdc21b70ee7a0ec76216439035a5c3718909a915f52015460019165ffffffffffff82169160301c90565b65ffffffffffff90818111614448571690565b604490604051906306dfcc6560e41b8252603060048301526024820152fd5b805183118015614505575b6144c65761447f82613569565b8311806144cf575b614492901515612c12565b602801806028116129985782840384811161299857036144c657916144c0916001600160a01b039493614a42565b90921690565b5050505f905f90565b50808201602001517fffff0000000000000000000000000000000000000000000000000000000000001661060f60f31b14614487565b50828211614472565b8115614518570490565b634e487b7160e01b5f52601260045260245ffd5b5f1982820982820291828083109203918083039214614599578160641115614587577f5c28f5c28f5c28f5c28f5c28f5c28f5c28f5c28f5c28f5c28f5c28f5c28f5c29936064910990828211900360fe1b910360021c170290565b634e487b715f5260116020526024601cfd5b5050606491500490565b7fe770710421fd2cad75ad828c61aa98f2d77d423a440b67872d0f65554148e000908154680100000000000000008110156106f657600181018084558110156124545760206001600160d01b039161079b945f527f293b0181c8ec34cd3252e741689bdc21b70ee7a0ec76216439035a5c3718909b019261464165ffffffffffff825116859065ffffffffffff1665ffffffffffff19825416179055565b0151825465ffffffffffff16911660301b65ffffffffffff1916179055565b7fe770710421fd2cad75ad828c61aa98f2d77d423a440b67872d0f65554148e00054919291801561473e5761341c61469791613735565b9081549165ffffffffffff90818416918316808311614714578692036146dc576146d592509065ffffffffffff82549181199060301b169116179055565b60301c9190565b505061470f906146fb6146ed61078e565b65ffffffffffff9092168252565b6001600160d01b03851660208201526145a3565b6146d5565b60046040517f2520601d000000000000000000000000000000000000000000000000000000008152fd5b506147629061474e6146ed61078e565b6001600160d01b03841660208201526145a3565b5f9190565b5f527fa1cefa0f43667ef127a258e673c94202a79b656e62899531c4376d87a7f3980060205260405f205f80516020614eb383398151915260205265ffffffffffff60405f205460a01c16602460206001600160a01b037f3ba4977254e415696610a40ebf2258dbfa0ec6a2ff64e84bfe715ff16977cc00541660405192838092632394e7a360e21b82528660048301525afa8015610d245761482992614818925f92611fb95750611fb390613387565b916002600182015491015490613586565b101590565b815191906041830361485e576148579250602082015190606060408401519301515f1a90614b51565b9192909190565b50505f9160029190565b600181111561057857600181700100000000000000000000000000000000811015614993575b61493b61493161492761491d61491361490961494797600488680100000000000000006149429a1015614986575b640100000000811015614979575b6201000081101561496c575b610100811015614960575b6010811015614954575b101561494c575b60030260011c614902818b61450e565b0160011c90565b614902818a61450e565b614902818961450e565b614902818861450e565b614902818761450e565b614902818661450e565b809361450e565b821190565b900390565b60011b6148f2565b811c9160021b916148eb565b60081c91811b916148e1565b60101c9160081b916148d6565b60201c9160101b916148ca565b60401c9160201b916148bc565b50680100000000000000009050608082901c61488e565b905b8281106149b857505090565b90918082169080831860011c8201809211612998577fe770710421fd2cad75ad828c61aa98f2d77d423a440b67872d0f65554148e0005f5265ffffffffffff80837f293b0181c8ec34cd3252e741689bdc21b70ee7a0ec76216439035a5c3718909b015416908516105f14614a305750915b906149ac565b929150614a3c90613569565b90614a2a565b929092614a4e84613569565b831180614aea575b614a68614a6f91949293941515612c12565b5f95613586565b915b818310614a815750505060019190565b9092919360ff614abe614ab9602088860101517fff000000000000000000000000000000000000000000000000000000000000001690565b614bd3565b1690600f8211614adf5790614ad4600192612c28565b019401919290614a71565b505f94508493505050565b50614a6f614a6861060f60f31b7fffff000000000000000000000000000000000000000000000000000000000000614b47602089870101517fffff0000000000000000000000000000000000000000000000000000000000001690565b1614915050614a56565b91907f7fffffffffffffffffffffffffffffff5d576e7357a4501ddfe92f46681b20a08411614bc8579160209360809260ff5f9560405194855216868401526040830152606082015282805260015afa15610d24575f516001600160a01b03811615614bbe57905f905f90565b505f906001905f90565b5050505f9160039190565b60f81c602f811180614c3b575b15614bef57602f190160ff1690565b6060811180614c31575b15614c08576056190160ff1690565b6040811180614c27575b15614c21576036190160ff1690565b5060ff90565b5060478110614c12565b5060678110614bf9565b50603a8110614be0565b6040515f907fa16a46d94261c7517cc8ff89f61c0ce93598e3c849801011dee649a6a557d1029181835491614c7983612023565b9283835260209060208401966001916001811690815f14614d6a5750600114614d0a575b505050614cac9250038261076c565b51908115614cb8572090565b50507fa16a46d94261c7517cc8ff89f61c0ce93598e3c849801011dee649a6a557d100548015614ce55790565b507fc5d2460186f7233c927e7db2dcc703c0e500b653ca82273b7bfad8045d85a47090565b5f9081527f42ad5d3e1f2e6e70edcf6d991b8a3023d3fca8047a131592f9edb9fd9b89d57d9590935091905b828410614d525750614cac9450505081016020015f8080614c9d565b85548785018301529485019486945092810192614d36565b9250505060209250614cac94915060ff19168652151560051b8201015f8080614c9d565b6040515f907fa16a46d94261c7517cc8ff89f61c0ce93598e3c849801011dee649a6a557d1039181835491614dc283612023565b9283835260209060208401966001916001811690815f14614e8e5750600114614e2e575b505050614df59250038261076c565b51908115614e01572090565b50507fa16a46d94261c7517cc8ff89f61c0ce93598e3c849801011dee649a6a557d101548015614ce55790565b5f9081527f5f9ce34815f8e11431c7bb75a8e6886a91478f7ffc1dbb0a98dc240fddd76b759590935091905b828410614e765750614df59450505081016020015f8080614de6565b85548785018301529485019486945092810192614e5a565b9250505060209250614df594915060ff19168652151560051b8201015f8080614de656fe7c712897014dbe49c045ef1299aa2d5f9e67e48eea4403efa21f1e0f3ac0cb010d5829787b8befdbc6044ef7457d8a95c2a04bc99235349f1a212c063e59d400a2646970667358221220396079014db2abba3d9198b28e8ff2c1f7c01393788e80a70d93dbde451c250264736f6c63430008180033","linkReferences":{}},"methodIdentifiers":{"BALLOT_TYPEHASH()":"deaaa7cc","CLOCK_MODE()":"4bf5d7e9","COUNTING_MODE()":"dd4e2ba5","EXTENDED_BALLOT_TYPEHASH()":"2fe3e261","cancel(address[],uint256[],bytes[],bytes32)":"452115d6","castVote(uint256,uint8)":"56781388","castVoteBySig(uint256,uint8,address,bytes)":"8ff262e3","castVoteWithReason(uint256,uint8,string)":"7b3c71d3","castVoteWithReasonAndParams(uint256,uint8,string,bytes)":"5f398a14","castVoteWithReasonAndParamsBySig(uint256,uint8,address,string,bytes,bytes)":"5b8d0e0d","clock()":"91ddadf4","eip712Domain()":"84b0196e","execute(address[],uint256[],bytes[],bytes32)":"2656227d","getProposalId(address[],uint256[],bytes[],bytes32)":"a8f8a668","getVotes(address,uint256)":"eb9019d4","getVotesWithParams(address,uint256,bytes)":"9a802a6d","hasVoted(uint256,address)":"43859632","hashProposal(address[],uint256[],bytes[],bytes32)":"c59057e4","initialize(address,address,uint256)":"1794bb3c","name()":"06fdde03","nonces(address)":"7ecebe00","onERC1155BatchReceived(address,address,uint256[],uint256[],bytes)":"bc197c81","onERC1155Received(address,address,uint256,uint256,bytes)":"f23a6e61","onERC721Received(address,address,uint256,bytes)":"150b7a02","proposalDeadline(uint256)":"c01f9e37","proposalEta(uint256)":"ab58fb8e","proposalNeedsQueuing(uint256)":"a9a95294","proposalProposer(uint256)":"143489d0","proposalSnapshot(uint256)":"2d63f693","proposalThreshold()":"b58131b0","proposalVotes(uint256)":"544ffc9c","propose(address[],uint256[],bytes[],string)":"7d5e81e2","queue(address[],uint256[],bytes[],bytes32)":"160cbed7","quorum(uint256)":"f8ce560a","quorumDenominator()":"97c3d334","quorumNumerator()":"a7713a70","quorumNumerator(uint256)":"60c4247f","relay(address,uint256,bytes)":"c28bc2fa","state(uint256)":"3e4f49e6","supportsInterface(bytes4)":"01ffc9a7","timelock()":"d33219b4","token()":"fc0c546a","updateQuorumNumerator(uint256)":"06f3f9e6","updateTimelock(address)":"a890c910","version()":"54fd4d50","votingDelay()":"3932abb1","votingPeriod()":"02a251a3"},"id":79}