{"abi":[{"type":"constructor","inputs":[{"name":"_asset","type":"address","internalType":"address"},{"name":"_rewardToken","type":"address","internalType":"address"}],"stateMutability":"nonpayable"},{"type":"function","name":"accruedYield","inputs":[],"outputs":[{"name":"","type":"uint256","internalType":"uint256"}],"stateMutability":"view"},{"type":"function","name":"asset","inputs":[],"outputs":[{"name":"","type":"address","internalType":"contract IERC20"}],"stateMutability":"view"},{"type":"function","name":"baseAPY","inputs":[],"outputs":[{"name":"","type":"uint256","internalType":"uint256"}],"stateMutability":"view"},{"type":"function","name":"estimatedTotalAssets","inputs":[],"outputs":[{"name":"","type":"uint256","internalType":"uint256"}],"stateMutability":"view"},{"type":"function","name":"getCurrentAPY","inputs":[],"outputs":[{"name":"","type":"uint256","internalType":"uint256"}],"stateMutability":"view"},{"type":"function","name":"harvest","inputs":[],"outputs":[{"name":"","type":"uint256","internalType":"uint256"}],"stateMutability":"nonpayable"},{"type":"function","name":"invest","inputs":[{"name":"amount","type":"uint256","internalType":"uint256"}],"outputs":[],"stateMutability":"nonpayable"},{"type":"function","name":"lastUpdateTime","inputs":[],"outputs":[{"name":"","type":"uint256","internalType":"uint256"}],"stateMutability":"view"},{"type":"function","name":"rewardAPY","inputs":[],"outputs":[{"name":"","type":"uint256","internalType":"uint256"}],"stateMutability":"view"},{"type":"function","name":"rewardToken","inputs":[],"outputs":[{"name":"","type":"address","internalType":"contract IERC20"}],"stateMutability":"view"},{"type":"function","name":"setAPY","inputs":[{"name":"_baseAPY","type":"uint256","internalType":"uint256"},{"name":"_rewardAPY","type":"uint256","internalType":"uint256"}],"outputs":[],"stateMutability":"nonpayable"},{"type":"function","name":"setSlippage","inputs":[{"name":"_slippageBps","type":"uint256","internalType":"uint256"}],"outputs":[],"stateMutability":"nonpayable"},{"type":"function","name":"slippageBps","inputs":[],"outputs":[{"name":"","type":"uint256","internalType":"uint256"}],"stateMutability":"view"},{"type":"function","name":"totalDeposited","inputs":[],"outputs":[{"name":"","type":"uint256","internalType":"uint256"}],"stateMutability":"view"},{"type":"function","name":"withdraw","inputs":[{"name":"amount","type":"uint256","internalType":"uint256"}],"outputs":[],"stateMutability":"nonpayable"},{"type":"event","name":"RewardsHarvested","inputs":[{"name":"amount","type":"uint256","indexed":false,"internalType":"uint256"}],"anonymous":false},{"type":"event","name":"SlippageApplied","inputs":[{"name":"amount","type":"uint256","indexed":false,"internalType":"uint256"}],"anonymous":false},{"type":"event","name":"YieldAccrued","inputs":[{"name":"amount","type":"uint256","indexed":false,"internalType":"uint256"}],"anonymous":false}],"bytecode":{"object":"0x6080346100a157601f61079b38819003918201601f19168301916001600160401b038311848410176100a55780849260409485528339810103126100a157610052602061004b836100b9565b92016100b9565b61012c600255610190600355600a6004555f80546001600160a01b039384166001600160a01b03199182161790915560018054929093169116179055426006556040516106cd90816100ce8239f35b5f80fd5b634e487b7160e01b5f52604160045260245ffd5b51906001600160a01b03821682036100a15756fe6080604090808252600480361015610015575f80fd5b5f3560e01c918263214405a914610488575081632afcf480146103ab5781632e1a7d4d1461027657816338d52e0f146102505781634019fb33146102325781634641257d14610216578163578c71d9146101fa5781635acd2e4c146101de578163962ca496146101bb578163b7fd17841461019d578163c8f33c911461017f578163efbb5cb014610124578163f0fa55a91461010d57508063f7c618c1146100e65763ff50abdc146100c5575f80fd5b346100e2575f3660031901126100e2576020906005549051908152f35b5f80fd5b50346100e2575f3660031901126100e2576020906001600160a01b03600154169051908152f35b346100e25760203660031901126100e25780359055005b82346100e2575f3660031901126100e257602090610178610147600654426104c9565b61017364496cebb80061016860055493610163600254866104a2565b6104a2565b0491600754906104d6565b6104d6565b9051908152f35b82346100e2575f3660031901126100e2576020906006549051908152f35b82346100e2575f3660031901126100e2576020906003549051908152f35b82346100e2575f3660031901126100e257602090610178600254600354906104d6565b82346100e2573660031901126100e25735600255602435600355005b82346100e2575f3660031901126100e257602091549051908152f35b82346100e2575f3660031901126100e2576020906101786104e3565b82346100e2575f3660031901126100e2576020906007549051908152f35b82346100e2575f3660031901126100e2576020906001600160a01b035f54169051908152f35b82346100e25760203660031901126100e257813591610293610617565b60055483811061034e576102c06127106102ae8454876104a2565b04946102ba86826104c9565b926104c9565b6005556001600160a01b035f541690336014526034526fa9059cbb0000000000000000000000005f5260205f6044601082855af1908160015f51141615610332575b7fc15e6225a0e9440d6a6fb92dee67db8aca014abc0fea0c366938722ed9170c1b602086865f60345251908152a1005b3b153d171015610343578080610302565b6390b8ec185f52601cfd5b50602060649251917f08c379a0000000000000000000000000000000000000000000000000000000008352820152601460248201527f496e73756666696369656e742062616c616e63650000000000000000000000006044820152fd5b82346100e25760203660031901126100e2578135906103c8610617565b6001600160a01b035f5416815190836060523083523360601b602c526f23b872dd000000000000000000000000600c5260205f6064601c82855af1908160015f5114161561046b575b7fc15e6225a0e9440d6a6fb92dee67db8aca014abc0fea0c366938722ed9170c1b602086866104616104596127106104518d8b5f606052865254866104a2565b0480946104c9565b6005546104d6565b60055551908152a1005b3b153d17101561047c578480610411565b83637939f4245f52601cfd5b346100e2575f3660031901126100e2576020906002548152f35b818102929181159184041417156104b557565b634e487b7160e01b5f52601160045260245ffd5b919082039182116104b557565b919082018092116104b557565b6104eb610617565b64496cebb800610515610503600554600354906104a2565b61050f600654426104c9565b906104a2565b0480610521575b505f90565b6001600160a01b03600154166040519060208201917f40c10f1900000000000000000000000000000000000000000000000000000000835230602482015283604482015260448152608081019167ffffffffffffffff93828410858511176105fd575f809493819460405251925af1903d15610611573d8181116105fd5760405191601f8201601f19908116603f01168301908111838210176105fd5760405281525f60203d92013e5b1561051c577f302ece888b23f17e9addd0ad302c9b0d6619a5c38b718deb019638e29355c0fb6020604051838152a190565b634e487b7160e01b5f52604160045260245ffd5b506105cb565b610623600654426104c9565b8015158061068c575b6106335750565b602064496cebb80061066f7f3b6bc0ba304eaa17cdca1b053baac859e721c7a775cddefc825f6286641311fc93610163600554600254906104a2565b0461067c816007546104d6565b60075542600655604051908152a1565b50600554151561062c56fea264697066735822122072879250e7eee86400d059e9d4a74d8dc7b6708b7b94d8f059ac5303d4a1c39664736f6c63430008180033","linkReferences":{}},"methodIdentifiers":{"accruedYield()":"4019fb33","asset()":"38d52e0f","baseAPY()":"214405a9","estimatedTotalAssets()":"efbb5cb0","getCurrentAPY()":"962ca496","harvest()":"4641257d","invest(uint256)":"2afcf480","lastUpdateTime()":"c8f33c91","rewardAPY()":"b7fd1784","rewardToken()":"f7c618c1","setAPY(uint256,uint256)":"5acd2e4c","setSlippage(uint256)":"f0fa55a9","slippageBps()":"578c71d9","totalDeposited()":"ff50abdc","withdraw(uint256)":"2e1a7d4d"},"id":86}