{"abi":[{"type":"receive","stateMutability":"payable"},{"type":"function","name":"CANCELLER_ROLE","inputs":[],"outputs":[{"name":"","type":"bytes32","internalType":"bytes32"}],"stateMutability":"view"},{"type":"function","name":"DEFAULT_ADMIN_ROLE","inputs":[],"outputs":[{"name":"","type":"bytes32","internalType":"bytes32"}],"stateMutability":"view"},{"type":"function","name":"EXECUTOR_ROLE","inputs":[],"outputs":[{"name":"","type":"bytes32","internalType":"bytes32"}],"stateMutability":"view"},{"type":"function","name":"PROPOSER_ROLE","inputs":[],"outputs":[{"name":"","type":"bytes32","internalType":"bytes32"}],"stateMutability":"view"},{"type":"function","name":"cancel","inputs":[{"name":"id","type":"bytes32","internalType":"bytes32"}],"outputs":[],"stateMutability":"nonpayable"},{"type":"function","name":"execute","inputs":[{"name":"target","type":"address","internalType":"address"},{"name":"value","type":"uint256","internalType":"uint256"},{"name":"payload","type":"bytes","internalType":"bytes"},{"name":"predecessor","type":"bytes32","internalType":"bytes32"},{"name":"salt","type":"bytes32","internalType":"bytes32"}],"outputs":[],"stateMutability":"payable"},{"type":"function","name":"executeBatch","inputs":[{"name":"targets","type":"address[]","internalType":"address[]"},{"name":"values","type":"uint256[]","internalType":"uint256[]"},{"name":"payloads","type":"bytes[]","internalType":"bytes[]"},{"name":"predecessor","type":"bytes32","internalType":"bytes32"},{"name":"salt","type":"bytes32","internalType":"bytes32"}],"outputs":[],"stateMutability":"payable"},{"type":"function","name":"getMinDelay","inputs":[],"outputs":[{"name":"","type":"uint256","internalType":"uint256"}],"stateMutability":"view"},{"type":"function","name":"getOperationState","inputs":[{"name":"id","type":"bytes32","internalType":"bytes32"}],"outputs":[{"name":"","type":"uint8","internalType":"enum TimelockControllerUpgradeable.OperationState"}],"stateMutability":"view"},{"type":"function","name":"getRoleAdmin","inputs":[{"name":"role","type":"bytes32","internalType":"bytes32"}],"outputs":[{"name":"","type":"bytes32","internalType":"bytes32"}],"stateMutability":"view"},{"type":"function","name":"getTimestamp","inputs":[{"name":"id","type":"bytes32","internalType":"bytes32"}],"outputs":[{"name":"","type":"uint256","internalType":"uint256"}],"stateMutability":"view"},{"type":"function","name":"grantRole","inputs":[{"name":"role","type":"bytes32","internalType":"bytes32"},{"name":"account","type":"address","internalType":"address"}],"outputs":[],"stateMutability":"nonpayable"},{"type":"function","name":"hasRole","inputs":[{"name":"role","type":"bytes32","internalType":"bytes32"},{"name":"account","type":"address","internalType":"address"}],"outputs":[{"name":"","type":"bool","internalType":"bool"}],"stateMutability":"view"},{"type":"function","name":"hashOperation","inputs":[{"name":"target","type":"address","internalType":"address"},{"name":"value","type":"uint256","internalType":"uint256"},{"name":"data","type":"bytes","internalType":"bytes"},{"name":"predecessor","type":"bytes32","internalType":"bytes32"},{"name":"salt","type":"bytes32","internalType":"bytes32"}],"outputs":[{"name":"","type":"bytes32","internalType":"bytes32"}],"stateMutability":"pure"},{"type":"function","name":"hashOperationBatch","inputs":[{"name":"targets","type":"address[]","internalType":"address[]"},{"name":"values","type":"uint256[]","internalType":"uint256[]"},{"name":"payloads","type":"bytes[]","internalType":"bytes[]"},{"name":"predecessor","type":"bytes32","internalType":"bytes32"},{"name":"salt","type":"bytes32","internalType":"bytes32"}],"outputs":[{"name":"","type":"bytes32","internalType":"bytes32"}],"stateMutability":"pure"},{"type":"function","name":"initialize","inputs":[{"name":"minDelay","type":"uint256","internalType":"uint256"},{"name":"proposers","type":"address[]","internalType":"address[]"},{"name":"executors","type":"address[]","internalType":"address[]"},{"name":"admin","type":"address","internalType":"address"}],"outputs":[],"stateMutability":"nonpayable"},{"type":"function","name":"isOperation","inputs":[{"name":"id","type":"bytes32","internalType":"bytes32"}],"outputs":[{"name":"","type":"bool","internalType":"bool"}],"stateMutability":"view"},{"type":"function","name":"isOperationDone","inputs":[{"name":"id","type":"bytes32","internalType":"bytes32"}],"outputs":[{"name":"","type":"bool","internalType":"bool"}],"stateMutability":"view"},{"type":"function","name":"isOperationPending","inputs":[{"name":"id","type":"bytes32","internalType":"bytes32"}],"outputs":[{"name":"","type":"bool","internalType":"bool"}],"stateMutability":"view"},{"type":"function","name":"isOperationReady","inputs":[{"name":"id","type":"bytes32","internalType":"bytes32"}],"outputs":[{"name":"","type":"bool","internalType":"bool"}],"stateMutability":"view"},{"type":"function","name":"onERC1155BatchReceived","inputs":[{"name":"","type":"address","internalType":"address"},{"name":"","type":"address","internalType":"address"},{"name":"","type":"uint256[]","internalType":"uint256[]"},{"name":"","type":"uint256[]","internalType":"uint256[]"},{"name":"","type":"bytes","internalType":"bytes"}],"outputs":[{"name":"","type":"bytes4","internalType":"bytes4"}],"stateMutability":"nonpayable"},{"type":"function","name":"onERC1155Received","inputs":[{"name":"","type":"address","internalType":"address"},{"name":"","type":"address","internalType":"address"},{"name":"","type":"uint256","internalType":"uint256"},{"name":"","type":"uint256","internalType":"uint256"},{"name":"","type":"bytes","internalType":"bytes"}],"outputs":[{"name":"","type":"bytes4","internalType":"bytes4"}],"stateMutability":"nonpayable"},{"type":"function","name":"onERC721Received","inputs":[{"name":"","type":"address","internalType":"address"},{"name":"","type":"address","internalType":"address"},{"name":"","type":"uint256","internalType":"uint256"},{"name":"","type":"bytes","internalType":"bytes"}],"outputs":[{"name":"","type":"bytes4","internalType":"bytes4"}],"stateMutability":"nonpayable"},{"type":"function","name":"renounceRole","inputs":[{"name":"role","type":"bytes32","internalType":"bytes32"},{"name":"callerConfirmation","type":"address","internalType":"address"}],"outputs":[],"stateMutability":"nonpayable"},{"type":"function","name":"revokeRole","inputs":[{"name":"role","type":"bytes32","internalType":"bytes32"},{"name":"account","type":"address","internalType":"address"}],"outputs":[],"stateMutability":"nonpayable"},{"type":"function","name":"schedule","inputs":[{"name":"target","type":"address","internalType":"address"},{"name":"value","type":"uint256","internalType":"uint256"},{"name":"data","type":"bytes","internalType":"bytes"},{"name":"predecessor","type":"bytes32","internalType":"bytes32"},{"name":"salt","type":"bytes32","internalType":"bytes32"},{"name":"delay","type":"uint256","internalType":"uint256"}],"outputs":[],"stateMutability":"nonpayable"},{"type":"function","name":"scheduleBatch","inputs":[{"name":"targets","type":"address[]","internalType":"address[]"},{"name":"values","type":"uint256[]","internalType":"uint256[]"},{"name":"payloads","type":"bytes[]","internalType":"bytes[]"},{"name":"predecessor","type":"bytes32","internalType":"bytes32"},{"name":"salt","type":"bytes32","internalType":"bytes32"},{"name":"delay","type":"uint256","internalType":"uint256"}],"outputs":[],"stateMutability":"nonpayable"},{"type":"function","name":"supportsInterface","inputs":[{"name":"interfaceId","type":"bytes4","internalType":"bytes4"}],"outputs":[{"name":"","type":"bool","internalType":"bool"}],"stateMutability":"view"},{"type":"function","name":"updateDelay","inputs":[{"name":"newDelay","type":"uint256","internalType":"uint256"}],"outputs":[],"stateMutability":"nonpayable"},{"type":"event","name":"CallExecuted","inputs":[{"name":"id","type":"bytes32","indexed":true,"internalType":"bytes32"},{"name":"index","type":"uint256","indexed":true,"internalType":"uint256"},{"name":"target","type":"address","indexed":false,"internalType":"address"},{"name":"value","type":"uint256","indexed":false,"internalType":"uint256"},{"name":"data","type":"bytes","indexed":false,"internalType":"bytes"}],"anonymous":false},{"type":"event","name":"CallSalt","inputs":[{"name":"id","type":"bytes32","indexed":true,"internalType":"bytes32"},{"name":"salt","type":"bytes32","indexed":false,"internalType":"bytes32"}],"anonymous":false},{"type":"event","name":"CallScheduled","inputs":[{"name":"id","type":"bytes32","indexed":true,"internalType":"bytes32"},{"name":"index","type":"uint256","indexed":true,"internalType":"uint256"},{"name":"target","type":"address","indexed":false,"internalType":"address"},{"name":"value","type":"uint256","indexed":false,"internalType":"uint256"},{"name":"data","type":"bytes","indexed":false,"internalType":"bytes"},{"name":"predecessor","type":"bytes32","indexed":false,"internalType":"bytes32"},{"name":"delay","type":"uint256","indexed":false,"internalType":"uint256"}],"anonymous":false},{"type":"event","name":"Cancelled","inputs":[{"name":"id","type":"bytes32","indexed":true,"internalType":"bytes32"}],"anonymous":false},{"type":"event","name":"Initialized","inputs":[{"name":"version","type":"uint64","indexed":false,"internalType":"uint64"}],"anonymous":false},{"type":"event","name":"MinDelayChange","inputs":[{"name":"oldDuration","type":"uint256","indexed":false,"internalType":"uint256"},{"name":"newDuration","type":"uint256","indexed":false,"internalType":"uint256"}],"anonymous":false},{"type":"event","name":"RoleAdminChanged","inputs":[{"name":"role","type":"bytes32","indexed":true,"internalType":"bytes32"},{"name":"previousAdminRole","type":"bytes32","indexed":true,"internalType":"bytes32"},{"name":"newAdminRole","type":"bytes32","indexed":true,"internalType":"bytes32"}],"anonymous":false},{"type":"event","name":"RoleGranted","inputs":[{"name":"role","type":"bytes32","indexed":true,"internalType":"bytes32"},{"name":"account","type":"address","indexed":true,"internalType":"address"},{"name":"sender","type":"address","indexed":true,"internalType":"address"}],"anonymous":false},{"type":"event","name":"RoleRevoked","inputs":[{"name":"role","type":"bytes32","indexed":true,"internalType":"bytes32"},{"name":"account","type":"address","indexed":true,"internalType":"address"},{"name":"sender","type":"address","indexed":true,"internalType":"address"}],"anonymous":false},{"type":"error","name":"AccessControlBadConfirmation","inputs":[]},{"type":"error","name":"AccessControlUnauthorizedAccount","inputs":[{"name":"account","type":"address","internalType":"address"},{"name":"neededRole","type":"bytes32","internalType":"bytes32"}]},{"type":"error","name":"FailedCall","inputs":[]},{"type":"error","name":"InvalidInitialization","inputs":[]},{"type":"error","name":"NotInitializing","inputs":[]},{"type":"error","name":"TimelockInsufficientDelay","inputs":[{"name":"delay","type":"uint256","internalType":"uint256"},{"name":"minDelay","type":"uint256","internalType":"uint256"}]},{"type":"error","name":"TimelockInvalidOperationLength","inputs":[{"name":"targets","type":"uint256","internalType":"uint256"},{"name":"payloads","type":"uint256","internalType":"uint256"},{"name":"values","type":"uint256","internalType":"uint256"}]},{"type":"error","name":"TimelockUnauthorizedCaller","inputs":[{"name":"caller","type":"address","internalType":"address"}]},{"type":"error","name":"TimelockUnexecutedPredecessor","inputs":[{"name":"predecessorId","type":"bytes32","internalType":"bytes32"}]},{"type":"error","name":"TimelockUnexpectedOperationState","inputs":[{"name":"operationId","type":"bytes32","internalType":"bytes32"},{"name":"expectedStates","type":"bytes32","internalType":"bytes32"}]}],"bytecode":{"object":"0x6080806040523461001657611e13908161001b8239f35b5f80fdfe60406080815260048036101561001e575b5050361561001c575f80fd5b005b5f3560e01c90816301d5062a14610f3e57816301ffc9a714610e9f57816307bd026514610e65578163134008d314610d9c57816313bc9f2014610d7e578163150b7a0214610d12578163248a9ca314610cdc5781632ab0f52914610cbe5781632f2ff15d14610c9657816331d5075014610c7857816336568abe14610c1b578163584b153e14610bf457816364d6235314610b545781637958004c14610b125781638065657f14610af15781638f2a0bb0146109515781638f61f4f51461091757816391d14854146108c6578163a217fddf146108ac578163b08e51c014610872578163b1c5f42714610847578163bc197c81146107aa578163c4c4c7b31461050a578163c4d252f514610412578163d45c4435146103cc578163d547741f14610384578163e38335e514610215578163f23a6e61146101a9575063f27a0c92146101695780610010565b346101a5575f3660031901126101a5576020907f9a37c2aa9d186a0969ff8a8267bf4e07e864c2f2768f5040949e28a624fb3601549051908152f35b5f80fd5b82346101a55760a03660031901126101a5576101c3610fea565b506101cc611000565b5060843567ffffffffffffffff81116101a5576020926101ee913691016110f9565b50517ff23a6e61000000000000000000000000000000000000000000000000000000008152f35b905061022036611170565b9098949591939296977fd8aa0f3194971a2a116679f7c2090f6939c8d4e01a2a8d7e41d55e5351469e635f525f80516020611dbe833981519152602052855f205f805260205260ff865f20541615610376575b83831480159061036c575b610328575061029661029d918a868a878b888f6114de565b988961182d565b5f5b8181106102af5761001c896118ff565b80808a7fc2617efa69bab66782fa219543714338489c4e9e178271560a91b82c3f612b588a8a61031f6103078f988c610300828e6102fa8f60019f6102f5918591611464565b611488565b97611464565b359561149c565b90610314828287876118ac565b8d519485948561130b565b0390a30161029f565b85517fffb032110000000000000000000000000000000000000000000000000000000081529081019283526020830185905260408301849052918291506060010390fd5b508483141561027e565b61037f3361178f565b610273565b82346101a557806003193601126101a55761001c91356103c760016103a7611000565b93835f525f80516020611dbe8339815191526020525f20015433906117f3565b611c8f565b82346101a55760203660031901126101a557602091355f527f9a37c2aa9d186a0969ff8a8267bf4e07e864c2f2768f5040949e28a624fb36008252805f20549051908152f35b82346101a55760203660031901126101a5578135917ffd643c72710c63c0180259aba6b2d05451e3591a24e58b62239378085726f783805f525f80516020611dbe833981519152602052825f20335f5260205260ff835f205416156104ef575061047b8361138e565b156104d357505f908282527f9a37c2aa9d186a0969ff8a8267bf4e07e864c2f2768f5040949e28a624fb36006020528120557fbaa1eb22f2a492ba1a5fea61b8df4d27c6c8b5f3971e63bb58fa14ff72eedb705f80a2005b826044925191635ead8eb560e01b835282015260066024820152fd5b604492519163e2517d3f60e01b835233908301526024820152fd5b9050346101a55760803660031901126101a55780359067ffffffffffffffff6024358181116101a557610540903690840161124a565b926044358281116101a557610558903690850161124a565b93606435946001600160a01b0391828716968781036101a5577ff0c57e16840df040f15088dc2f81fe391c3923bec73e23a9662efc9c229c6a0097885460ff818c1c1615978116988915806107a3575b6001809b149081610799575b159081610790575b50610769575067ffffffffffffffff19811689178a5588939291908861074a575b506105e6611d50565b6105ee611d50565b6105f73061193c565b5061073a575b5088939192905f845b6106e6575b5050825f905b6106ad575b50505050817f11c24f4ead16507c69ac467fbd5e4eed5fb5c699626d2cc6d66421df253886d5927f9a37c2aa9d186a0969ff8a8267bf4e07e864c2f2768f5040949e28a624fb3601558151905f82526020820152a161067157005b7fc7f505b2f371ae2175ee4913f4499e1f2633a7b5936321eed1cdaeb6115181d29260209268ff000000000000000019815416905551908152a1005b9091929382518210156106df5750806106d2846106cb879486611da9565b5116611b52565b5001908392918994610611565b9392610616565b9080929493955051811015610730578061070c86610705869486611da9565b51166119d9565b506107228661071b8386611da9565b5116611a99565b5001908293918a9593610606565b899492939161060b565b6107439061193c565b505f6105fd565b68ffffffffffffffffff191668010000000000000001178a555f6105dd565b8b517ff92ee8a9000000000000000000000000000000000000000000000000000000008152fd5b9050155f6105bc565b303b1591506105b4565b50886105a8565b82346101a55760a03660031901126101a5576107c4610fea565b506107cd611000565b5067ffffffffffffffff6044358181116101a5576107ee90369085016111ea565b506064358181116101a55761080690369085016111ea565b506084359081116101a557602092610820913691016110f9565b50517fbc197c81000000000000000000000000000000000000000000000000000000008152f35b82346101a55760209061086b61085c36611170565b969590959491949392936114de565b9051908152f35b82346101a5575f3660031901126101a557602090517ffd643c72710c63c0180259aba6b2d05451e3591a24e58b62239378085726f7838152f35b82346101a5575f3660031901126101a557602090515f8152f35b82346101a557806003193601126101a5576020916108e2611000565b90355f525f80516020611dbe83398151915283526001600160a01b03825f2091165f52825260ff815f20541690519015158152f35b82346101a5575f3660031901126101a557602090517fb09aa5aeb3702cfd50b6b62bc4532604938f21248a27a1d5ca736082b6819cc18152f35b82346101a55760c03660031901126101a55767ffffffffffffffff9082358281116101a557610983903690850161113f565b936024358481116101a55761099b903690830161113f565b946044359081116101a5576109b3903690840161113f565b60649391933590608435978960a435946109cc3361170d565b828214801590610ae7575b610aa4575089848489858a6109ec968e6114de565b996109f7858c611634565b8a5f5b8a838210610a38578c809250610a0c57005b7f20fda5fd27a1ea7bf5b9567f143ac5470bb059374a27e8f67cb44f946f6d03879160209151908152a2005b6001927f4cf4410cc57040e44862ef0f45f3dd5a5e02db8eb8add648d4b0e236f1d07dca8b8b610a998f8c88978f92898f8f8f610a8791610a816102f5868094610a8e99611464565b9a611464565b359861149c565b9151968796876112d2565b0390a3018b906109fa565b89517fffb0321100000000000000000000000000000000000000000000000000000000815290810191825260208201849052604082018390529081906060010390fd5b50838214156109d7565b82346101a55760209061086b610b0636611058565b9493909392919261140e565b82346101a55760203660031901126101a557610b2e82356113b7565b90519082811015610b4157602092508152f35b602183634e487b7160e01b5f525260245ffd5b82346101a55760203660031901126101a557813591303303610bc557507f11c24f4ead16507c69ac467fbd5e4eed5fb5c699626d2cc6d66421df253886d57f9a37c2aa9d186a0969ff8a8267bf4e07e864c2f2768f5040949e28a624fb36019182548151908152846020820152a155005b60249151907fe2850c590000000000000000000000000000000000000000000000000000000082523390820152fd5b82346101a55760203660031901126101a557610c126020923561138e565b90519015158152f35b82346101a557806003193601126101a557610c34611000565b90336001600160a01b03831603610c50575061001c9135611c8f565b9050517f6697b232000000000000000000000000000000000000000000000000000000008152fd5b82346101a55760203660031901126101a557610c1260209235611377565b82346101a557806003193601126101a55761001c9135610cb960016103a7611000565b611c0b565b82346101a55760203660031901126101a557610c126020923561135f565b82346101a55760203660031901126101a557602091355f525f80516020611dbe83398151915282526001815f2001549051908152f35b82346101a55760803660031901126101a557610d2c610fea565b50610d35611000565b5060643567ffffffffffffffff81116101a557602092610d57913691016110f9565b50517f150b7a02000000000000000000000000000000000000000000000000000000008152f35b82346101a55760203660031901126101a557610c1260209235611333565b61001c610e395f610e4f7fc2617efa69bab66782fa219543714338489c4e9e178271560a91b82c3f612b58610e3088610dd436611058565b7fd8aa0f3194971a2a116679f7c2090f6939c8d4e01a2a8d7e41d55e5351469e638b9a9697939598929a525f80516020611dbe833981519152602052828b208b805260205260ff838c20541615610e57575b8985858a8a61140e565b998a988961182d565b610e45838388886118ac565b519485948561130b565b0390a36118ff565b610e603361178f565b610e26565b82346101a5575f3660031901126101a557602090517fd8aa0f3194971a2a116679f7c2090f6939c8d4e01a2a8d7e41d55e5351469e638152f35b9050346101a55760203660031901126101a557357fffffffff0000000000000000000000000000000000000000000000000000000081168091036101a5576020917f4e2312e0000000000000000000000000000000000000000000000000000000008214918215610f14575b50519015158152f35b7f01ffc9a7000000000000000000000000000000000000000000000000000000001491505f610f0b565b82346101a55760c03660031901126101a557610f58610fea565b90602435926044359367ffffffffffffffff85116101a557610f9f5f927f4cf4410cc57040e44862ef0f45f3dd5a5e02db8eb8add648d4b0e236f1d07dca9636910161102a565b95909160643595610fe06084359760a43590610fba3361170d565b610fc88a828d8a898961140e565b9a8b97610fd5848a611634565b8a51968796876112d2565b0390a381610a0c57005b600435906001600160a01b03821682036101a557565b602435906001600160a01b03821682036101a557565b35906001600160a01b03821682036101a557565b9181601f840112156101a55782359167ffffffffffffffff83116101a557602083818601950101116101a557565b60a06003198201126101a5576004356001600160a01b03811681036101a55791602435916044359067ffffffffffffffff82116101a55761109b9160040161102a565b90916064359060843590565b90601f8019910116810190811067ffffffffffffffff8211176110c957604052565b634e487b7160e01b5f52604160045260245ffd5b67ffffffffffffffff81116110c957601f01601f191660200190565b81601f820112156101a557803590611110826110dd565b9261111e60405194856110a7565b828452602083830101116101a557815f926020809301838601378301015290565b9181601f840112156101a55782359167ffffffffffffffff83116101a5576020808501948460051b0101116101a557565b9060a06003198301126101a55767ffffffffffffffff6004358181116101a5578361119d9160040161113f565b939093926024358381116101a557826111b89160040161113f565b939093926044359182116101a55761109b9160040161113f565b67ffffffffffffffff81116110c95760051b60200190565b9080601f830112156101a5576020908235611204816111d2565b9361121260405195866110a7565b81855260208086019260051b8201019283116101a557602001905b82821061123b575050505090565b8135815290830190830161122d565b9080601f830112156101a5576020908235611264816111d2565b9361127260405195866110a7565b81855260208086019260051b8201019283116101a557602001905b82821061129b575050505090565b8380916112a784611016565b81520191019061128d565b908060209392818452848401375f828201840152601f01601f1916010190565b929093611301926001600160a01b0360809699989799168552602085015260a0604085015260a08401916112b2565b9460608201520152565b61133094926001600160a01b03606093168252602082015281604082015201916112b2565b90565b61133c906113b7565b600481101561134b5760021490565b634e487b7160e01b5f52602160045260245ffd5b611368906113b7565b600481101561134b5760031490565b611380906113b7565b600481101561134b57151590565b611397906113b7565b600481101561134b57600181149081156113af575090565b600291501490565b5f527f9a37c2aa9d186a0969ff8a8267bf4e07e864c2f2768f5040949e28a624fb360060205260405f205480155f146113ef57505f90565b600181036113fd5750600390565b42101561140957600190565b600290565b9461144561145e949592936040519687956001600160a01b03602088019a168a52604087015260a0606087015260c08601916112b2565b91608084015260a083015203601f1981018352826110a7565b51902090565b91908110156114745760051b0190565b634e487b7160e01b5f52603260045260245ffd5b356001600160a01b03811681036101a55790565b91908110156114745760051b81013590601e19813603018212156101a557019081359167ffffffffffffffff83116101a55760200182360381136101a5579190565b969294909695919560405196602091828901998060c08b0160a08d525260e08a0191905f5b8582821061160e5750505050601f1997888a83030160408b01528082527f07ffffffffffffffffffffffffffffffffffffffffffffffffffffffffffffff81116101a5579089969495939897929160051b80928a830137019380888601878703606089015252604085019460408260051b82010195835f925b8484106115a45750505050505061145e9550608084015260a0830152039081018352826110a7565b9193969850919398999496603f198282030184528935601e19843603018112156101a557830186810191903567ffffffffffffffff81116101a55780360383136101a5576115f7889283926001956112b2565b9b0194019401918b98969394919a9997959a61157c565b8084956001600160a01b036116266001959697611016565b168152019401929101611503565b9061163e82611377565b6116ee577f9a37c2aa9d186a0969ff8a8267bf4e07e864c2f2768f5040949e28a624fb3601548082106116b757504201908142116116a3575f527f9a37c2aa9d186a0969ff8a8267bf4e07e864c2f2768f5040949e28a624fb360060205260405f2055565b634e487b7160e01b5f52601160045260245ffd5b60449250604051917f5433660900000000000000000000000000000000000000000000000000000000835260048301526024820152fd5b60448260405190635ead8eb560e01b8252600482015260016024820152fd5b6001600160a01b03165f8181527f5a8734c34b98d7c96eb2ea25f298989407e1f25da116ec139bcce0887bcb7cf760205260409020547fb09aa5aeb3702cfd50b6b62bc4532604938f21248a27a1d5ca736082b6819cc19060ff1615611771575050565b604492506040519163e2517d3f60e01b835260048301526024820152fd5b6001600160a01b03165f8181527f52fce5e8a5d0d9e8d1ea29f4525e512e9c27bf92cae50374d497f918ab48f38260205260409020547fd8aa0f3194971a2a116679f7c2090f6939c8d4e01a2a8d7e41d55e5351469e639060ff1615611771575050565b805f525f80516020611dbe8339815191526020526001600160a01b0360405f20921691825f5260205260ff60405f20541615611771575050565b61183681611333565b1561188d57508015158061187d575b61184c5750565b602490604051907f90a9a6180000000000000000000000000000000000000000000000000000000082526004820152fd5b506118878161135f565b15611845565b60449060405190635ead8eb560e01b8252600482015260046024820152fd5b6118f4935f93928493826040519384928337810185815203925af13d156118f7573d906118d8826110dd565b916118e660405193846110a7565b82523d5f602084013e611d0f565b50565b606090611d0f565b61190881611333565b1561188d575f527f9a37c2aa9d186a0969ff8a8267bf4e07e864c2f2768f5040949e28a624fb3600602052600160405f2055565b6001600160a01b03165f8181527fb7db2dd08fcb62d0c9e08c51941cae53c267786a0b75803fb7960902fc8ef97d60205260409020545f80516020611dbe8339815191529060ff166119d3575f805260205260405f20815f5260205260405f20600160ff1982541617905533905f7f2f8788117e7eff1d82e926ec794901d17c78024a50270940304540a733656f0d8180a4600190565b50505f90565b6001600160a01b03165f8181527f5a8734c34b98d7c96eb2ea25f298989407e1f25da116ec139bcce0887bcb7cf760205260409020547fb09aa5aeb3702cfd50b6b62bc4532604938f21248a27a1d5ca736082b6819cc191905f80516020611dbe8339815191529060ff16611a9257825f5260205260405f20815f5260205260405f20600160ff1982541617905533917f2f8788117e7eff1d82e926ec794901d17c78024a50270940304540a733656f0d5f80a4600190565b5050505f90565b6001600160a01b03165f8181527ffa71e07f24c4701ef65a970775979de1292cfe909335cd18a32d2b7b7398791460205260409020547ffd643c72710c63c0180259aba6b2d05451e3591a24e58b62239378085726f78391905f80516020611dbe8339815191529060ff16611a9257825f5260205260405f20815f5260205260405f20600160ff1982541617905533917f2f8788117e7eff1d82e926ec794901d17c78024a50270940304540a733656f0d5f80a4600190565b6001600160a01b03165f8181527f52fce5e8a5d0d9e8d1ea29f4525e512e9c27bf92cae50374d497f918ab48f38260205260409020547fd8aa0f3194971a2a116679f7c2090f6939c8d4e01a2a8d7e41d55e5351469e6391905f80516020611dbe8339815191529060ff16611a9257825f5260205260405f20815f5260205260405f20600160ff1982541617905533917f2f8788117e7eff1d82e926ec794901d17c78024a50270940304540a733656f0d5f80a4600190565b90815f525f80516020611dbe833981519152806020526001600160a01b0360405f20921691825f5260205260ff60405f205416155f14611a9257825f5260205260405f20815f5260205260405f20600160ff1982541617905533917f2f8788117e7eff1d82e926ec794901d17c78024a50270940304540a733656f0d5f80a4600190565b90815f525f80516020611dbe833981519152806020526001600160a01b0360405f20921691825f5260205260ff60405f2054165f14611a9257825f5260205260405f20815f5260205260405f2060ff19815416905533917ff6391f5c32d9c69d2a47ea670b442974b53935d1edc7fd64eb21e047a839171b5f80a4600190565b15611d175790565b805115611d2657602081519101fd5b60046040517fd6bda275000000000000000000000000000000000000000000000000000000008152fd5b60ff7ff0c57e16840df040f15088dc2f81fe391c3923bec73e23a9662efc9c229c6a005460401c1615611d7f57565b60046040517fd7e6bcf8000000000000000000000000000000000000000000000000000000008152fd5b80518210156114745760209160051b01019056fe02dd7bc7dec4dceedda775e58dd541e08a116c6c53815c0bd028192f7b626800a2646970667358221220e90b2f6ab6ca2707bd4c4d6521a3743e3eecd44095036c3960d6123d83a274cd64736f6c63430008180033","linkReferences":{}},"methodIdentifiers":{"CANCELLER_ROLE()":"b08e51c0","DEFAULT_ADMIN_ROLE()":"a217fddf","EXECUTOR_ROLE()":"07bd0265","PROPOSER_ROLE()":"8f61f4f5","cancel(bytes32)":"c4d252f5","execute(address,uint256,bytes,bytes32,bytes32)":"134008d3","executeBatch(address[],uint256[],bytes[],bytes32,bytes32)":"e38335e5","getMinDelay()":"f27a0c92","getOperationState(bytes32)":"7958004c","getRoleAdmin(bytes32)":"248a9ca3","getTimestamp(bytes32)":"d45c4435","grantRole(bytes32,address)":"2f2ff15d","hasRole(bytes32,address)":"91d14854","hashOperation(address,uint256,bytes,bytes32,bytes32)":"8065657f","hashOperationBatch(address[],uint256[],bytes[],bytes32,bytes32)":"b1c5f427","initialize(uint256,address[],address[],address)":"c4c4c7b3","isOperation(bytes32)":"31d50750","isOperationDone(bytes32)":"2ab0f529","isOperationPending(bytes32)":"584b153e","isOperationReady(bytes32)":"13bc9f20","onERC1155BatchReceived(address,address,uint256[],uint256[],bytes)":"bc197c81","onERC1155Received(address,address,uint256,uint256,bytes)":"f23a6e61","onERC721Received(address,address,uint256,bytes)":"150b7a02","renounceRole(bytes32,address)":"36568abe","revokeRole(bytes32,address)":"d547741f","schedule(address,uint256,bytes,bytes32,bytes32,uint256)":"01d5062a","scheduleBatch(address[],uint256[],bytes[],bytes32,bytes32,uint256)":"8f2a0bb0","supportsInterface(bytes4)":"01ffc9a7","updateDelay(uint256)":"64d62353"},"id":17}