{"abi":[{"type":"constructor","inputs":[{"name":"_asset","type":"address","internalType":"contract ERC20"},{"name":"_vault","type":"address","internalType":"address"},{"name":"_keeper","type":"address","internalType":"address"},{"name":"_mlSigner","type":"address","internalType":"address"},{"name":"_dexAggregator","type":"address","internalType":"address"}],"stateMutability":"nonpayable"},{"type":"function","name":"MAX_AGE","inputs":[],"outputs":[{"name":"","type":"uint256","internalType":"uint256"}],"stateMutability":"view"},{"type":"function","name":"asset","inputs":[],"outputs":[{"name":"","type":"address","internalType":"contract ERC20"}],"stateMutability":"view"},{"type":"function","name":"dexAggregator","inputs":[],"outputs":[{"name":"","type":"address","internalType":"contract IAggregator"}],"stateMutability":"view"},{"type":"function","name":"eip712Domain","inputs":[],"outputs":[{"name":"fields","type":"bytes1","internalType":"bytes1"},{"name":"name","type":"string","internalType":"string"},{"name":"version","type":"string","internalType":"string"},{"name":"chainId","type":"uint256","internalType":"uint256"},{"name":"verifyingContract","type":"address","internalType":"address"},{"name":"salt","type":"bytes32","internalType":"bytes32"},{"name":"extensions","type":"uint256[]","internalType":"uint256[]"}],"stateMutability":"view"},{"type":"function","name":"keeper","inputs":[],"outputs":[{"name":"","type":"address","internalType":"address"}],"stateMutability":"view"},{"type":"function","name":"mlSigner","inputs":[],"outputs":[{"name":"","type":"address","internalType":"address"}],"stateMutability":"view"},{"type":"function","name":"rebalance","inputs":[{"name":"signal","type":"tuple","internalType":"struct IRebalanceExecutor.RebalanceSignal","components":[{"name":"fromStrategy","type":"address","internalType":"address"},{"name":"toStrategy","type":"address","internalType":"address"},{"name":"amount","type":"uint256","internalType":"uint256"},{"name":"minOutput","type":"uint256","internalType":"uint256"},{"name":"expectedNetGain","type":"uint256","internalType":"uint256"},{"name":"timestamp","type":"uint256","internalType":"uint256"},{"name":"signature","type":"bytes","internalType":"bytes"}]}],"outputs":[],"stateMutability":"nonpayable"},{"type":"function","name":"vault","inputs":[],"outputs":[{"name":"","type":"address","internalType":"address"}],"stateMutability":"view"},{"type":"event","name":"EIP712DomainChanged","inputs":[],"anonymous":false},{"type":"event","name":"Rebalanced","inputs":[{"name":"from","type":"address","indexed":true,"internalType":"address"},{"name":"to","type":"address","indexed":true,"internalType":"address"},{"name":"amount","type":"uint256","indexed":false,"internalType":"uint256"},{"name":"profit","type":"uint256","indexed":false,"internalType":"uint256"}],"anonymous":false},{"type":"error","name":"ECDSAInvalidSignature","inputs":[]},{"type":"error","name":"ECDSAInvalidSignatureLength","inputs":[{"name":"length","type":"uint256","internalType":"uint256"}]},{"type":"error","name":"ECDSAInvalidSignatureS","inputs":[{"name":"s","type":"bytes32","internalType":"bytes32"}]},{"type":"error","name":"InvalidShortString","inputs":[]},{"type":"error","name":"StringTooLong","inputs":[{"name":"str","type":"string","internalType":"string"}]}],"bytecode":{"object":"0x610160346200021a57601f620012ef38819003918201601f19168301926001600160401b039290918385118386101762000206578160a092849260409788528339810103126200021a5780516001600160a01b039390848116908190036200021a576200006f602084016200023a565b946200007d8385016200023a565b62000099608062000091606088016200023a565b96016200023a565b90845195620000a8876200021e565b6010875260208701956f5072657a6f7074526562616c616e636560801b8752805192620000d5846200021e565b6001845260208401603160f81b8152620000ef8a6200024f565b98610120998a52620001018662000419565b9a6101409b8c52519020948560e052519020916101009b838d524660a05281519360208501967f8b73c3c69bb8fe3d512ecc4cf759cc79239f7b179b0ffacaa9a75d522b39400f88528386015260608501524660808501523060a085015260a0845260c084019b848d10908d11176200020657879586948d8694525190206080523060c05260018060a01b03199889600254161760025516876003541617600355168560045416176004551683600554161760055516906006541617600655610d2e9384620005c1853960805184610871015260a0518461093d015260c05184610842015260e051846108c0015251836108e6015251826101050152518161012f0152f35b634e487b7160e01b5f52604160045260245ffd5b5f80fd5b604081019081106001600160401b038211176200020657604052565b51906001600160a01b03821682036200021a57565b805160209081811015620002e95750601f8251116200028a57808251920151908083106200027c57501790565b825f19910360031b1b161790565b90604051809263305a27a960e01b82528060048301528251908160248401525f935b828510620002cf575050604492505f838284010152601f80199101168101030190fd5b8481018201518686016044015293810193859350620002ac565b906001600160401b03821162000206575f54926001938481811c911680156200040e575b83821014620003fa57601f8111620003c4575b5081601f84116001146200035e57509282939183925f9462000352575b50501b915f199060031b1c1916175f5560ff90565b015192505f806200033d565b919083601f1981165f8052845f20945f905b88838310620003a9575050501062000390575b505050811b015f5560ff90565b01515f1960f88460031b161c191690555f808062000383565b85870151885590960195948501948793509081019062000370565b5f805284601f845f20920160051c820191601f860160051c015b828110620003ee57505062000320565b5f8155018590620003de565b634e487b7160e01b5f52602260045260245ffd5b90607f16906200030d565b805160209081811015620004a55750601f8251116200044657808251920151908083106200027c57501790565b90604051809263305a27a960e01b82528060048301528251908160248401525f935b8285106200048b575050604492505f838284010152601f80199101168101030190fd5b848101820151868601604401529381019385935062000468565b9192916001600160401b038111620002065760019182548381811c91168015620005b5575b82821014620003fa57601f81116200057f575b5080601f83116001146200051b5750819293945f926200050f575b50505f19600383901b1c191690821b17905560ff90565b015190505f80620004f8565b90601f19831695845f52825f20925f905b8882106200056757505083859697106200054e575b505050811b01905560ff90565b01515f1960f88460031b161c191690555f808062000541565b8087859682949686015181550195019301906200052c565b835f5283601f835f20920160051c820191601f850160051c015b828110620005a9575050620004dd565b5f815501849062000599565b90607f1690620004ca56fe6080806040526004361015610012575f80fd5b5f9060e05f35811c9182630dcaeaf2146107595750816338d52e0f146107335781636dfae55f1461024f5781637c21d5e01461022857816384b0196e146100ef57508063aced1661146100c8578063dd6807d9146100a15763fbfa77cf14610078575f80fd5b3461009e578060031936011261009e5760206001600160a01b0360035416604051908152f35b80fd5b503461009e578060031936011261009e5760206001600160a01b0360055416604051908152f35b503461009e578060031936011261009e5760206001600160a01b0360045416604051908152f35b823461009e578060031936011261009e576101297f0000000000000000000000000000000000000000000000000000000000000000610a69565b906101537f0000000000000000000000000000000000000000000000000000000000000000610ba5565b60405191602091602084019484861067ffffffffffffffff87111761021457949260206101ca889693866040528585526101bc604051998a997f0f000000000000000000000000000000000000000000000000000000000000008b5280868c01528a0190610773565b9088820360408a0152610773565b924660608801523060808801528460a088015286840360c088015251928381520193925b8281106101fd57505050500390f35b8351855286955093810193928101926001016101ee565b634e487b7160e01b5f52604160045260245ffd5b823461009e578060031936011261009e5760206001600160a01b0360065416604051908152f35b905034610663576003196020368201126106635767ffffffffffffffff6004351161066357819060043536030112610663576001600160a01b036004541633036106ef5761012c6102a660a46004350135426107b1565b116106ab576102b96004356004016107d2565b90602460043501916102ca836107d2565b9060646004350135926001600160a01b03604051938160208601947f5bdb6e25a0f08a8a16d26b6ef2a1c43ce2134e1d7b299e22a8b710b19211f92586521660408601521660608401526044600435013560808401528360a08401526084600435013560c084015260a4600435013581840152825261010082019180831067ffffffffffffffff84111761021457604292604052519020610369610838565b90604051917f19010000000000000000000000000000000000000000000000000000000000008352600283015260228201522060c4600435013560221960043536030181121561066357600435019060048201359167ffffffffffffffff8311610663576024810191833603831361066357604051916103f3601f8601601f191660200184610816565b8483526024853692010111610663575f6020856104249661041b968387013784010152610963565b9092919261099d565b6001600160a01b038060055416911603610667576001600160a01b0361044e6004356004016107d2565b16803b15610663575f80916024604051809481937f2e1a7d4d0000000000000000000000000000000000000000000000000000000083526044600435013560048401525af1801561065857610645575b5060206001600160a01b03600654169160846001600160a01b03600254168660405195869485937ffe029156000000000000000000000000000000000000000000000000000000008552806004860152602485015260446004350135604485015260648401525af190811561063a578391610608575b50826001600160a01b03610527846107d2565b16803b15610604578180916024604051809481937f2afcf4800000000000000000000000000000000000000000000000000000000083528860048401525af180156105f9576105e1575b50507f81a143d873eb13ec2d7efc6f49d2ce680716e4d295f3340c68e601c317fb159560406001600160a01b03806105c76105b96105b36004356004016107d2565b976107d2565b9560446004350135906107b1565b94835195604460043501358752602087015216941692a380f35b6105ea906107e6565b6105f557825f610571565b8280fd5b6040513d84823e3d90fd5b5080fd5b90506020813d602011610632575b8161062360209383610816565b810103126105f557515f610514565b3d9150610616565b6040513d85823e3d90fd5b6106509193506107e6565b5f915f61049e565b6040513d5f823e3d90fd5b5f80fd5b606460405162461bcd60e51b815260206004820152600b60248201527f496e76616c6964207369670000000000000000000000000000000000000000006044820152fd5b606460405162461bcd60e51b815260206004820152600560248201527f5374616c650000000000000000000000000000000000000000000000000000006044820152fd5b606460405162461bcd60e51b815260206004820152600a60248201527f4e6f74206b6565706572000000000000000000000000000000000000000000006044820152fd5b34610663575f3660031901126106635760206001600160a01b0360025416604051908152f35b34610663575f366003190112610663578061012c60209252f35b91908251928382525f5b84811061079d575050825f602080949584010152601f8019910116010190565b60208183018101518483018201520161077d565b919082039182116107be57565b634e487b7160e01b5f52601160045260245ffd5b356001600160a01b03811681036106635790565b67ffffffffffffffff811161021457604052565b6040810190811067ffffffffffffffff82111761021457604052565b90601f8019910116810190811067ffffffffffffffff82111761021457604052565b6001600160a01b037f00000000000000000000000000000000000000000000000000000000000000001630148061093a575b15610893577f000000000000000000000000000000000000000000000000000000000000000090565b60405160208101907f8b73c3c69bb8fe3d512ecc4cf759cc79239f7b179b0ffacaa9a75d522b39400f82527f000000000000000000000000000000000000000000000000000000000000000060408201527f000000000000000000000000000000000000000000000000000000000000000060608201524660808201523060a082015260a0815260c0810181811067ffffffffffffffff8211176102145760405251902090565b507f0000000000000000000000000000000000000000000000000000000000000000461461086a565b81519190604183036109935761098c9250602082015190606060408401519301515f1a90610c76565b9192909190565b50505f9160029190565b6004811015610a5557806109af575050565b600181036109e15760046040517ff645eedf000000000000000000000000000000000000000000000000000000008152fd5b60028103610a1a57602482604051907ffce698f70000000000000000000000000000000000000000000000000000000082526004820152fd5b600314610a245750565b602490604051907fd78bce0c0000000000000000000000000000000000000000000000000000000082526004820152fd5b634e487b7160e01b5f52602160045260245ffd5b60ff8114610abf5760ff811690601f8211610a955760405191610a8b836107fa565b8252602082015290565b60046040517fb3512b0c000000000000000000000000000000000000000000000000000000008152fd5b506040515f8054906001908260011c60018416928315610b9b575b6020948583108514610b87578287528694908115610b675750600114610b0c575b5050610b0992500382610816565b90565b5f8080527f290decd9548b62a8d60345a988386fc84ba6bc95484008f6362f93160ef3e56395935091905b818310610b4f575050610b0993508201015f80610afb565b85548784018501529485019486945091830191610b37565b915050610b0994925060ff191682840152151560051b8201015f80610afb565b634e487b7160e01b5f52602260045260245ffd5b90607f1690610ada565b60ff8114610bc75760ff811690601f8211610a955760405191610a8b836107fa565b506040515f60018054918260011c60018416928315610c6c575b6020948583108514610b87578287528694908115610b675750600114610c0f575050610b0992500382610816565b9093915060015f527fb10e2d527612073b26eecdfd717e6a320cf44b4afac2b0732d9fcbe2b7fa0cf6935f915b818310610c54575050610b0993508201015f80610afb565b85548784018501529485019486945091830191610c3c565b90607f1690610be1565b91907f7fffffffffffffffffffffffffffffff5d576e7357a4501ddfe92f46681b20a08411610ced579160209360809260ff5f9560405194855216868401526040830152606082015282805260015afa15610658575f516001600160a01b03811615610ce357905f905f90565b505f906001905f90565b5050505f916003919056fea264697066735822122079c96a59cc6fb19922dcb70d38afc7d587425eba66c315fe79b8c79517d479a864736f6c63430008180033","linkReferences":{}},"methodIdentifiers":{"MAX_AGE()":"0dcaeaf2","asset()":"38d52e0f","dexAggregator()":"7c21d5e0","eip712Domain()":"84b0196e","keeper()":"aced1661","mlSigner()":"dd6807d9","rebalance((address,address,uint256,uint256,uint256,uint256,bytes))":"6dfae55f","vault()":"fbfa77cf"},"id":78}