{"abi":[{"type":"constructor","inputs":[{"name":"_asset","type":"address","internalType":"address"},{"name":"_comet","type":"address","internalType":"address"}],"stateMutability":"nonpayable"},{"type":"function","name":"asset","inputs":[],"outputs":[{"name":"","type":"address","internalType":"contract IERC20"}],"stateMutability":"view"},{"type":"function","name":"comet","inputs":[],"outputs":[{"name":"","type":"address","internalType":"contract IComet"}],"stateMutability":"view"},{"type":"function","name":"estimatedTotalAssets","inputs":[],"outputs":[{"name":"","type":"uint256","internalType":"uint256"}],"stateMutability":"view"},{"type":"function","name":"harvest","inputs":[],"outputs":[{"name":"","type":"uint256","internalType":"uint256"}],"stateMutability":"nonpayable"},{"type":"function","name":"invest","inputs":[{"name":"amount","type":"uint256","internalType":"uint256"}],"outputs":[],"stateMutability":"nonpayable"},{"type":"function","name":"withdraw","inputs":[{"name":"amount","type":"uint256","internalType":"uint256"}],"outputs":[],"stateMutability":"nonpayable"}],"bytecode":{"object":"0x60803461008c57601f61058038819003918201601f19168301916001600160401b0383118484101761009057808492604094855283398101031261008c57610052602061004b836100a4565b92016100a4565b5f80546001600160a01b039384166001600160a01b031991821617909155600180549290931691161790556040516104c790816100b98239f35b5f80fd5b634e487b7160e01b5f52604160045260245ffd5b51906001600160a01b038216820361008c5756fe60406080815260049081361015610014575f80fd5b5f905f3560e01c80632afcf480146102365780632e1a7d4d1461017e57806338d52e0f146101595780634641257d14610136578063ba3e9c121461010f5763efbb5cb014610060575f80fd5b3461010b578160031936011261010b5760206001600160a01b038354169360248351809681937f70a0823100000000000000000000000000000000000000000000000000000000835230908301525afa91821561010057916100c7575b6020925051908152f35b90506020823d6020116100f8575b816100e2602093836103cd565b810103126100f45760209151906100bd565b5f80fd5b3d91506100d5565b9051903d90823e3d90fd5b5080fd5b503461010b578160031936011261010b576020906001600160a01b03600154169051908152f35b503461010b578160031936011261010b576020906101526103ef565b9051908152f35b503461010b578160031936011261010b576001600160a01b0360209254169051908152f35b5091819234610232576020366003190112610232576001600160a01b039182600154169284541690833b1561022e576101ff9385928385518097819582947ff3fef3a30000000000000000000000000000000000000000000000000000000084528135918401602090939291936001600160a01b0360408201951681520152565b03925af190811561022557506102125750f35b61021b9061038c565b6102225780f35b80fd5b513d84823e3d90fd5b8480fd5b5050fd5b508290346100f45760203660031901126100f4578135916001600160a01b0392835f541684600154166014525f6034526f095ea7b300000000000000000000000090815f5260205f6044601082855af1908160015f5114161561036f575b5050845f5416908560015416601452826034525f5260205f6044601082855af1908160015f51141615610352575b50505f6034528360015416935f541693803b156100f457610329945f80948651978895869485937ff2b9fdb80000000000000000000000000000000000000000000000000000000085528401602090939291936001600160a01b0360408201951681520152565b03925af1908115610349575061033d575080f35b610347915061038c565b005b513d5f823e3d90fd5b3b153d1710156103635785806102c2565b50633e3f8f735f52601cfd5b3b153d171015610380578680610294565b82633e3f8f735f52601cfd5b67ffffffffffffffff81116103a057604052565b7f4e487b71000000000000000000000000000000000000000000000000000000005f52604160045260245ffd5b90601f8019910116810190811067ffffffffffffffff8211176103a057604052565b5f60206001600160a01b03600154166044604051809481937f21c0b3420000000000000000000000000000000000000000000000000000000083523060048401523060248401525af1908115610486575f91610454575b508061045157505f90565b90565b90506020813d60201161047e575b8161046f602093836103cd565b810103126100f457515f610446565b3d9150610462565b6040513d5f823e3d90fdfea26469706673582212208171bec55303b7d412f0790cc938c939761288e911e470088bb898e04355d14064736f6c63430008180033","linkReferences":{}},"methodIdentifiers":{"asset()":"38d52e0f","comet()":"ba3e9c12","estimatedTotalAssets()":"efbb5cb0","harvest()":"4641257d","invest(uint256)":"2afcf480","withdraw(uint256)":"2e1a7d4d"},"id":94}