{"abi":[{"type":"constructor","inputs":[{"name":"_asset","type":"address","internalType":"address"},{"name":"_rewardToken","type":"address","internalType":"address"}],"stateMutability":"nonpayable"},{"type":"function","name":"accruedYield","inputs":[],"outputs":[{"name":"","type":"uint256","internalType":"uint256"}],"stateMutability":"view"},{"type":"function","name":"asset","inputs":[],"outputs":[{"name":"","type":"address","internalType":"contract IERC20"}],"stateMutability":"view"},{"type":"function","name":"baseAPY","inputs":[],"outputs":[{"name":"","type":"uint256","internalType":"uint256"}],"stateMutability":"view"},{"type":"function","name":"estimatedTotalAssets","inputs":[],"outputs":[{"name":"","type":"uint256","internalType":"uint256"}],"stateMutability":"view"},{"type":"function","name":"getCurrentAPY","inputs":[],"outputs":[{"name":"","type":"uint256","internalType":"uint256"}],"stateMutability":"view"},{"type":"function","name":"harvest","inputs":[],"outputs":[{"name":"","type":"uint256","internalType":"uint256"}],"stateMutability":"nonpayable"},{"type":"function","name":"invest","inputs":[{"name":"amount","type":"uint256","internalType":"uint256"}],"outputs":[],"stateMutability":"nonpayable"},{"type":"function","name":"lastUpdateTime","inputs":[],"outputs":[{"name":"","type":"uint256","internalType":"uint256"}],"stateMutability":"view"},{"type":"function","name":"managementFee","inputs":[],"outputs":[{"name":"","type":"uint256","internalType":"uint256"}],"stateMutability":"view"},{"type":"function","name":"rewardAPY","inputs":[],"outputs":[{"name":"","type":"uint256","internalType":"uint256"}],"stateMutability":"view"},{"type":"function","name":"rewardToken","inputs":[],"outputs":[{"name":"","type":"address","internalType":"contract IERC20"}],"stateMutability":"view"},{"type":"function","name":"setAPY","inputs":[{"name":"_baseAPY","type":"uint256","internalType":"uint256"},{"name":"_rewardAPY","type":"uint256","internalType":"uint256"}],"outputs":[],"stateMutability":"nonpayable"},{"type":"function","name":"setManagementFee","inputs":[{"name":"_managementFee","type":"uint256","internalType":"uint256"}],"outputs":[],"stateMutability":"nonpayable"},{"type":"function","name":"totalDeposited","inputs":[],"outputs":[{"name":"","type":"uint256","internalType":"uint256"}],"stateMutability":"view"},{"type":"function","name":"withdraw","inputs":[{"name":"amount","type":"uint256","internalType":"uint256"}],"outputs":[],"stateMutability":"nonpayable"},{"type":"event","name":"ManagementFeeCharged","inputs":[{"name":"amount","type":"uint256","indexed":false,"internalType":"uint256"}],"anonymous":false},{"type":"event","name":"RewardsHarvested","inputs":[{"name":"amount","type":"uint256","indexed":false,"internalType":"uint256"}],"anonymous":false},{"type":"event","name":"YieldAccrued","inputs":[{"name":"amount","type":"uint256","indexed":false,"internalType":"uint256"}],"anonymous":false}],"bytecode":{"object":"0x6080346100a057601f61077438819003918201601f19168301916001600160401b038311848410176100a45780849260409485528339810103126100a057610052602061004b836100b8565b92016100b8565b610258600255606460035560c86007555f80546001600160a01b039384166001600160a01b03199182161790915560018054929093169116179055426005556040516106a790816100cd8239f35b5f80fd5b634e487b7160e01b5f52604160045260245ffd5b51906001600160a01b03821682036100a05756fe6080604081815260049182361015610015575f80fd5b5f3560e01c908163214405a91461041f575080632afcf480146103875780632e1a7d4d146102a057806338d52e0f1461027a5780634019fb331461025c5780634641257d146102405780635acd2e4c14610224578063962ca496146101ef578063a6f7f5d6146101d1578063b7fd1784146101b3578063c8f33c9114610195578063efbb5cb014610122578063f7c618c1146100fb578063fe56e232146100e35763ff50abdc146100c4575f80fd5b346100df575f3660031901126100df57602091549051908152f35b5f80fd5b82346100df5760203660031901126100df5735600755005b50346100df575f3660031901126100df576020906001600160a01b03600154169051908152f35b50346100df575f3660031901126100df5761018e60209261018961017f64496cebb8006101686101546005544261045a565b94549461016360025487610467565b610467565b0461271061017860075483610467565b049061045a565b9160065490610439565b610439565b9051908152f35b50346100df575f3660031901126100df576020906005549051908152f35b50346100df575f3660031901126100df576020906003549051908152f35b50346100df575f3660031901126100df576020906007549051908152f35b50346100df575f3660031901126100df5760209061018e61021560025460035490610439565b61271061017860075483610467565b50346100df573660031901126100df5735600255602435600355005b50346100df575f3660031901126100df5760209061018e61047a565b50346100df575f3660031901126100df576020906006549051908152f35b50346100df575f3660031901126100df576020906001600160a01b035f54169051908152f35b50346100df5760203660031901126100df578135906102bd6105ae565b82549082821061032b5750816102d29161045a565b82556001600160a01b035f541690336014526034526fa9059cbb0000000000000000000000005f5260205f6044601082855af1908160015f5114161561031457005b3b153d17101561032057005b6390b8ec185f52601cfd5b517f08c379a0000000000000000000000000000000000000000000000000000000008152602081850152601460248201527f496e73756666696369656e742062616c616e63650000000000000000000000006044820152606490fd5b50346100df5760203660031901126100df5781356103a36105ae565b6001600160a01b035f5416825190826060523084523360601b602c526f23b872dd000000000000000000000000600c5260205f6064601c82855af1908160015f51141615610402575b50506103fe925f606052528254610439565b9055005b3b153d171015610413575f806103ec565b83637939f4245f52601cfd5b346100df575f3660031901126100df576020906002548152f35b9190820180921161044657565b634e487b7160e01b5f52601160045260245ffd5b9190820391821161044657565b8181029291811591840414171561044657565b6104826105ae565b64496cebb8006104ac61049a60045460035490610467565b6104a66005544261045a565b90610467565b04806104b8575b505f90565b6001600160a01b03600154166040519060208201917f40c10f1900000000000000000000000000000000000000000000000000000000835230602482015283604482015260448152608081019167ffffffffffffffff9382841085851117610594575f809493819460405251925af1903d156105a8573d8181116105945760405191601f8201601f19908116603f01168301908111838210176105945760405281525f60203d92013e5b156104b3577f302ece888b23f17e9addd0ad302c9b0d6619a5c38b718deb019638e29355c0fb6020604051838152a190565b634e487b7160e01b5f52604160045260245ffd5b50610562565b6105ba6005544261045a565b80151580610666575b6105ca5750565b602064496cebb8006106067f2d46e156a9ac545bd5f27832a0e6293d21c92faf9237534c6b18c51e9cca59df9361016360045460025490610467565b047f3b6bc0ba304eaa17cdca1b053baac859e721c7a775cddefc825f6286641311fc8261064361271061063b60075486610467565b04809461045a565b61064f81600654610439565b60065542600555604051908152a1604051908152a1565b5060045415156105c356fea264697066735822122037ba800387f954268009cde7ba87bde5e55bf2159adcd26a005a508fc497f26b64736f6c63430008180033","linkReferences":{}},"methodIdentifiers":{"accruedYield()":"4019fb33","asset()":"38d52e0f","baseAPY()":"214405a9","estimatedTotalAssets()":"efbb5cb0","getCurrentAPY()":"962ca496","harvest()":"4641257d","invest(uint256)":"2afcf480","lastUpdateTime()":"c8f33c91","managementFee()":"a6f7f5d6","rewardAPY()":"b7fd1784","rewardToken()":"f7c618c1","setAPY(uint256,uint256)":"5acd2e4c","setManagementFee(uint256)":"fe56e232","totalDeposited()":"ff50abdc","withdraw(uint256)":"2e1a7d4d"},"id":87}